:020000040800F2
:10000000102900209D010008513B000855330008CD
:100010004D3B00084D090008915800080000000001
:10002000000000000000000000000000DF4F00089A
:10003000DB0A0008000000008D3B0008E14F0008CB
:10004000B7010008B7010008B7010008B7010008B0
:10005000B7010008B7010008B7010008DF0A00086F
:10006000B7010008B7010008B7010008B701000890
:1000700051090008B701000861090008710900086A
:100080008109000891090008E1070008B70100088C
:10009000B7010008B7010008B7010008E10A00082D
:1000A000B7010008B7010008B7010008B701000850
:1000B00031510008B7010008B7010008B701000876
:1000C000B7010008B7010008B7010008314E000869
:1000D000414E0008B70100086D580008815800081B
:1000E000DD0A0008B7010008B7010008B7010008E1
:1000F000B7010008B7010008B7010008A10900080E
:10010000B7010008B7010008B7010008B7010008EF
:10011000B7010008B701000841510008515100081B
:10012000B1090008B7010008B7010008C1090008BB
:10013000B70100080000000000000000B70100083F
:10014000B7010008B7010008B7010008B7010008AF
:10015000B7010008B7010008B7010008B70100089F
:10016000B7010008B7010008B7010008B70100088F
:10017000B7010008B70100080000000000000000FF
:10018000B7010008B7010008DFF80CD000F0CAFA88
:10019000004800472D6200081029002006488047CB
:1001A00006480047FEE7FEE7FEE7FEE7FEE7FEE75C
:1001B000FEE7FEE7FEE7FEE7CD50000889010008F4
:1001C0002DE9F05F0546002092469B46884606468C
:1001D000814640241BE0284641464746224600F01F
:1001E0000AFA53465A46C01A914110D3114618468E
:1001F000224600F0F1F92D1A67EB01084F4622461E
:100200000120002100F0E8F917EB00094E41201E03
:10021000A4F10104DFDC484631462A464346BDE8E6
:10022000F09FD2B201E000F8012B491EFBD27047CB
:100230000022F6E710B513460A4604461946FFF7B2
:10024000F0FF204610BD2DE9FE4F804681EA0300F5
:10025000C00F0C46009021F0004123F00045B8EBA0
:100260000200A94105D24046214690461C460B4655
:10027000024623F00040104347D0270DC7F30A0081
:10028000C3F30A510290401A019040286BDAC3F37D
:10029000130040F4801B0098924620B10023D2EB5B
:1002A000030A63EB0B0B01985946C0F1400250461C
:1002B00000F092F906460D4650465946019A00F064
:1002C000AAF910EB08006141002487EA115284EA80
:1002D000E7731A4340D0009A62B3019A012A4FEAA9
:1002E000075215DC001B61EB02014FF0004202EAED
:1002F0000752CDE90042001C41F5801132462B46E1
:1003000000F0AAF903B0BDE8F08F40462146F9E7B6
:10031000001B61EB0201001C41F5801300185B41DA
:100320002018A2F5001747EB030140EAD570B61973
:100330006D4111E06D084FEA360645EAC0754FEA97
:100340000752001B61EB0201001C41F580114908B6
:100350004FEA30000019514132462B4603B0BDE848
:10036000F04F00F06AB90098012240000023D0EB62
:10037000020263EBE073009821464FEAE074B8EBA9
:10038000000061EB0401E9E783F000435BE781F0E3
:10039000004158E72DE9FE4F81EA030404F00044D0
:1003A00021F0004100944FF0000B23F0004350EA8D
:1003B00001045ED052EA03045BD0C3F30A54C1F3D4
:1003C0000A552C44A4F2F3340194A0FB0254C1F367
:1003D000130141F48011C3F3130343F4801301FBB1
:1003E000024400FB034E840A970A44EA815447EA18
:1003F0008357A4FB076802958D0A05FB07854FEA22
:10040000932C04FB0C542705029D4FEA065847EA3B
:100410001637B5EB08056EEB070C870E920E47EA10
:10042000811742EA8312A7FB0201B6EB0B0164EBD2
:1004300000042B0D43EA0C335E1844EB1C50DA46E3
:100440005146E7FB0201C5F313044FEA0B3343EABD
:1004500014534FEA0432019C43EA0603A4F10C044E
:100460000294009CCDE900B400F0F6F803B0BDE8BA
:10047000F08F00200146F9E72DE9F04D81EA0304F1
:1004800004F0004B21F0004514464FF0000A23F021
:10049000004150EA050220D054EA01021DD0C5F304
:1004A0000A570246C5F31303C1F31300C1F30A56FA
:1004B00040F4801543F48013A7EB0608101BD646C2
:1004C00008F2FD3873EB050002D308F1010801E0E2
:1004D00092185B41B8F1000F03DA00200146BDE835
:1004E000F08D00204FF48011064684460EE0171B65
:1004F00073EB050705D3121B63EB050306434CEAB8
:10050000010C49084FEA300092185B4150EA01079C
:10051000EDD152EA030012D082EA040083EA050119
:10052000084305D0101BAB4106D20122002306E090
:1005300000224FF0004302E06FF0010253101AEB6B
:1005400006004CEB085110EB0A0041EB0B01BDE833
:10055000F04D00F072B800F0004230F000400AD0D8
:10056000C10D01F56071C0F3160042EA0151C208E5
:1005700040071143704700200146704730B5041E04
:1005800071F1000404DB4FF00044404264EB0101D0
:10059000141E73F1000405DB1C464FF00043524269
:1005A00063EB0403994208BF904230BD30B50B465F
:1005B000014600202022012409E021FA02F59D4293
:1005C00005D303FA02F5491B04FA02F52844151E67
:1005D000A2F10102F1DC30BD202A04DB203A00FA4E
:1005E00002F1002070479140C2F1200320FA03F38A
:1005F000194390407047202A04DB203A21FA02F088
:100600000021704721FA02F3D040C2F1200291404C
:10061000084319467047202A06DBCB17203A41FAD7
:1006200002F043EAE07306E041FA02F3D040C2F17F
:100630002002914008431946704710B5141E73F10B
:10064000000408DA401C41F1000192185B411A4392
:1006500001D120F0010010BD2DE9F04D92469B46DE
:1006600011B1B1FA81F202E0B0FA80F22032904684
:10067000FFF7B2FF04460F4640EA0A0041EA0B01C9
:1006800053465A46084313D0114653EA010019D085
:10069000C8F140025046FFF7AEFF05460E465046F1
:1006A00059464246FFF798FF084305D0012004E071
:1006B00020463946BDE8F08D0020054346EAE07645
:1006C0002C4337430A986305E40AA0EB0800002294
:1006D000FD0A44EA47540A3002D500200146E9E702
:1006E000010510196941DDE9084500196941BDE8B6
:1006F000F04DA2E7C1F30A52C1F3130140F2FF33F8
:1007000041F480119A4202DA00200146704740F21B
:1007100033439A42A2F2334202DC5242FFF76BBFEC
:10072000FFF75ABF064C074D06E0E06840F00103B2
:1007300094E8070098471034AC42F6D3FFF728FD41
:10074000688600088886000870B50546AC6B206C8A
:1007500000F0500050BB206C40F400702064206812
:10076000806800F04050E8B9A069D8B92068C06A34
:1007700000F4700020B12068806800F4806088B9BF
:100780002068406820F0200021684860206C20F438
:1007900080702064206C00F4805018B9206C40F008
:1007A00001002064204600F06BFA03E0A06BC16CEE
:1007B0002846884770BD70B50546AC6B4020206464
:1007C000606C40F004006064204600F07CFA70BD6C
:1007D00070B50446A56B284600F074FA70BD0000A1
:1007E00010B5024800F070FA10BD00006408002047
:1007F00054494A6822F440324A604A6843681A43BE
:100800004A600268526822F4807203685A60026883
:100810005368026943EA022203685A600268526818
:1008200022F0407203685A600268526883681A4373
:1008300003685A600268926822F4006203689A6052
:1008400002689268C3681A4303689A603E4B826AE2
:100850009A4218D00268926822F0706203689A6027
:1008600002689268836A1A4303689A600268926811
:1008700022F0405203689A6002689268C36A1A4381
:1008800003689A600BE00268926822F07062036865
:100890009A600268926822F0405203689A60026887
:1008A000926822F0020203689A6002689368826983
:1008B00043EA420203689A60026AA2B1026852687F
:1008C00042F4006203685A600268526822F460428F
:1008D00003685A6002685368426A521E43EA423211
:1008E00003685A6005E00268526822F400620368F7
:1008F0005A600268D26A22F470020368DA620268FF
:10090000D36A828B521E43EA02520368DA6202689B
:10091000926822F4007203689A6002689368026B1E
:1009200043EA422203689A600268926822F4806275
:1009300003689A6002689368426943EA8222036806
:100940009A607047002301400100000F00BFFEE7DE
:1009500010B5024800F03CFC10BD0000A4070020C8
:1009600010B5024800F034FC10BD0000040800205F
:1009700010B5024800F02CFC10BD0000B0040020AF
:1009800010B5024800F024FC10BD0000E406002071
:1009900010B5024800F01CFC10BD00004407002008
:1009A00010B5024800F014FC10BD00001005002036
:1009B00010B5024800F00CFC10BD0000AC0800208F
:1009C00010B5024800F004FC10BD000050040020E7
:1009D0000146087810381823B0FBF3F20848805C11
:1009E000C865032A05D908686FF30900001D8865EA
:1009F00003E008686FF309008865886D70470000A0
:100A000090620008014600208A6A8B69CBB932B136
:100A1000012A0DD0022A03D0032A10D10EE000BF14
:100A2000CB6A03F08073B3F1807F00D1012007E02F
:100A3000CB6AB3F1C07F00D1012001E000E000BF2C
:100A400034E08B69B3F5005F1AD132B1012A07D0C7
:100A5000022A03D0032A11D10AE000BF01200EE0D0
:100A6000CB6A03F08073B3F1807F00D1012006E0F0
:100A7000CB6AB3F1C07F00D1012000E000BF15E0D8
:100A800032B1012A05D0022A04D0032A0CD103E096
:100A900000BF00BF012008E0CB6A03F08073B3F110
:100AA000807F00D1012000E000BF00BF704730B55B
:100AB0000468246824F4802405682C60046863605A
:100AC0008468402C04D10468A2600468E16003E0FB
:100AD0000468A1600468E26030BD704770477047E9
:100AE00010B5402000F096FD802000F093FD10BD71
:100AF0007047000038B502460020009000BF92F811
:100B00003C00012801D1022038BD012082F83C00C0
:100B100000BF0868092816D91068C0680C780A3C1C
:100B200004EB44050724AC40A0431468E0600C7853
:100B30000A3C04EB44048868A0401468E46820433D
:100B40001468E06013E0106800690C7804EB440559
:100B50000724AC40A043146820610C7804EB4404E3
:100B60008868A0401468246920431468206148689C
:100B7000072817D21068406B0C79641E04EB8405BB
:100B80001F24AC40A04314686063088880B20C79CD
:100B9000641E04EB8404A0401468646B2043146852
:100BA000606331E048680D2817D21068006B0C793B
:100BB000E41F04EB84051F24AC40A04314682063A9
:100BC000088880B20C79E41F04EB8404A040146808
:100BD000246B20431468206316E01068C06A0C7907
:100BE0000D3C04EB84051F24AC40A0431468E06274
:100BF000088880B20C790D3C04EB8404A040146892
:100C0000E46A20431468E062194B1A4C1068A04251
:100C100006D10868122803D1586840F48000586053
:100C2000144C1068A0421CD10868102802D0086833
:100C3000112816D1586840F4000058600868102840
:100C40000FD10D4800680D4CB0FBF4F000EB8000B4
:100C50004000009002E00098401E0090009800289C
:100C6000F9D100BF002082F83C0000BF00BF4BE775
:100C700000230140002001400000002040420F00FE
:100C800010B5044605492068884205D1044B05A2E9
:100C9000A2210B4803F04CFE10BD000000200140D3
:100CA0005C00002041444320636F6E7665727420BF
:100CB00073756363657373282564292E0000000033
:100CC000986200087047704770B5044600250026FA
:100CD00020680068C0F3400520684068C0F34016F3
:100CE00095B38EB3206C00F0100018B9206C40F45E
:100CF000007020642068806800F04050E8B9A06966
:100D0000D8B92068C06A00F4700020B120688068FB
:100D100000F4806088B92068406820F020002168D5
:100D20004860206C20F480702064206C00F48050B7
:100D300018B9206C40F0010020642046FFF7A0FFA6
:100D40006FF012002168086020680068C0F3800519
:100D500020684068C0F3C016E5B3DEB3206C00F035
:100D6000100018B9206C40F400502064206880689E
:100D700000F4401038BB2068806B00F4401020B1B4
:100D80002068806800F48060E8B92068406800F45A
:100D90008060C0B92068806800F0405098B9A069B0
:100DA00088B92068406820F0800021684860206C85
:100DB00020F480502064206C00F4807018B9206CFE
:100DC00040F0010020642046FFF792FE6FF00C0017
:100DD000216808602068006800F00105206840680C
:100DE000C0F3801685B17EB12068006800F0010074
:100DF00050B1206C40F480302064204600F052F85E
:100E00006FF001002168086020680068C0F3401599
:100E100020684068C0F380667DB176B1606C40F0B8
:100E2000020060646FF02000216808602046FFF730
:100E30004AFF6FF020002168086070BD70B504465D
:100E400000250CB9012070BD1549A06A884200D068
:100E500000BF206C30B90020606484F83C0020465C
:100E600000F022F8206C00F0100088B9206C20F40B
:100E7000885040F0020020642046FFF7B9FC0020B3
:100E80006064206C20F0020040F00100206400E06B
:100E9000012500BF002084F83C0000BF2846D2E7AF
:100EA0000100000F7047000010B586B004463749B6
:100EB0002068884268D100BF002000903448006854
:100EC00040F48070324908600846006800F4807081
:100ED000009000BF00BF102001900320029000206E
:100EE000039001A92B4800F0A3FB012001900320EF
:100EF00002900020039001A9264800F099FB0220EF
:100F00000190032002900020039001A9214800F0E5
:100F10008FFB01200190032002900020039001A983
:100F20001D4800F085FB0220019003200290002064
:100F3000039001A9184800F07BFB18481849086085
:100F400000204860002116488160C1604FF4806134
:100F5000016149004161890081614911C161090252
:100F6000016200214162012181620021C1620163AD
:100F700000F04EFA18B1B3210AA004F08BFC00BFB8
:100F80000748A063846300BF06B010BD0020014085
:100F90004438024000000240000402401064024055
:100FA000AC0800202E2E5C5372635C6164632E6378
:100FB00000000000F8B504460D46164600200090DB
:100FC00000BF94F83C00012801D10220F8BD0120A7
:100FD00084F83C0000BF2068806800F00100A0B9E0
:100FE0002068806840F00100216888603C48006803
:100FF0003C49B0FBF1F000EB4000009002E00098AB
:10100000401E009000980028F9D12068806800F008
:101010000100002862D0206C40F20161884340F456
:10102000807020642068406800F4806028B1206CE3
:1010300020F4005040F480502064206C00F4805074
:1010400020B1606C20F00600606401E00020606464
:1010500000BF002084F83C0000BF234F2348A16B51
:10106000C8632348A16B08642248A16BC8646FF071
:101070002200216808602068406840F08060216894
:1010800048602068806840F4807021688860226829
:1010900002F14C0133462A46A06B00F02FFA786823
:1010A00000F01F0058B92068806800F0405028B94F
:1010B0002068806840F08040216888600EE00E491A
:1010C000206888420AD12068806800F0405028B922
:1010D0002068806840F0804021688860002075E7C3
:1010E0000000002040420F00002301404907000893
:1010F000D1070008B70700080020014070B504467A
:10110000A56D00F0A7FB064694F83500022808D02C
:101110008020606500BF002084F8340000BF0120FB
:1011200070BD2068006820F0160021680860206803
:10113000406920F0800021684861206C08B9A06CEB
:1011400028B12068006820F0080021680860206845
:10115000006820F00100216808600FE000F07AFBD1
:10116000801B05280AD92020606500BF002084F874
:10117000340000BF032084F83500D1E72068006800
:1011800000F001000028E9D194F85C103F2088406D
:10119000A86000BF002084F8340000BF012084F85C
:1011A00035000020BCE7014691F83500022803D045
:1011B0008020486501207047052081F835000868C7
:1011C000006820F001000A6810600020F3E70000CA
:1011D000F8B50446002000908C4800684FF4165182
:1011E000B0FBF1F7A56D2E6894F85C1008208840DC
:1011F000304098B12068006800F0040070B12068A9
:10120000006820F004002168086094F85C10082051
:101210008840A860606D40F00100606594F85C1043
:1012200001208840304068B12068406900F08000AB
:1012300040B194F85C1001208840A860606D40F0D7
:101240000200606594F85C1004208840304068B16A
:101250002068006800F0020040B194F85C1004209F
:101260008840A860606D40F00400606594F85C10F0
:1012700010208840304078B32068006800F00800F3
:1012800050B394F85C1010208840A8602068006873
:1012900000F4802080B12068006800F4002028B9A4
:1012A000206CC8B12046216C884715E0A06C98B12D
:1012B0002046A16C88470FE02068006800F4807029
:1012C00028B92068006820F0080021680860206CB8
:1012D00010B12046216C884794F85C10202088408B
:1012E0003040002865D02068006800F01000002819
:1012F0005FD094F85C1020208840A86094F83500F6
:10130000052828D12068006820F0160021680860B0
:101310002068406920F0800021684861206C08B98D
:10132000A06C28B12068006820F0080021680860DF
:1013300094F85C103F208840A86000BF002084F82B
:10134000340000BF012084F83500206D10B1204624
:10135000216D8847F8BD2068006800F4802080B1C6
:101360002068006800F4002028B9606C10B12046A5
:10137000616C88471DE0E06BD8B12046E16B88477F
:1013800017E02068006800F4807068B92068006881
:1013900020F010002168086000BF002084F83400AD
:1013A00000BF012084F83500E06B10B12046E16BEE
:1013B0008847606D38B3606D00F00100F0B1052022
:1013C00084F835002068006820F00100216808607A
:1013D00000BF0098401C0090B84200D905E020688A
:1013E000006800F001000028F3D100BF00BF00201A
:1013F00084F8340000BF012084F83500E06C10B19F
:101400002046E16C884700BFA4E7000000000020F0
:101410002DE9F0410446002500F01CFA074614B9F6
:101420000120BDE8F081606A00B100BF00BF00206C
:1014300084F8340000BF022084F83500206800687A
:1014400020F00100216808600AE000F003FAC01BE8
:10145000052805D920206065032084F83500E0E7E1
:101460002068006800F001000028EED120680568BF
:1014700021480540D4E901010843E1680843216996
:10148000084361690843A1690843E1690843216A87
:1014900008430543606A042803D1D4E90B010843DB
:1014A0000543206805602068456925F00705606AE6
:1014B0000543606A04280DD1A06A0543E06A48B17B
:1014C0002046FFF79FFA28B140206065012084F88C
:1014D0003500A6E7206845612046FFF779FA064601
:1014E00094F85C103F208840B060002060650120C7
:1014F00084F83500002094E73F8010F02DE9F04794
:1015000004460D4616461F464FF00008D4F8589082
:1015100000BF94F83400012802D10220BDE8F08712
:10152000012084F8340000BF94F8350001282BD145
:10153000022084F83500002060653B46324629468B
:101540002046FFF7B4FA94F85C103F208840C9F8B1
:1015500008002068006840F01600216808602068D4
:10156000406940F0800021684861206C28B1206803
:10157000006840F00800216808602068006840F0BA
:1015800001002168086006E000BF002084F83400F4
:1015900000BF4FF002084046C0E700002DE9F041CF
:1015A000044600F057F90646254600F037FC4FF494
:1015B0007A71B0FBF1F7384601F01BF9681C10B1E5
:1015C00005480078054400BF00F044F9801BA8429C
:1015D000FAD3BDE8F08100000C00002010B50446ED
:1015E000234604A222210A4803F0A2F9204601F072
:1015F0009FFE10BD25642070696E20696E7465724F
:101600007275707420747269676765727300000088
:10161000AF85000810B5044604480068204020B19A
:10162000024804602046FFF7D9FF10BD143C01407A
:10163000F8B502460B460025002400200021DCE01E
:10164000012606FA01F51E6806EA0504AC4273D1CC
:101650005E68022E02D05E68122E13D1CF0802F10E
:10166000200656F827004E07F70E0F26BE40B0435F
:101670004F07FF0E1E69BE403043CF0802F120061F
:1016800046F8270010684F000326BE40B0431E797D
:1016900006F003064F00BE40304310605E68012E26
:1016A00008D05E68022E05D05E68112E02D05E68FA
:1016B000122E13D190684F000326BE40B0434F0056
:1016C000DE68BE4030439060506801268E40B043D3
:1016D0001E79C6F300168E4030435060D0684F002C
:1016E0000326BE40B0434F009E68BE403043D060EA
:1016F0005E6806F08056B6F1805F7DD100BF00269F
:101700000096404E366846F480463E4F3E603E4668
:10171000366806F48046009600BF00BF3A4E8F0838
:1017200056F827008E07370F0F26BE40B043374EBE
:10173000B24202D1002624E05EE0354EB24201D131
:1017400001261EE0334EB24201D1022619E0324E8C
:10175000B24201D1032614E0304EB24201D1042638
:101760000FE02F4EB24201D105260AE02D4EB242C3
:1017700001D1062605E02C4EB24201D1072600E039
:1017800008268F073F0FBE4030431F4E8F0846F894
:101790002700264E3068A0435E6806F48036B6F512
:1017A000803F00D12043214E3060361D3068A04379
:1017B0005E6806F40036B6F5003F00D120431B4EAC
:1017C000361D3060361D3068A0435E6806F4801612
:1017D000B6F5801F00D12043144E08363060361D08
:1017E0003068A0435E6806F40016B6F5001F00D10D
:1017F00020430E4E0C363060491C1029FFF420AFF8
:10180000F8BD0000443802400838014000000240A2
:101810000004024000080240000C02400010024098
:101820000014024000180240001C0240003C01402D
:10183000024613690B400BB1012000E00020704705
:1018400042694A40426170470AB1816101E00B047C
:101850008361704701480068704700000400002061
:1018600070B50446002600250CB9012070BD94F81F
:101870003D0028B9002084F83C00204600F084F8A0
:10188000242084F83D002068006820F001002168D1
:10189000086000F0C9FA05463948B5FBF0F6206843
:1018A000466038496068884201D8701C07E04FF4F0
:1018B000967070434FF47A71B0FBF1F0401C2168D0
:1018C00008623049606888420ED860684000B5FB05
:1018D000F0F0C0F30B00042801D204202DE0606872
:1018E0004000B5FBF0F028E0A06828B9606800EB84
:1018F0004000B5FBF0F008E0606800EBC00101EBD0
:101900000010B5FBF0F040F48040C0F30B0008B9C4
:10191000012012E0A06828B9606800EB4000B5FB28
:10192000F0F008E0606800EBC00101EB0010B5FBCF
:10193000F0F040F4804040F400402168C861D4E9F0
:101940000701084321680860D4E9031008432168AF
:101950008860D4E9050108432168C86020680068F0
:1019600040F001002168086000202064202084F8F5
:101970003D000020206384F83E0000BF76E70000B1
:1019800040420F00A086010010B586B004464049D1
:10199000206888423AD100BF002000903D4800688E
:1019A00040F400103B4908600846006800F400104D
:1019B000009000BF00BFC020019001200290039062
:1019C0000320049001A93448FFF732FE01220621CA
:1019D0003148FFF739FF012207212F48FFF734FF75
:1019E0004FF4004021680860002021680860C02092
:1019F0000190122002900120039003200490042003
:101A0000059001A92448FFF713FE3FE02349206811
:101A100088423BD100BF002000901E48006840F47F
:101A200080001C4908600846006800F480000090AF
:101A300000BF00BF4FF4406001900120029003906E
:101A40000320049001A91448FFF7F2FD01220A21A6
:101A50001148FFF7F9FE01220B210F48FFF7F4FEB2
:101A60004FF40040216808600020216808604FF4AE
:101A70004060019012200290012003900320049006
:101A80000420059001A90448FFF7D2FD06B010BD5F
:101A9000005400404038024000040240005800401A
:101AA0000348006803490978084401490860704701
:101AB000040000200C00002010B50D48006840F420
:101AC00000700B4908600846006840F480600860B8
:101AD0000846006840F480700860032000F0CAF8EF
:101AE000002000F007F800F02BF8002010BD0000E7
:101AF000003C024070B504460E4800784FF47A71FD
:101B0000B1FBF0F00C490968B1FBF0F5284600F094
:101B100070FE08B1012070BD102C07D200222146B2
:101B2000501E00F068F80548046001E00120F2E76B
:101B30000020F0E70C00002000000020080000203A
:101B400008B500BF002000902348006840F48040A2
:101B5000214908600846006800F48040009000BFFA
:101B600000BF00BF00200090081F006840F08050B8
:101B7000091F08600846006800F08050009000BF10
:101B800000BF032000F076F8002211466FF00B0032
:101B900000F031F8002211466FF00A0000F02BF837
:101BA000002211466FF0090000F025F800221146CE
:101BB000501F00F020F800221146101F00F01BF803
:101BC00000221146901E00F016F800221146501E09
:101BD00000F011F808BD00004438024000BF00F0DA
:101BE0001F02012191404209920002F1E022C2F855
:101BF000001100BF70472DE9F05F80460D46164684
:101C0000002701F0A7FF074639462A46334601F070
:101C10000700C0F1070ABAF1040F02D94FF0040A15
:101C200001E0C0F1070AD14600F1040ABAF1070F3A
:101C300002D24FF0000A01E0A0F1030AD4464FF0AF
:101C4000010A0AFA09FAAAF1010A0AEA020A0AFAD8
:101C50000CFA4FF0010B0BFA0CFBABF1010B0BEA8A
:101C6000030B4AEA0B042146404601F07BFFBDE826
:101C7000F09F000000BF00F00702064B19684FF606
:101C8000FF031940044B0B4343EA0221014B196047
:101C900000BF70470CED00E00000FA0570B5044687
:101CA0000D460CB9012070BD5848006800F00F00C7
:101CB000A84209D255490D700846006800F00F008F
:101CC000A84201D00120EEE7207800F002000228AF
:101CD0001DD1207800F00400042805D14C4800688C
:101CE00040F4E0504A490860207800F008000828D5
:101CF00005D14748006840F46040454908604448C1
:101D0000006820F0F000A16808434149086020788D
:101D100000F00100A8B36068012807D13C480838EA
:101D20000068C0F34040B8B90120BCE760680228F1
:101D300002D06068032807D1354808380068C0F32E
:101D4000406048B90120AEE7314808380068C0F368
:101D5000400008B90120A6E72D48006820F00300E4
:101D6000616808432A490860FFF774FD064609E0E8
:101D7000FFF770FD801B41F28831884202D90320B1
:101D800091E707E02248006800F00C006168B0EBC2
:101D9000810FEDD11D48006800F00F00A84209D95D
:101DA0001A490D700846006800F00F00A84201D0E3
:101DB000012078E7207800F00400042807D11448B7
:101DC000006820F4E050E168084311490860207879
:101DD00000F00800082808D10D48006820F4604091
:101DE000216940EAC1000A49086000F03DF808494D
:101DF0000968C1F30311074A515CC84006490860ED
:101E00000020FFF777FE00204DE70000003C024075
:101E1000083802407862000800000020014800688D
:101E2000704700000000002000B5FFF7F7FF0449ED
:101E30000968C1F38221034A515CC84000BD00001B
:101E4000083802408862000800B5FFF7E7FF044940
:101E50000968C1F34231034A515CC84000BD00002B
:101E600008380240886200082DE9F0470024002568
:101E70000026A1462548006800F00C0020B1042887
:101E800005D008283AD105E0DFF8849039E0DFF882
:101E9000849036E01D48001F006800F03F041B4896
:101EA000001F006800F4800078B11A481749091F24
:101EB0000968C1F38811A0FB017001462246002386
:101EC0003846FEF77DF905460EE011480F49091F17
:101ED0000968C1F38811A0FB017001462246002366
:101EE0003846FEF76DF905460848001F0068C0F344
:101EF0000140401C4600B5FBF6F902E0DFF8109007
:101F000000BF00BF4846BDE8F08700000838024027
:101F10000024F40000127A00F8B504460CB9012040
:101F2000F8BD207800F00100002874D0F94800685E
:101F300000F00C0004280DD0F648006800F00C00FA
:101F4000082813D1F348001F006800F48000B0F5A2
:101F5000800F0BD1EF4808380068C0F340400028DC
:101F600059D06068002856D10120D9E700BF6068C9
:101F7000B0F5803F08D1E7480838006840F4803069
:101F8000E449083908601EE06068B0F5A02F0DD163
:101F9000E0480838006840F48020DE4908390860CD
:101FA0000846006840F4803008600CE0D9480838E2
:101FB000006820F48030D749083908600846006876
:101FC00020F48020086000BF606890B1FFF742FCF9
:101FD000054606E0FFF73EFC401B642801D90320BC
:101FE0009EE7CC4808380068C0F340400028F1D094
:101FF00011E0FFF72FFC054606E0FFF72BFC401B26
:10200000642801D903208BE7C24808380068C0F370
:1020100040400028F1D1207800F0020002285FD172
:10202000BC48006800F00C0058B1BA48006800F0E5
:102030000C0008281CD1B748001F006800F480007D
:10204000B0B9B44808380068C0F3400020B1E06877
:10205000012801D0012063E7AE480838006820F06D
:10206000F800216940EAC100AA490839086037E050
:10207000E06800B30120A8490860FFF7EBFB0546C4
:1020800006E0FFF7E7FB401B022801D9032047E7E2
:10209000A04808380068C0F340000028F1D09D48EF
:1020A0000838006820F0F800216940EAC100994929
:1020B0000839086014E0002097490860FFF7CAFB60
:1020C000054606E0FFF7C6FB401B022801D90320A6
:1020D00026E7904808380068C0F340000028F1D196
:1020E000207800F0080008282CD16069A8B10120F0
:1020F0008A490860FFF7AEFB054606E0FFF7AAFB3A
:10210000401B022801D903200AE782486C3000688E
:10211000C0F340000028F1D014E000207F4908609F
:10212000FFF798FB054606E0FFF794FB401B0228EB
:1021300001D90320F4E677486C300068C0F3400012
:102140000028F1D1207800F00400042870D1002686
:1021500070483830006800F0805090B900BF00200F
:1021600000906C483830006840F080506949383140
:1021700008600846006800F08050009000BF00BF73
:1021800001266748006800F48070B0B964480068B0
:1021900040F4807062490860FFF75CFB054606E08A
:1021A000FFF758FB401B022801D90320B8E65C4822
:1021B000006800F480700028F2D000BFA0680128F9
:1021C00008D154486830006840F001005149683136
:1021D00008601DE0A06805280DD14E4868300068F1
:1021E00040F004004B49683108600846006840F040
:1021F000010008600CE047486830006820F00100EA
:102200004449683108600846006820F0040008600E
:1022100000BFA068A8B1FFF71DFB054609E0FFF766
:1022200019FB401B41F28831884202D9032077E62E
:1022300026E0384868300068C0F340000028EED03F
:1022400013E0FFF707FB054608E0FFF703FB401B21
:1022500041F28831884201D9032061E62D48683077
:102260000068C0F340000028EFD1012E07D12948B3
:102270003830006820F0805026493831086000BFAF
:10228000A069B8B32348006800F00C0008285ED0AD
:10229000A069022846D100201F490866FFF7DAFA34
:1022A000054606E0FFF7D6FA401B022801D90320B5
:1022B00036E6184808380068C0F340600028F1D1BD
:1022C000D4E907010843616A40EA81110122A06A4A
:1022D000C2EB500041EA00412C20005D41EA006061
:1022E0000C49091F086001200B490866FFF7B2FA84
:1022F000054607E02DE0FFF7ADFA401B022801D9A3
:1023000003200DE6034808380068C0F34060002849
:10231000F1D01EE00838024000004742800E4742DC
:102320000070004000200C490866FFF793FA05464C
:1023300006E0FFF78FFA401B022801D90320EFE5E2
:1023400006480068C0F340600028F2D101E0012097
:10235000E6E50020E4E500000000474200380240C6
:102360007047014691F8510070470000F8B50446E7
:10237000206846682068856805F0400048B905F087
:10238000010030B106F0400018B12046216C8847AA
:10239000F8BD05F0020030B106F0800018B120460B
:1023A000616C8847F4E705F4B070002876D006F039
:1023B0002000002872D005F04000F0B194F85100E0
:1023C00003280ED0606D40F00400606500BF00205F
:1023D00000902068C068009020688068009000BF6E
:1023E0000BE000BF002000902068C06800902068CB
:1023F0008068009000BF00BFCAE705F0200088B1E8
:10240000606D40F00100606500BF00200090206812
:10241000806800902068006820F040002168086013
:1024200000BF00BF05F4807058B1606D40F0080037
:10243000606500BF0020009020688068009000BFA9
:1024400000BF606D20B32068406820F0E000216884
:102450004860012084F8510006F0020010B906F02F
:102460000100B8B12068406820F00300216848608E
:10247000E06C28B10A48E16C0865E06CFEF793FE59
:10248000A06C28B10648A16C0865A06CFEF78BFE15
:1024900003E003E02046FFF763FF79E700BF77E73B
:1024A000794E000810B504460CB9012010BD606AD1
:1024B00000B900BF0021A16294F8510028B90020A2
:1024C00084F85000204600F033F8022084F85100D0
:1024D0002068006820F0400021680860D4E901010C
:1024E0000843E16808432169084361690843218B77
:1024F00001F400710843E1690843216A0843A16AB5
:102500000843216808600421A06901EA1040616A5B
:102510000843216848602068C06920F40060216891
:10252000C86100206065012084F851000020BDE7EB
:1025300010B586B004465F49206888421ED100BFAE
:10254000002000905C48006840F480505A490860C0
:102550000846006800F48050009000BF00BFE020F3
:102560000190022002900020039003200490052097
:10257000059001A95148FFF75BF899E050492068A0
:10258000884248D100BF002000904B48001F0068DF
:1025900040F480404849091F08600846006800F47C
:1025A0008040009000BF00BF4FF420400190022007
:1025B000029001200390032004900520059001A9BA
:1025C0004048FFF735F8404840490860002048601F
:1025D00040213E4881600021C1604FF4806101616B
:1025E000002141618161C16101624162FEF710FF1A
:1025F00018B1D22136A003F04DF900BF3348A064D2
:10260000846300BF002207212420FFF7F4FA24206E
:10261000FFF7E4FA4CE032492068884248D100BF15
:10262000002000902448001F006840F40040224928
:10263000091F08600846006800F40040009000BFD1
:1026400000BF282001900220029001200390032067
:1026500004900620059001A91A48FEF7E9FF1A48E0
:102660004830204908600020486040211D488160B2
:102670000021C1604FF480610161002141618161ED
:10268000C16101624162FEF7C3FE20B14FF4807167
:102690000FA003F0FFF800BF1248A064846300BFDE
:1026A00000220D213320FFF7A6FA3320FFF796FA18
:1026B00006B010BD00300140443802400000024026
:1026C000003800400004024070600240B004002066
:1026D0002E2E2F5372632F7370692E63000000003B
:1026E000003C0040100500202DE9F04104460E4654
:1026F0001546002700BF94F85000012802D102209F
:10270000BDE8F081012084F8500000BF94F851002A
:10271000012801D0022748E006B10DB9012744E0A5
:10272000032084F85100002060652663A586E586B5
:10273000A06360642064A087E087A068B0F5004FC4
:1027400005D12068006840F48040216808601A487C
:10275000A16C08641948A16CC8631948A16CC864CD
:102760000020A16C0865E38ED4F800C00CF10C02C7
:10277000216BA06CFEF7C2FE2068006800F04000EC
:10278000402805D02068006840F0400021680860BB
:102790002068406840F02000216848602068406858
:1027A00040F002002168486000BF00BF002084F8AC
:1027B000500000BF3846A3E7B54E0008C34E0008DE
:1027C0008D4E000870477047042808D14FF0E02173
:1027D000096941F004014FF0E022116107E04FF078
:1027E000E021096921F004014FF0E02211617047F6
:1027F000704770B504462546681EB0F1807F01D34E
:1028000001200FE0681E4FF0E02148610F214FF0DA
:10281000FF3001F0A7F900204FF0E0218861072088
:102820000861002070BD10B5FFF7E2FF10BD7047D2
:102830007047024600BF92F83800012801D10220FB
:102840007047012082F8380000BF022082F839006A
:102850001068406820F07000136858601068406885
:102860000B681843136858601068806820F0800077
:1028700013689860106880684B6818431368986004
:10288000012082F8390000BF002082F8380000BF24
:1028900000BFD5E710B504460CB9012010BD94F86F
:1028A000390028B9002084F83800204600F00CF8E0
:1028B000022084F83900211D206802F051FC01201B
:1028C00084F839000020E9E708B50168B1F1804FCC
:1028D0000FD100BF002100911A49096841F00101A0
:1028E000184A11601146096801F00101009100BF0A
:1028F00027E0154A016891420FD100BF00210091E5
:102900001049096841F010010E4A1160114609682A
:1029100001F01001009100BF13E00C4A01689142E0
:102920000FD100BF002100910649096841F0200144
:10293000044A11601146096801F02001009100BFAE
:1029400000BF08BD403802400010004000140040A5
:1029500001460868C06840F001000A68D060086855
:10296000006840F001000A681060002070470146CE
:102970000868C06820F001000A68D06000BF0868DD
:10298000006A41F21112104050B90868006A9210B2
:10299000104028B90868006820F001000A6810603B
:1029A00000BF00207047704710B5044620680069DA
:1029B000C0F34000D8B12068C068C0F34000B0B197
:1029C0006FF002002168086101202076206880698C
:1029D00000F0030018B12046FFF7E5FF05E02046B0
:1029E00000F0ADF8204600F0ABF80020207620681B
:1029F0000069C0F38000D8B12068C068C0F38000CF
:102A0000B0B16FF0040021680861022020762068D0
:102A1000806900F4407018B12046FFF7C4FF05E05C
:102A2000204600F08CF8204600F08AF8002020763E
:102A300020680069C0F3C000D8B12068C068C0F346
:102A4000C000B0B16FF00800216808610420207652
:102A50002068C06900F0030018B12046FFF7A3FF0B
:102A600005E0204600F06BF8204600F069F80020F1
:102A7000207620680069C0F30010D8B12068C068D3
:102A8000C0F30010B0B16FF0100021680861082099
:102A900020762068C06900F4407018B12046FFF726
:102AA00082FF05E0204600F04AF8204600F048F892
:102AB000002020762068006900F0010058B12068ED
:102AC000C06800F0010030B16FF0010021680861BA
:102AD000204600F037F820680069C0F3C01058B1F4
:102AE0002068C068C0F3C01030B16FF0800021686A
:102AF00008612046FFF79BFE20680069C0F3801044
:102B000058B12068C068C0F3801030B16FF0400049
:102B100021680861204600F045F820680069C0F38C
:102B2000401058B12068C068C0F3401030B16FF059
:102B30002000216808612046FFF77AFE10BD70472B
:102B40007047000010B504462068B0F1804F02D1F4
:102B500001F0BAF91BE00E492068884202D101F069
:102B600015FD14E00B492068884210D10A4800780E
:102B7000401C0949087008460078192804D1002033
:102B8000087001200549087001200549087010BD32
:102B900000100040001400405B000020590000209D
:102BA00058000020704770B5044600252068406931
:102BB000C0F3C01594F8390021280ED16DB12068FA
:102BC000406920F0800021684861206B10B1206BC3
:102BD000FEF794FA204602F0D3FB20684069C0F368
:102BE000801594F83A0022280ED16DB12068406912
:102BF00020F0400021684861606B10B1606BFEF707
:102C00007DFA204602F09CFB002070BD704700005A
:102C10002DE9F0470446206805682068C6682068EA
:102C200047694FF00008C14605F00F08B8F1000FE2
:102C30000AD105F0200038B106F0200020B120466E
:102C400002F0A8FBBDE8F087B8F1000F6DD007F0E7
:102C5000010018B906F49070002866D005F0010054
:102C600030B106F4807018B1E06B40F00100E06311
:102C700005F0040030B107F0010018B1E06B40F03E
:102C80000200E06305F0020030B107F0010018B166
:102C9000E06B40F00400E06305F0080030B107F09D
:102CA000010018B1E06B40F00800E063E06B68B32E
:102CB00005F0200028B106F0200010B1204602F0F7
:102CC00069FB20684069C0F38019E06B00F00800E0
:102CD00010B9B9F1000F22D0204602F031FB206874
:102CE000406900F04000B0B12068406920F0400029
:102CF00021684861606B50B11748616B0865606B73
:102D0000FEF751FA10B1606B016D88470CE0204668
:102D1000FFF77CFF08E02046FFF778FF04E020463D
:102D2000FFF774FF0020E0638CE705F0800030B10E
:102D300006F0800018B1204602F02EFD82E705F073
:102D4000400030B106F0400018B1204602F008FB08
:102D500078E700BF76E700004552000810B504464A
:102D60000CB9012010BDA06900B100E000BF94F8CB
:102D7000390028B9002084F83800204600F028F8EF
:102D8000242084F839002068C06820F400502168AD
:102D9000C860204602F04CFB2068006920F4904097
:102DA000216808612068406920F02A002168486194
:102DB0002068C06840F400502168C8600020E063CB
:102DC000202084F8390084F83A000020CAE7000087
:102DD00010B586B004468749206888421FD100BFDD
:102DE000002000908448006840F01000824908608C
:102DF0000846006800F01000009000BF00BF4FF4CC
:102E0000C0600190022002900120039003200490F2
:102E10000720059001A97948FEF70AFCE7E0784908
:102E2000206888426DD100BF002000907248001FCA
:102E3000006840F400307049091F086008460068C7
:102E400000F40030009000BF00BF0C200190022071
:102E500002900120039004900720059001A9674883
:102E6000FEF7E6FB6748684908604FF0006048607D
:102E7000002165488160C1604FF4806101610021DB
:102E800041618161C1614FF4803101620021416281
:102E9000FEF7BEFA18B1B1215CA002F0FBFC00BF46
:102EA00059486063846300BF564818305B49086026
:102EB0004FF0006048604021584881600021C160A7
:102EC0004FF480610161002141618161C1614FF472
:102ED0008031016200214162FEF79AFA18B1C321E4
:102EE0004AA002F0D7FC00BF4C482063846300BFB7
:102EF000002201212620FEF77EFE2620FEF76EFE30
:102F000075E047492068884271D100BF00200090D9
:102F10003948001F006840F480203749091F0860C5
:102F20000846006800F48020009000BF00BF4FF406
:102F30004060019002200290012003900320049041
:102F40000720059001A93748FEF772FB2D4860382D
:102F5000354908604FF000604860002132488160C8
:102F6000C1604FF4806101610021416181614FF4D2
:102F70008071C1614902016200214162FEF748FA95
:102F800018B1F12121A002F085FC00BF2648606342
:102F9000846300BF1B483038244908604FF000604C
:102FA00048604021214881600021C1604FF4806168
:102FB0000161002141618161C1614FF40031016211
:102FC00000214162FEF724FA20B140F203110FA064
:102FD00002F060FC00BF15482063846300BF00223C
:102FE00002212720FEF707FE2720FEF7F7FD06B097
:102FF00010BD0000001001404438024000000240B3
:103000000044004088600240E40600202E2E2F532A
:1030100072632F75736172742E6300004407002081
:103020000048004000080240A407002004080020D7
:1030300077B581B00446154694F83A00202850D15F
:10304000029800B115B9012004B070BD00BF94F81A
:103050003800012801D10220F6E7012084F8380069
:1030600000BF0298A062A5850020E063222084F8BA
:103070003A001D48616BC8631C48616B08641C48BA
:10308000616BC8640020616B086502AE326823681A
:10309000191D2B46606BFEF731FA00BF002000902F
:1030A00020680068009020684068009000BF00BF62
:1030B00000BF002084F8380000BF2068C06840F4DA
:1030C00080702168C8602068406940F00100216874
:1030D00048612068406940F0400021684861002054
:1030E000B2E70220B0E70000A9520008EF52000842
:1030F0005952000810B5034693F83A00202829D108
:1031000001B10AB9012010BD00BF93F838000128B1
:1031100001D10220F7E7012083F8380000BF99624F
:103120009A85DA850020D863222083F83A0000BF10
:10313000002083F8380000BF1868406940F00100A3
:103140001C6860611868C06840F490701C68E0609A
:103150000020D8E70220D6E710B5044607480068EB
:1031600028B1E06B18B9064804490968884701226C
:1031700003492046FFF7BEFF10BD000054000020A9
:103180005000002070472DE9F84304460D461646CE
:103190001F464FF0000994F8390020285CD105B192
:1031A00016B90120BDE8F88300BF94F83800012863
:1031B00001D10220F6E7012084F8380000BF00208A
:1031C000E063212084F83900FEF744FB8146A684A1
:1031D000E6842BE0E08C401EE084A068B0F5805FC0
:1031E00016D14B46002280212046009702F008FBB2
:1031F00008B10320D6E7A846B8F80000C0F30800DD
:1032000021684860206908B9AD1C0FE06D1C0DE015
:103210004B46002280212046009702F0F1FA08B1C7
:103220000320BFE715F8010B21684860E08C0028F7
:10323000D0D14B46002240212046009702F0E0FA10
:1032400008B10320AEE7202084F8390000BF002039
:1032500084F8380000BFA5E70220A3E7F7B50446CD
:10326000154694F8390020283DD1019800B10DB9D8
:103270000120FEBD00BF94F83800012801D10220D2
:10328000F7E7012084F8380000BF01982062A58488
:10329000E5840020E063212084F839001348216B85
:1032A000C8631348216B08641248216BC86400206E
:1032B000216B086501AE23681A1D31682B46206B0F
:1032C000FEF71CF96FF040002168086000BF002085
:1032D00084F8380000BF2068406940F08000216811
:1032E00048610020C5E70220C3E70000FD52000846
:1032F00033530008595200087047704701460020B8
:1033000001F47F420AB140F008004FF2F0020A4097
:103310000AB140F004004CF6CC420A400AB140F039
:1033200002004AF6AA220A400AB140F001007047A2
:1033300070B505462846FFF7E1FF0446044850F8FB
:10334000240018B1024951F82400804770BD0000E4
:103350006002002003A25721094801F005FA00BFCE
:10336000FEE7000048617264776172652043505542
:1033700020697320696E204552524F52212121004D
:103380009D8500081FB53648364908604FF4403027
:103390004860002133488160012101618161002181
:1033A00001624162C162304981620021C160052130
:1033B000C1610121016300214161FDF73FFD18B1A9
:1033C0004C212AA002F066FA04200090012001900E
:1033D0000720029069462348FDF78CFB18B156215F
:1033E00022A002F057FA002000900220019007204E
:1033F000029069461B48FDF77DFB18B15E211BA0BA
:1034000002F048FA0120009003200190072002906A
:1034100069461448FDF76EFB18B1662113A002F04F
:1034200039FA082000900420019007200290694694
:103430000C48FDF75FFB18B16E210CA002F02AFAD0
:103440000920009005200190072002906946054858
:10345000FDF750FB18B1762104A002F01BFA1FBD46
:1034600000200140640800200100000F2E2E5C5354
:1034700072635C6164632E630000000008B500BFE6
:10348000002000902A48006840F480002849086025
:103490000846006800F48000009000BF00BF00BF35
:1034A000002000900846006840F4001008600846BC
:1034B000006800F40010009000BF00BF0022082147
:1034C0000F20FEF798FB0F20FEF788FB0022032158
:1034D0001020FEF790FB1020FEF780FB0022042155
:1034E0001120FEF788FB1120FEF778FB0022052152
:1034F0000C20FEF780FB0C20FEF770FB002206215B
:103500000E20FEF778FB0E20FEF768FB00220A2152
:103510003B20FEF770FB3B20FEF760FB00220B21F7
:103520002F20FEF768FB2F20FEF758FB08BD000098
:103530003038024000B587B000BF00200190A2489B
:10354000006840F08000A04908600846006800F06C
:103550008000019000BF00BF00BF0020019008461E
:10356000006840F0040008600846006800F00400AD
:10357000019000BF00BF00BF002001900846006816
:1035800040F0010008600846006800F0010001906A
:1035900000BF00BF00BF002001900846006840F057
:1035A000020008600846006800F00200019000BFB9
:1035B00000BF012291038548FEF746F90122D1039D
:1035C0008248FEF741F900224FF400418048FEF79F
:1035D0003BF9002204217D48FEF736F90022102134
:1035E0007A48FEF731F9012211027948FEF72CF9E9
:1035F0004FF4804002900120039000200490059039
:1036000002A97248FEF714F84FF40040029001201E
:10361000039000200490059002A96C48FEF708F87A
:103620004FF4004002900120039004900020059088
:1036300002A96748FDF7FCFF0220029000200390DA
:10364000049002A96348FDF7F3FF042002900020D4
:103650000390049002A95F48FDF7EAFF082002905A
:1036600000200390049002A95A48FDF7E1FF1020C2
:10367000029000200390049002A95648FDF7D8FF5D
:103680002020029000200390049002A95148FDF7E9
:10369000CFFF4020029000200390049002A94D48E3
:1036A000FDF7C6FF8020029000200390049002A93D
:1036B0004848FDF7BDFF4FF4807002900020039052
:1036C000049002A94348FDF7B3FF4FF40070029045
:1036D00000200390049002A93E48FDF7A9FF4FF493
:1036E0008060029000200390049002A93948FDF701
:1036F0009FFF4FF40060029000200390049002A905
:103700003448FDF795FF4FF480700290002003903D
:10371000049002A92D48FDF78BFF4FF40070029032
:1037200000200390049002A92848FDF781FF4FF480
:103730008060029000200390049002A92348FDF7C6
:1037400077FF4FF40060029000200390049002A9DC
:103750001E48FDF76DFF4FF40060029000200390BB
:10376000049002A91A48FDF763FF4FF480500290BD
:1037700000200390049002A91548FDF759FF04208A
:1037800002900120039004900020059002A90F48A8
:10379000FDF74EFF102002900120039004900020BE
:1037A000059002A90948FDF743FF4FF4807002908D
:1037B0000120039004900020059002A90448FDF721
:1037C00037FF07B000BD000030380240000402405F
:1037D000000002400008024010B50C480C49086087
:1037E0000C48486000210A488160C1604FF4804164
:1037F0000161002141618161C1610162FEF730F820
:1038000018B1432104A002F045F810BD0054004057
:10381000A0020020801A06002E2E2F5372632F69FB
:1038200032632E630000000010B50C480C4908609C
:103830000C48486000210A488160C1604FF4804113
:103840000161002141618161C1610162FEF708F8F7
:1038500018B1562104A002F01DF810BD0058004018
:10386000F4020020400D03002E2E2F5372632F69A7
:1038700032632E630000000010B5002209211C20D5
:10388000FEF7B9F91C20FEF7A9F9002211463620EF
:10389000FEF7B1F93620FEF7A1F900220821372002
:1038A000FEF7A9F93720FEF799F910BD10B51048B9
:1038B000104908604FF48270486000210D48816013
:1038C000C16002210161002141614FF400718161F9
:1038D0002021C16100210162416281620A21C1622D
:1038E000FEF7E0FD18B14C2103A001F0D3FF10BD9D
:1038F00000300140480300202E2E2F5372632F7397
:1039000070692E630000000010B50F480F49086071
:103910004FF48270486000210C488160C160022130
:10392000016101214161490281610021C16101629E
:10393000416281620721C162FEF7B4FD18B17A21AC
:1039400003A001F0A7FF10BD003C0040F8030020D9
:103950002E2E2F5372632F7370692E6300000000A8
:103960001CB54FF080400F4908604AF20F40486094
:1039700000210C488160C721C160FEF78BFF18B1A0
:103980003D2109A001F086FF0020009001906946CA
:103990000448FEF74EFF18B1442103A001F07AFF5E
:1039A0001CBD0000700500202E2E2F5372632F7453
:1039B000696D2E63000000001CB50F480F490860B8
:1039C00042F2CF00486000210C488160C721C160ED
:1039D000FEF760FF18B1542109A001F05BFF002041
:1039E0000090019069460548FEF723FF18B15B215E
:1039F00003A001F04FFF1CBD00100040AC050020EB
:103A00002E2E2F5372632F74696D2E6300000000F9
:103A10001CB50F480F49086042F2CF0048600021F2
:103A20000C488160C721C160FEF734FF18B16B21DB
:103A300009A001F02FFF0020009001906946054881
:103A4000FEF7F7FE18B1722103A001F023FF1CBDA1
:103A500000140040E80500202E2E2F5372632F74AF
:103A6000696D2E630000000010B50C480C49086019
:103A70004FF461204860002109488160C160016104
:103A80000C21416100218161C161FFF767F918B123
:103A90004A2104A001F0FEFE10BD0000001001400C
:103AA000240600202E2E2F5372632F7573617274BB
:103AB0002E63000010B50C480C4908604FF41650F6
:103AC0004860002109488160C16001610C214161A9
:103AD00000218161C161FFF741F918B15D2104A0A6
:103AE00001F0D8FE10BD0000004400406406002034
:103AF0002E2E2F5372632F75736172742E63000024
:103B000010B50C480C4908604FF4E13048600021C2
:103B100009488160C16001610C214161002181611E
:103B2000C161FFF71BF918B1702104A001F0B2FECA
:103B300010BD000000480040A40600202E2E2F5388
:103B400072632F75736172742E63000000BFFEE70D
:103B50007047000002480068C0F302207047000070
:103B60000CED00E010B5002807DA0A07140E054A2C
:103B700000F00F031B1FD45403E00A07130E024A80
:103B8000135410BD18ED00E000E400E070470000A1
:103B900010B52DED028B9FED120AB0EE408A114850
:103BA0000078012819D100200E49087000F05AF859
:103BB0000D480078401C0C490870084600780A2817
:103BC0000BD10020087000F00DF9B0EE408AB0EE85
:103BD000480A0321232000F0F9FEBDEC028B10BD42
:103BE00000000000580000205A00002010B50024FA
:103BF00000F0BEF834B1234606A2BB210F4800F006
:103C0000B3FD04E00EA2BF210C4800F0FDFD2046EC
:103C100010BD000042617474657279206D6F647527
:103C20006C6520696E697420697320696E20657205
:103C3000726F72282564292100000000B16200081B
:103C400042617474657279206D6F64756C6520696A
:103C50006E697420697320696E2073756363657380
:103C6000732E000030B585B000240025142168466D
:103C7000FCF7DEFA38480078401C374908700846DF
:103C80000078052818D10020087000BF0DE03348E7
:103C900030F8140004EB8401314A02EBC101314ACF
:103CA000127821F81200601CC4B2052CEFDB2D48FD
:103CB0000078401C2B4908702A480078142848D105
:103CC000002028490870002441E000204DF824001D
:103CD00000250DE004EB8400214901EBC00030F821
:103CE00015005DF8241008444DF82400681CC5B286
:103CF000142DEFDB5DF824001421B0FBF1F017491F
:103D000021F8140084B1084630F8140000EE100ABF
:103D1000B8EE400ADFED140A20EE200A134800EB4B
:103D2000840080ED000A10E00C4830F81400800098
:103D300000EE100AB8EEC00ADFED0B0A20EE200AF2
:103D40000A4800EB840080ED000A601CC4B2052C18
:103D5000BBDB05B030BD0000250000205C0000206A
:103D600066000020240000203333533A1000002066
:103D700010B5052208490948FDF71CF918B12221A0
:103D800007A001F087FD1648FEF7E2FD18B12721D4
:103D900003A001F07FFD10BD5C000020640800203E
:103DA0002E2E5C2E2E5C526F626F7450726F6A659D
:103DB00063745C526F626F745C526F63526F626FB8
:103DC000744472697665725C526F634261747465A3
:103DD00072795C526F63426174746572792E63000C
:103DE000E8050020014890ED000A7047100000200F
:103DF00070B504460D4600BF0C4800880028FBD172
:103E00004FF6FF70844202D10849088004E0012087
:103E1000C0EB4400054908804FF6FF7101EA4500F8
:103E200000F064F800F046F870BD000026000020A5
:103E300010B5002400F034F800F0C0F82CB106A250
:103E4000F7210D4800F090FC04E00CA2FB210A4889
:103E500000F0DAFC204610BD426565706572206D89
:103E60006F64756C6520696E697420697320696E72
:103E7000206572726F722100D86200084265657019
:103E80006572206D6F64756C6520696E6974206958
:103E90007320696E2073756363657373000000009F
:103EA00010B500224FF400410148FDF7CDFC10BDD4
:103EB0000000024010B50122D1030248FDF7C4FC06
:103EC00010BD00000000024010B50748008800281F
:103ED00007DD05480088401E0349088000F0CEF841
:103EE00001E0FFF7DDFF10BD2600002070B505469C
:103EF000002400F093F8044624B115A28F211C4839
:103F000000F032FC1B48C56000201A49096848626D
:103F10001848C06817490968C862164800680068F0
:103F200020F0800013490968086000F047F8044653
:103F300034B111A29B210E4800F016FC00BFFEE731
:103F400024B115A2A2210A4800F00EFC70BD0000A9
:103F50004265657065722074696D65722073746F57
:103F60007020697320696E206572726F7221000083
:103F7000C06200087005002042656570657220749B
:103F8000696D657220737461727420697320696E43
:103F9000206572726F7221004265657065722074CF
:103FA000696D65722073657474696E67206973202A
:103FB000696E206572726F722100000010B50024D6
:103FC0000548FEF7C5FC20B1641E5A2103A001F08C
:103FD00061FC204610BD0000700500202E2E5C2ED6
:103FE0002E5C526F626F7450726F6A6563745C52BC
:103FF0006F626F745C526F63526F626F7444726968
:104000007665725C526F634265657065725C526F73
:10401000634265657065722E6300000010B5002470
:104020000548FEF7A4FC20B1641E752103A001F031
:1040300031FC204610BD0000700500202E2E5C2EA5
:104040002E5C526F626F7450726F6A6563745C525B
:104050006F626F745C526F63526F626F7444726907
:104060007665725C526F634265657065725C526F13
:10407000634265657065722E6300000010B54FF4F1
:1040800000410248FDF7DCFB10BD000000000240CB
:1040900070B52DED048B82B0B0EE408A0646002448
:1040A0009FED670AB4EEC08AF1EE10FA12DB18EE4B
:1040B000100AFCF750FA41EC190B8DED009B61A240
:1040C0004FF4E571664800F04FFB601E02B0BDEC96
:1040D000048B70BDB5EEC08AF1EE10FA12D22D201D
:1040E0003055601CC4B2B1EE480ABDEEC00A10EEF5
:1040F000105AF1EE480A00EE105AB8EEC00A70EEFF
:10410000C08A09E0BDEEC80A10EE105A00EE105A3F
:10411000B8EEC00A78EE408A42F2107085420BDB9E
:1041200095FBF0F03030305542F2107095FBF0F115
:1041300000FB1155601CC4B2B5F57A7F0EDB4FF45D
:104140007A7095FBF0F0303030554FF47A7095FB73
:10415000F0F100FB1155601CC4B20CE0B5F57A7F9C
:1041600009DA44B1B5EEC08AF1EE10FA03DD302071
:104170003055601CC4B2642D0CDB642095FBF0F05C
:1041800030303055642095FBF0F100FB1155601C78
:10419000C4B20BE0642D09DA44B1B5EEC08AF1EE89
:1041A00010FA03DD30203055601CC4B20A2D0CDB40
:1041B0000A2095FBF0F0303030550A2095FBF0F1E5
:1041C00000FB1155601CC4B20BE00A2D09DA44B1A2
:1041D000B5EEC08AF1EE10FA03DD30203055601CD8
:1041E000C4B205F1300030559FED1E0AF4EEC08ACE
:1041F000F1EE10FA1EDB601CC4B22E203055601C9C
:10420000C4B29FED190A28EE800ABDEEC00A10EE76
:10421000105A0A2095FBF0F0303030550A2095FBFB
:10422000F0F100FB1155002D04DB601CC4B205F158
:1042300030003055601CC4B20020305500BF45E747
:104240000050C347496E70757420646174612069C1
:104250007320696E206572726F72282566290000CE
:10426000D68400080AD7233C0000C8420649498882
:1042700001800549898841800349C98881800249B4
:104280000989C180704700005C00002010B500243F
:1042900029A2E621374800F04BFB00F045FA04461E
:1042A00034B135A2EB21334800F05EFA00BFFEE7DF
:1042B00000F006F9044634B12FA2F3212D4800F096
:1042C00053FA00BFFEE700F0E7FB044634B12AA230
:1042D000FB21284800F048FA00BFFEE7FFF786FC04
:1042E00004463CB124A240F20311224800F03CFAFB
:1042F00000BFFEE7FFF79CFD04463CB11EA240F262
:104300000B111C4800F030FA00BFFEE700F0E8FC9B
:1043100004463CB118A240F21311164800F024FAEA
:1043200000BFFEE700F046F8214A4FF48D711148B6
:1043300000F06AFA10BD0000232323232323232344
:10434000232323232320526F626F742068617264D9
:10435000776172652076657273696F6E206973206C
:1043600056312120232323232323232323232323E1
:1043700023000000C6850008526F626F74206861D8
:1043800072647761726520697320696E206572724C
:104390006F722C207468652073797374656D207753
:1043A000696C6C206E6F742072756E2100000000C5
:1043B0002486000810B564210420FFF719FD10BD04
:1043C00010B5FFF7E5FB00F001F810BD30B585B082
:1043D000002400250020029003900490009001909A
:1043E00033480078012860D1002031490870FA2054
:1043F0008DF808006846FFF739FF00F05DFC0546C0
:10440000EDB101208DF8090000208DF80A00E8B216
:104410008DF80B0000BF10E01DF81400042101EB23
:10442000440102AA50543DF81400010A042000EB94
:104430004400401C1154601CC4B2042CECDB1DA2CF
:1044400003215F2000F0D8FA9DF80B0000EE900ADF
:10445000F8EE600AB0EE600A03215F2000F0B6FAC1
:104460000C2102A800F05CFC00241CE004EBC40159
:1044700001EB41011731C8B20FA2052100F0BCFACF
:104480003DF8141000EE901AF8EE600AB0EE600AE3
:1044900004EBC40101EB41011731C8B2052100F062
:1044A00095FA601CC4B2042CE0DB05B030BD0000FE
:1044B00059000020202020002020202000000000A3
:1044C00070B50024002500BF05E00F200E4921F83B
:1044D0001400601CC4B2122CF7DB0C48FEF738FA4B
:1044E00018B183210AA001F0D5F92DB116A28821B7
:1044F0001D4800F039F904E01CA28C211A4800F094
:1045000083F9284670BD00002E010020AC05002074
:104510002E2E5C2E2E5C526F626F7450726F6A6525
:1045200063745C526F626F745C526F63526F626F40
:10453000744472697665725C526F634B65795C5244
:104540006F634B65792E63004B6579206D6F6475E1
:104550006C6520696E697420697320696E206572CC
:10456000726F722100000000008500084B65792001
:104570006D6F64756C6520696E697420697320695C
:104580006E207375636365737300000010B50124BA
:104590000BE0604830F814004FF6FF7101EA40006C
:1045A0005C4921F81400601CC4B2122CF1DB02211A
:1045B0005948FDF73DF9574949880843554948800E
:1045C00004215548FDF734F9524989880843514977
:1045D000888008215048FDF72BF94E49C9880843C7
:1045E0004C49C88010214C48FDF722F949490989F6
:1045F00008434849088120214748FDF719F94549F2
:10460000498908434349488140214348FDF710F94F
:104610004049898908433F49888180213E48FDF708
:1046200007F93C49C98908433A49C8814FF4807168
:104630003948FDF7FDF83749098A084335490882AA
:104640004FF400713448FDF7F3F83249498A0843C2
:10465000304948824FF480612F48FDF7E9F82D4931
:10466000898A08432B4988824FF400612A48FDF764
:10467000DFF82849C98A08432649C8824FF4807167
:104680002648FDF7D5F82349098B084321490883BB
:104690004FF400712148FDF7CBF81E49498B0843C0
:1046A0001C4948834FF480611C48FDF7C1F8194943
:1046B000898B0843174988834FF400611748FDF739
:1046C000B7F81449C98B08431249C8834FF40061F5
:1046D0001348FDF7ADF80F49098C08430D490884CC
:1046E0004FF480510E48FDF7A3F80A49498C08435E
:1046F00008494884012409E0064810F8140000F035
:104700000F0008B907480460601CC4B2122CF3DB28
:1047100010BD00002E0100200008024000040240ED
:10472000000002402C00002010B5002403A29F21AD
:104730000C4800F069F8204610BD0000526F626F0F
:1047400074206C6564206D6F64756C65206861729F
:10475000647761726520696E69742073756363653F
:1047600073732E000B8500080FB4F0B5A1B0054699
:104770000E460027002400202090782102A8FBF795
:1047800057FD29A82090782102A8209B289A01F0A3
:10479000B5F8FDF75FF8074602A833462A463946C2
:1047A000009007A001F09AF80446002C03DA214695
:1047B0000EA001F093F8204621B0F0BC5DF814FB88
:1047C0005B25303130645D201B5B303B33316D5BEA
:1047D0004552524F525D25735B25645D3A20257327
:1047E000201B5B306D200D0A000000005072696EC6
:1047F00074206973206572726F72282564292121E3
:1048000021200D0A000000000FB4F0B5A1B005464C
:104810000E460027002400202090782102A8FBF7F4
:1048200007FD29A82090782102A8209B289A01F052
:1048300065F8FDF70FF8074602A833462A463946C1
:10484000009007A001F04AF80446002C03DA214644
:1048500009A001F043F8204621B0F0BC5DF814FB3C
:104860005B25303130645D2025735B25645D3A2023
:104870002573200D0A0000005072696E7420697360
:10488000206572726F7228256429212121200D0A6A
:10489000000000000FB4F0B5A1B005460E4600249C
:1048A0000027782102A8FBF7C3FC29A820907821D3
:1048B00002A8209B289A01F021F8FCF7CBFF0746BD
:1048C00002A833462A463946009007A001F006F8B0
:1048D0000446002C03DA21460EA000F0FFFF20461C
:1048E00021B0F0BC5DF814FB5B25303130645D20F5
:1048F0001B5B303B33336D5B4E4F544946595D254E
:10490000735B25645D3A202573201B5B306D200DA1
:104910000A0000005072696E74206973206572721B
:104920006F7228256429212121200D0A0000000032
:104930000FB4F0B5A1B005460E46002700240020B4
:104940002090782102A8FBF773FC29A820907821F9
:1049500002A8209B289A00F0D1FFFCF77BFF0746B6
:1049600002A833462A463946009007A000F0B6FF59
:104970000446002C03DA21460DA000F0AFFF2046CC
:1049800021B0F0BC5DF814FB5B25303130645D2054
:104990001B5B303B33326D5B5741524E5D25735B81
:1049A00025645D3A202573201B5B306D200D0A00C5
:1049B0005072696E74206973206572726F72282557
:1049C0006429212121200D0A0000000030B52DEDC1
:1049D000028B83B004460D46B0EE408A01A8B0EECB
:1049E000480AFFF755FB01AA2946204600F004F8C3
:1049F00003B0BDEC028B30BD2DE9F047044688467C
:104A000015464FF000090026002720E0E85D203819
:104A100000F0FF097E2C04DD002408F1010000F005
:104A2000FF084146204600F0E7F8002609E009EBC0
:104A30004901094A02EB4101885D00F02FF9701C21
:104A4000C6B2062EF3DBA01DC4B2781CC7B2E85D67
:104A50000028DBD1BDE8F087BE7C000870B50646B3
:104A6000002415E004F1B001C8B200F009F90120FA
:104A700000F006F9102000F003F9002504E03046AC
:104A800000F00CF9681CC5B2802DF8DB601CC4B2C4
:104A9000082CE7DB70BD000010B5002400F040F8E2
:104AA0000EA201211E20FFF7A7FF10A203210A205A
:104AB000FFF7A2FF0FA203214620FFF79DFF0FA2E1
:104AC00005210020FFF798FF2CB10EA240F2D9116A
:104AD0001248FFF749FE204610BD0000496E697478
:104AE0002053756363657373000000004261743A7C
:104AF000000000004B65793A000000004144433A51
:104B0000000000004F4C454420696E6974206973B1
:104B100020696E206572726F722100002D85000879
:104B200010B5002204213348FCF78EFE3220FCF73A
:104B300035FD012204212F48FCF786FEAE2000F04F
:104B40009FF8002000F09CF8102000F099F8402019
:104B500000F096F8812000F093F8CF2000F090F854
:104B6000A12000F08DF8C82000F08AF8A62000F0FF
:104B700087F8A82000F084F83F2000F081F8D320C7
:104B800000F07EF8002000F07BF8D52000F078F8E7
:104B9000802000F075F8D92000F072F8F12000F0C4
:104BA0006FF8DA2000F06CF8122000F069F8DB20D2
:104BB00000F066F8402000F063F8202000F060F874
:104BC000022000F05DF88D2000F05AF8142000F06B
:104BD00057F8A42000F054F8A62000F051F8AF20B8
:104BE00000F04EF80020FFF739FF0021084600F0E2
:104BF00003F810BD0004024070B504460D4605F1EF
:104C0000B001C8B200F03CF8102141EA141000F0E5
:104C100037F804F00F0000F033F870BD70B50546AA
:104C20000E4600BF0948FDF79CFB0128FAD1324629
:104C300029460648FDF758FD04462CB1234604A238
:104C400027210B48FFF790FD70BD0000F8030020FE
:104C500053504920777269746520646174612069DA
:104C60007320696E206572726F72282564290000B6
:104C70001685000801B501216846FFF7CFFF08BD82
:104C800010B50446002210210348FCF7DDFD204644
:104C9000FFF7F0FF10BD00000004024010B504460D
:104CA000012210210348FCF7CFFD2046FFF7E2FF69
:104CB00010BD00000004024010B5054805A25321B4
:104CC00003680648FFF7E6FD0148006810BD0000D4
:104CD0002C0000204B65793A20257800EE840008EE
:104CE00010B5002400F08EF804462CB103A240F267
:104CF000E5110A48FFF738FD204610BD52656D6F7B
:104D0000746520757361727420696E6974206973AB
:104D100020696E206572726F72210000798500082B
:104D200070B504460D4600262A4621460A48FEF77D
:104D300095FA064656B109A24FF49B711248FFF747
:104D400013FD4FF49C71114800F0A4FD00BF024810
:104D5000C08C0028FBD170BD6406002052656D6FC9
:104D60007465207573617274207472616E736D69FD
:104D70007373696F6E20697320696E206572726F3C
:104D8000722825642921000039850008D88500088B
:104D9000F8B504460025002614492068884224D12D
:104DA000134800680068C0F30015F5B101201149EF
:104DB000087000BF002000900D4800680068009057
:104DC0000B4800684068009000BF00BF0848FDF72E
:104DD000EAFE094800684668C6F10C0007490870F9
:104DE0000C2207490248FEF723F9F8BD00440040B1
:104DF0006406002034000020E40600203500002076
:104E00005201002010B500240C2206490648FEF786
:104E100025FA20B1641EE921044800F03BFD20463C
:104E200010BD00003600002064060020D885000870
:104E300010B50248FDF79AFA10BD000048030020A3
:104E400010B50248FDF792FA10BD0000A003002043
:104E5000F8B504460D4616462B4600228021204612
:104E6000009600F067F828B1606D40F020006065A2
:104E70000320F8BD0020FCE770B50546AC6B0020B0
:104E8000E087E0862046FDF76BFA70BD70B50546F9
:104E9000AC6B2068406820F0030021684860606DBA
:104EA00040F010006065012084F851002046FDF7B5
:104EB00057FA70BD70B50446A56B2846FDF783FC14
:104EC00070BDF8B50546AC6B0026FCF7C3FC064682
:104ED0002868006800F4807038BB2068406820F0C3
:104EE000020021684860324664212046FFF7B0FF87
:104EF00018B1606D40F020006065A06850B900BF37
:104F0000002000902068C0680090206880680090B1
:104F100000BF00BF0020E086012084F85100606DD2
:104F200018B12046FDF71CFAF8BD2046FDF74AFCF3
:104F300000BFF9E72DE9F04104460E4617461D462D
:104F4000DDF818803FE0681CE0B32DB1FCF782FC6F
:104F5000A0EB0800A84236D32068406820F0E000AB
:104F6000216848606068B0F5827F0DD1A068B0F517
:104F7000004F03D0A068B0F5806F05D120680068AD
:104F800020F0400021680860A06AB0F5005F0ED1F3
:104F900000BF206800684DF6FF7108402168086076
:104FA0002068006840F400502168086000BF0120BC
:104FB00084F8510000BF002084F8500000BF032097
:104FC000BDE8F081FFE7206880683040B04201D141
:104FD000012000E00020B842B5D10020F0E7704782
:104FE00010B5FCF75DFDFDF71EFC10BD10B592B0CD
:104FF00000BF002000902F48006840F080502D49ED
:1050000008600846006800F08050009000BF00BFB4
:1050100000BF002000902848006840F480402649E6
:1050200008600846006800F48040009000BF00BFA0
:10503000012006900004079002200C9041050D917C
:1050400008210E914FF4A8710F91022110910421B3
:10505000119106A8FCF760FF18B1A52117A000F078
:1050600019FC0F20019002200290002003904FF4C1
:10507000A05004904FF480500590052101A8FCF742
:105080000DFE18B1B3210DA000F004FCFCF7C6FE24
:105090004FF47A71B0FBF1F42046FDF7AAFB04202F
:1050A000FDF792FB00221146501EFCF7A4FD12B042
:1050B00010BD000040380240007000402E2E2F53DB
:1050C00072632F6D61696E2E6300000014480068E2
:1050D00040F47000124908601248006840F0010076
:1050E0001049086000200F49083108600D48006829
:1050F0000D4908400B4908600C48091D0860081F4D
:10510000006820F48020091F0860002005490C3148
:1051100008604FF000600249803908607047000065
:1051200088ED00E000380240FFFFF6FE103000245A
:1051300010B50248FDF738FC10BD000070050020D6
:1051400010B50248FDF730FC10BD0000AC05002092
:1051500010B50248FDF728FC10BD0000E80500204E
:10516000002202682C4B98420ED0B0F1804F0BD039
:105170002A4B984208D02A4B984205D0294B984296
:1051800002D0294B984201D1012300E000231BB13A
:1051900022F070024B681A431F4B984220D0B0F1A6
:1051A000804F1DD01D4B98421AD01D4B984217D0EE
:1051B0001C4B984214D01C4B984211D01B4B984268
:1051C0000ED01B4B98420BD01A4B984208D01A4B6A
:1051D000984205D0194B984202D0194B984201D100
:1051E000012300E000231BB122F44072CB681A4374
:1051F00002608B68C3620B688362074B984202D0DF
:10520000094B984201D1012300E000230BB10B6947
:105210000363012343617047000001400004004024
:1052200000080040000C0040000401400040014024
:10523000004401400048014000180040001C0040AC
:105240000020004070B50546AC6B0020E085E0848E
:105250002046FDF7DBFC70BD70B506460025B46B3B
:1052600020684069C0F3C01594F83900212805D1A1
:1052700025B10020E084204600F082F820684069D3
:10528000C0F3801594F83A00222805D125B10020FA
:10529000E085204600F054F8E06B40F01000E06339
:1052A0002046FDF7B3FC70BD70B50546AC6B2868B1
:1052B000006800F48070B0B90020E0852068C06804
:1052C00020F480702168C8602068406920F00100E7
:1052D000216848612068406920F0400021684861E9
:1052E000202084F83A002046FDF736FF70BD70B5E7
:1052F0000446A56B2846FDF745FF70BD70B5054611
:10530000AC6B2868006800F4807070B90020E084FD
:105310002068406920F08000216848612068C068EA
:1053200040F040002168C86002E02046FDF7E4FF3D
:1053300070BD70B50446A56B2846FDF7DEFF70BD55
:105340000168C96821F490710268D16001684969F7
:1053500021F0010102685161202180F83A10704764
:1053600010B504462068C06820F040002168C8607D
:10537000202084F839002046FDF7BEFF002010BD34
:105380000168C96821F0C0010268D160202180F85D
:105390003910704770B5044694F83A00222844D179
:1053A000A068B0F5805F13D1A56A206940B9206874
:1053B0004068C0F308002880A06A801CA06219E041
:1053C00020684068C0B22880A06A401CA06211E03A
:1053D000206938B920684068C1B2A26A501CA06236
:1053E000117007E02068406800F07F01A26A501C3D
:1053F000A0621170E08D401E80B2E08598B92068EF
:10540000C06820F490702168C8602068406920F06E
:10541000010021684861202084F83A002046FDF709
:105420009BFE002070BD0020FCE70220FAE7000090
:105430002DE9F041044600252068056925F4405512
:10544000E0680543206805612068C56849F20C6082
:1054500085432169A068084361690843E1690843FD
:1054600005432068C5602068456925F44075A0693A
:10547000054320684561E069B0F5004F7ED1C4491D
:105480002068884203D0C349206888425DD1FCF778
:10549000DBFC00EBC00101EB001061684900B0FBD0
:1054A000F1F06421B0FBF1F00601FCF7CDFC00EB5C
:1054B000C00101EB001061684900B0FBF1F7FCF797
:1054C000C3FC00EBC00101EB001061684900B0FBB8
:1054D000F1F06421B0FBF1F000EBC00101EB001032
:1054E000A7EB8000322101EBC0006421B0FBF1F09A
:1054F00000F0F80006EB4006FCF7A6FC00EBC0014C
:1055000001EB001061684900B0FBF1F7FCF79CFC6F
:1055100000EBC00101EB001061684900B0FBF1F045
:105520006421B0FBF1F000EBC00101EB0010A7EB30
:105530008000322101EBC0006421B0FBF1F000F0EB
:10554000070030442168886020E1FCF76DFC00EB27
:10555000C00101EB001061684900B0FBF1F064216B
:10556000B0FBF1F00601FCF75FFC00EBC00101EBC2
:10557000001061684900B0FBF1F700E045E0FCF77E
:1055800053FC00EBC00101EB001061684900B0FB67
:10559000F1F06421B0FBF1F000EBC00101EB001071
:1055A000A7EB8000322101EBC0006421B0FBF1F0D9
:1055B00000F0F80006EB4006FCF736FC00EBC001FB
:1055C00001EB001061684900B0FBF1F7FCF72CFC1F
:1055D00000EBC00101EB001061684900B0FBF1F085
:1055E0006421B0FBF1F000EBC00101EB0010A7EB70
:1055F0008000322101EBC0006421B0FBF1F000F02B
:105600000700304421688860C0E061492068884212
:1056100003D06049206888425CD1FCF715FC00EBA0
:10562000C00101EB001061688900B0FBF1F6FCF7E6
:105630000BFC00EBC00101EB001061688900B0FBBE
:10564000F1F06421B0FBF1F000EBC00101EB0010C0
:10565000A6EB8000322101EB00106421B0FBF1F0D9
:1056600000F0F006FCF7F0FB00EBC00101EB0010CE
:1056700061688900B0FBF1F06421B0FBF1F006EB4A
:105680000016FCF7E1FB00EBC00101EB00106168C4
:105690008900B0FBF1F7FCF7D7FB00EBC00101EB91
:1056A000001061688900B0FBF1F06421B0FBF1F0FB
:1056B00000EBC00101EB0010A7EB8000322101EBF1
:1056C00000106421B0FBF1F000F00F0030442168BD
:1056D00088605BE0FCF7A8FB00EBC00101EB001069
:1056E00061688900B0FBF1F6FCF79EFB00EBC0019E
:1056F00001EB001061688900B0FBF1F06421B0FBA0
:10570000F1F000EBC00101EB0010A6EB80003221AC
:1057100001EB00106421B0FBF1F000F0F006FCF7A3
:1057200083FB00EBC00101EB001061688900B0FB56
:10573000F1F06421B0FBF1F006EB0016FCF774FB0E
:1057400000EBC00101EB001061688900B0FBF1F7CC
:10575000FCF76AFB00EBC00101EB001061688900F7
:10576000B0FBF1F06421B0FBF1F000EBC00101EB04
:105770000010A7EB8000322101EB00106421B0FB88
:10578000F1F000F00F00304421688860BDE8F0813E
:105790000010014000140140014691F83900212811
:1057A0002CD18868B0F5805F0FD10A6A1088C0F3E9
:1057B00008000B685860086918B9086A801C0862FC
:1057C00009E0086A401C086205E00B6A581C086280
:1057D00018780B685860C88C401E80B2C88458B9CD
:1057E0000868C06820F080000B68D8600868C0684E
:1057F00040F040000B68D860002070470220FCE7B2
:105800002DE9F04104460D4617469846069E21E0D4
:10581000701CF8B12EB1FCF71DF8A0EB0800B042E7
:1058200018D92068C06820F4D0702168C86020684A
:10583000406920F0010021684861202084F8390087
:1058400084F83A0000BF002084F8380000BF03202D
:10585000BDE8F081206800682840A84201D10120FD
:1058600000E00020B842D3D00020F1E710B5034893
:10587000FFF78EFA0148FDF7CBF910BD6406002052
:1058800010B50248FDF7C4F910BD0000A4060020C1
:1058900000BFFEE708B504460D4606E0234603A216
:1058A000E3210D480095FEF75FFFF7E7486172645A
:1058B0007761726520697320696E206572726F72FC
:1058C0002846696C653A2025732C204C696E653A30
:1058D00020256429210000008E8500080FB4054BA7
:1058E00010B503A9044A029800F0F0F810BC5DF866
:1058F00014FB000011620008300000207CB5044653
:1059000000201D46164600290BD0491ECDE9004156
:10591000044B6A462946304600F0D8F8009A002128
:1059200011707CBDFB61000802E008C8121F08C1AD
:10593000002AFAD170477047002001E001C1121F10
:10594000002AFBD1704700002DE9FF5F82B00021E3
:10595000DDE90430020DDDF840B0034318D044F611
:105960001050A2F2FF3242431514119801281FD0A3
:10597000A5EB0B00401C5FEA000A4FF000064E4FFB
:10598000DFF83891B046504615D5CAF1000413E04F
:10599000119801244AA3012801D16FEA0B01029852
:1059A000119AC0E90031C0E9024206B0BDE8F09F9B
:1059B000CBF10000DFE704460021404A491842EBE2
:1059C0000450CDE9001012E0E00707D032463B4614
:1059D00040464946FAF7DEFC8046894632463B4659
:1059E00010461946FAF7D6FC06460F466410002CFE
:1059F000EAD1DDE90401DDE90023BAF1000F06DA9E
:105A0000FAF7C8FC42464B46FAF7C4FC05E0FAF741
:105A100033FD42464B46FAF72FFD04460E46002260
:105A2000284BFAF7ABFD03D84FF0FF30014607E0F3
:105A30000022254B20463146FAF705FCFAF75AFEBC
:105A4000102409E0002C0ADB0A220023FAF7B8FB35
:105A5000039B30321A55641E50EA0102F2D1641CD5
:105A6000039AC4F111031444119A012A03D00122AC
:105A700008430DD10AE0084304D000204FF0110B79
:105A8000119072E7A3EB0B056D1E0DE05B4504DD85
:105A90004FF0000205F1010504E003DA4FF00002C7
:105AA000A5F10105002AECD002981199C0E9023154
:105AB000C0E9004579E70000000014400000F03F15
:105AC000300000000000F0430000E03F2DE9FF4FF0
:105AD00095B09B468946064600250FE2252877D1DA
