:020000040800F2
:10000000283E01209D01000891570008F14B00088F
:100010008D570008290D000885DD0008000000004C
:100020000000000000000000000000003BD00008BD
:10003000A70E000800000000DD5700083DD00008B2
:10004000B7010008B7010008B7010008B7010008B0
:10005000B7010008B7010008B7010008B7010008A0
:10006000B7010008B7010008B7010008B701000890
:100070002D0D0008B70100083D0D00084D0D0008CA
:100080005D0D00086D0D0008BD0B0008B7010008EC
:10009000B7010008B7010008B7010008B701000860
:1000A000B7010008B7010008B7010008B701000850
:1000B0008DD10008B7010008B7010008B70100089A
:1000C000B7010008B7010008B70100088DCE00088D
:1000D0009DCE0008B7010008C9D80008DDD8000887
:1000E000B7010008B7010008B7010008B701000810
:1000F000B7010008B7010008B7010008B701000800
:10010000B7010008B7010008B7010008B7010008EF
:10011000B7010008B70100089DD10008ADD1000863
:100120007D0D0008B7010008B70100088D0D00081B
:10013000B70100080000000000000000B70100083F
:10014000B7010008B7010008B7010008CD57000843
:10015000B7010008B7010008B7010008B70100089F
:10016000B7010008B7010008B7010008B70100088F
:10017000B7010008B70100080000000000000000FF
:10018000B7010008B7010008DFF80CD000F03CFC14
:10019000004800479B080108283E01200648804788
:1001A00006480047FEE7FEE7FEE7FEE7FEE7FEE75C
:1001B000FEE7FEE7FEE7FEE729D100088901000817
:1001C0009FED1A1AF5EE000A40EE010ABDEEE00AB4
:1001D000F5EEC00A10EE100AF1EE10FA38BF401E1C
:1001E00000EE100A1349F7EE001AB8EEC00A30EE1E
:1001F000C00ADFED0F0A20EE200AFCEEC00A10EE66
:10020000900AC0F3080000EE900A01EB8000F8EEBF
:10021000600A90ED011A70EE600A90ED000A71EE2E
:10022000E01A21EE800A00EE810A704783F9223E2F
:1002300000000044245B0108DFED1D0AB5EEC00A92
:1002400060EE200ABDEEE01A11EE100AF1EE10FA8F
:1002500038BF401E00EE100AB8EEC00A30EEC00AE9
:10026000DFED140A20EE200AB4EEE00AF1EE10FAF7
:10027000A8BF30EE600AFCEEC00A0F49F7EE001A84
:1002800010EE900AC0F3080000EE900A01EB800027
:10029000F8EE600A90ED011A70EE600A90ED000A27
:1002A00071EEE01A21EE800A00EE810A704700002C
:1002B00083F9223E00000044245B01082DE9F05F31
:1002C0000546002092469B468846064681464024C5
:1002D0001BE0284641464746224600F0C6FA5346F0
:1002E0005A46C01A914110D311461846224600F0D2
:1002F000ADFA2D1A67EB01084F4622460120002176
:1003000000F0A4FA17EB00094E41201EA4F10104ED
:10031000DFDC484631462A464346BDE8F09F2DE9DA
:10032000F0410024061B254671F1000605DA012480
:100330000027D0EB070067EB0101161E73F10006E2
:1003400005DA0027D2EB0702012567EB0303FFF76D
:10035000B5FF86460E4617469C46AC4204D00025A3
:10036000D0EB050E65EB010624B10020D2EB0007AF
:1003700060EB030C704631463A466346BDE8F081B7
:1003800040EA01039B0703D009E008C9121F08C017
:10039000042AFAD203E011F8013B00F8013B521E97
:1003A000F9D27047D2B201E000F8012B491EFBD20E
:1003B00070470022F6E710B513460A460446194670
:1003C000FFF7F0FF204610BD30B50446002003467D
:1003D00000E05B1C934203D2E05CCD5C401BF8D094
:1003E00030BD2DE9FE4F804681EA0300C00F0C4668
:1003F000009021F0004123F00045B8EB0200A94134
:1004000005D24046214690461C460B46024623F044
:100410000040104347D0270DC7F30A00C3F30A5129
:100420000290401A019040286BDAC3F3130040F4A5
:10043000801B0098924620B10023D2EB030A63EBA5
:100440000B0B01985946C0F14002504600F0FEF9EE
:1004500006460D4650465946019A00F016FA10EB32
:1004600008006141002487EA115284EAE7731A43C5
:1004700040D0009A62B3019A012A4FEA075215DC74
:10048000001B61EB02014FF0004202EA0752CDE986
:100490000042001C41F5801132462B4600F04DFA17
:1004A00003B0BDE8F08F40462146F9E7001B61EB41
:1004B0000201001C41F5801300185B412018A2F5D1
:1004C000001747EB030140EAD570B6196D4111E002
:1004D0006D084FEA360645EAC0754FEA0752001B21
:1004E00061EB0201001C41F5801149084FEA300020
:1004F0000019514132462B4603B0BDE8F04F00F0E1
:100500000DBA0098012240000023D0EB020263EBF9
:10051000E073009821464FEAE074B8EB000061EB0D
:100520000401E9E783F000435BE781F0004158E70D
:100530002DE9FE4F81EA030404F0004421F000415C
:1005400000944FF0000B23F0004350EA01045ED00A
:1005500052EA03045BD0C3F30A54C1F30A552C4496
:10056000A4F2F3340194A0FB0254C1F3130141F44B
:100570008011C3F3130343F4801301FB024400FB17
:10058000034E840A970A44EA815447EA8357A4FB3E
:10059000076802958D0A05FB07854FEA932C04FB3B
:1005A0000C542705029D4FEA065847EA1637B5EB6B
:1005B00008056EEB070C870E920E47EA811742EA98
:1005C0008312A7FB0201B6EB0B0164EB00042B0DB9
:1005D00043EA0C335E1844EB1C50DA465146E7FB05
:1005E0000201C5F313044FEA0B3343EA14534FEAF5
:1005F0000432019C43EA0603A4F10C040294009C1B
:10060000CDE900B400F099F903B0BDE8F08F002007
:100610000146F9E72DE9F04D81EA030404F0004BAF
:1006200021F0004514464FF0000A23F0004150EA43
:10063000050220D054EA01021DD0C5F30A57024634
:10064000C5F31303C1F31300C1F30A5640F4801538
:1006500043F48013A7EB0608101BD64608F2FD38BA
:1006600073EB050002D308F1010801E092185B4129
:10067000B8F1000F03DA00200146BDE8F08D00203C
:100680004FF48011064684460EE0171B73EB0507F6
:1006900005D3121B63EB050306434CEA010C490822
:1006A0004FEA300092185B4150EA0107EDD152EA5F
:1006B000030012D082EA040083EA0501084305D052
:1006C000101BAB4106D20122002306E000224FF0AE
:1006D000004302E06FF0010253101AEB06004CEBEE
:1006E000085110EB0A0041EB0B01BDE8F04D00F0A2
:1006F00015B90EB5C10F80EAE0700844CA070021A1
:1007000040F233438DE80E000A460B4600F015F91F
:1007100003B000BD0EB540F2334102910021CDE996
:1007200000110A460B4600F008F903B000BDC1F302
:100730000A5210B5C1F3130140F2FF3341F48011A6
:100740009A4201DA002010BD40F233439A42A2F2ED
:10075000334203DC524200F088F810BD904010BDD7
:1007600000F0004230F000400AD0C10D01F5607188
:10077000C0F3160042EA0151C20840071143704716
:10078000002001467047000030B5041E71F10004DE
:1007900004DB4FF00044404264EB0101141E73F18E
:1007A000000405DB1C464FF00043524263EB040398
:1007B0008B4208BF824230BD30B5041E71F1000487
:1007C00004DB4FF00044404264EB0101141E73F15E
:1007D000000405DB1C464FF00043524263EB040368
:1007E000994208BF904230BD01F0004330B421F07F
:1007F000004150EA010206D00A0DA2F56072C1F371
:100800001301002A02DC30BC00207047440F44EA88
:10081000C104C100E01830BC00EBC25000F047B882
:1008200030B50B46014600202022012409E021FAC0
:1008300002F59D4205D303FA02F5491B04FA02F5BD
:100840002844151EA2F10102F1DC30BD202A04DB90
:10085000203A00FA02F1002070479140C2F12003D3
:1008600020FA03F3194390407047202A04DB203A12
:1008700021FA02F00021704721FA02F3D040C2F1C0
:1008800020029140084319467047202A06DBCB1707
:10089000203A41FA02F043EAE07306E041FA02F33B
:1008A000D040C2F120029140084319467047002908
:1008B000A8BF7047401C490008BF20F001007047E6
:1008C00010B4B0FA80FC00FA0CF050EA010404BF46
:1008D00010BC704749B1CCF1200421FA04F411FA9C
:1008E0000CF118BF012121430843A3EB0C01CB1DE0
:1008F0004FEA00614FEA102042BF002010BC704751
:1009000000EBC35010440029A4BF10BC7047401C2A
:10091000490008BF20F0010010BC704710B5141E3C
:1009200073F1000408DA401C41F1000192185B41A8
:100930001A4301D120F0010010BD2DE9F04D92467F
:100940009B4611B1B1FA81F202E0B0FA80F2203296
:100950009046FFF77BFF04460F4640EA0A0041EA53
:100960000B0153465A46084313D0114653EA01007F
:1009700019D0C8F140025046FFF777FF05460E46F2
:10098000504659464246FFF761FF084305D0012013
:1009900004E020463946BDE8F08D0020054346EAD4
:1009A000E0762C4337430A986305E40AA0EB08007D
:1009B0000022FD0A44EA47540A3002D500200146CD
:1009C000E9E7010510196941DDE9084500196941A8
:1009D000BDE8F04DA2E7C1F30A52C1F3130140F2A2
:1009E000FF3341F480119A4202DA00200146704739
:1009F00040F233439A42A2F2334202DC5242FFF702
:100A000034BFFFF723BF0000064C074D06E0E06847
:100A100040F0010394E8070098471034AC42F6D345
:100A2000FFF7B6FBF0660108106701082DE9F04DED
:100A300000231A461B1A8A4103DB00200146BDE849
:100A4000F08DC1F30A52C1F3130141F480154FF048
:100A5000000BD10702D100186D41521E0027044639
:100A600040F2FF11384601EB620A3E4680460246DC
:100A700000204FF48011FFF7F8FEC2197141BB1836
:100A800046EB0100B4EB030C75EB000C04D3E41A45
:100A900065EB000517460E46241908F101006D416B
:100AA00080463428E3DDF91946EB0600091BA8410E
:100AB00003D24FF0FF32134601E0002213461BEB36
:100AC000070046EB0A51BDE8F04DFFF727BF70B5B0
:100AD0008C1810F8015B15F0070301D110F8013BE9
:100AE0002A1106D110F8012B03E010F8016B01F870
:100AF000016B5B1EF9D12B0705D40023521E0DD4C8
:100B000001F8013BFAE710F8013BCB1A921C03E015
:100B100013F8015B01F8015B521EF9D5A142D8D34D
:100B2000002070BD70B50546AC6B206C00F0500025
:100B300050BB206C40F4007020642068806800F096
:100B40004050E8B9A069D8B92068C06A00F47000C4
:100B500020B12068806800F4806088B9206840680F
:100B600020F0200021684860206C20F48070206410
:100B7000206C00F4805018B9206C40F00100206413
:100B8000204600F059FA03E0A06BC16C2846884764
:100B900070BD70B50546AC6B40202064606C40F0C1
:100BA00004006064204600F06AFA70BD70B5044627
:100BB000A56B284600F062FA70BD000010B502482F
:100BC00000F05EFA10BD000070F9002054494A6838
:100BD00022F440324A604A6843681A434A60026815
:100BE000526822F4807203685A600268536802698E
:100BF00043EA022203685A600268526822F0407297
:100C000003685A600268526883681A4303685A602E
:100C10000268926822F4006203689A60026892682F
:100C2000C3681A4303689A603E4B826A9A4218D09E
:100C30000268926822F0706203689A6002689268A3
:100C4000836A1A4303689A600268926822F04052ED
:100C500003689A6002689268C36A1A4303689A60DC
:100C60000BE00268926822F0706203689A60026882
:100C7000926822F0405203689A600268926822F0FB
:100C8000020203689A6002689368826943EA42023A
:100C900003689A60026AA2B10268526842F4006274
:100CA00003685A600268526822F4604203685A601E
:100CB00002685368426A521E43EA423203685A602D
:100CC00005E00268526822F4006203685A60026814
:100CD000D26A22F470020368DA620268D36A828BF5
:100CE000521E43EA02520368DA620268926822F4F2
:100CF000007203689A6002689368026B43EA4222BA
:100D000003689A600268926822F4806203689A60BD
:100D100002689368426943EA822203689A607047D6
:100D2000002301400100000F00BFFEE710B502489C
:100D300000F000FC10BD0000B0F8002010B5024823
:100D400000F0F8FB10BD000010F9002010B50248BB
:100D500000F0F0FB10BD00001CF6002010B50248AA
:100D600000F0E8FB10BD0000F0F7002010B50248CD
:100D700000F0E0FB10BD000050F8002010B5024864
:100D800000F0D8FB10BD0000B8F9002010B50248F3
:100D900000F0D0FB10BD0000BCF500200146087833
:100DA00010381823B0FBF3F20848805CC865032AAA
:100DB00005D908686FF30900001D886503E008681D
:100DC0006FF309008865886D704700005A1D01089F
:100DD000014600208A6A8B69CBB932B1012A0DD055
:100DE000022A03D0032A10D10EE000BFCB6A03F021
:100DF0008073B3F1807F00D1012007E0CB6AB3F1AB
:100E0000C07F00D1012001E000E000BF34E08B6929
:100E1000B3F5005F1AD132B1012A07D0022A03D0FC
:100E2000032A11D10AE000BF01200EE0CB6A03F0D3
:100E30008073B3F1807F00D1012006E0CB6AB3F16B
:100E4000C07F00D1012000E000BF15E032B1012ACF
:100E500005D0022A04D0032A0CD103E000BF00BF52
:100E6000012008E0CB6A03F08073B3F1807F00D1EA
:100E7000012000E000BF00BF704730B5046824685F
:100E800024F4802405682C60046863608468402C26
:100E900004D10468A2600468E16003E00468A16012
:100EA0000468E26030BD70477047000038B5024604
:100EB0000020009000BF92F83C00012801D10220E0
:100EC00038BD012082F83C0000BF0868092816D907
:100ED0001068C0680C780A3C04EB44050724AC4059
:100EE000A0431468E0600C780A3C04EB4404886872
:100EF000A0401468E46820431468E06013E01068C0
:100F000000690C7804EB44050724AC40A043146846
:100F100020610C7804EB44048868A04014682469BC
:100F20002043146820614868072817D21068406B76
:100F30000C79641E04EB84051F24AC40A0431468A4
:100F40006063088880B20C79641E04EB8404A040BE
:100F50001468646B20431468606331E048680D28AE
:100F600017D21068006B0C79E41F04EB84051F2472
:100F7000AC40A04314682063088880B20C79E41F59
:100F800004EB8404A0401468246B2043146820639D
:100F900016E01068C06A0C790D3C04EB84051F2430
:100FA000AC40A0431468E062088880B20C790D3C24
:100FB00004EB8404A0401468E46A20431468E062EF
:100FC000194B1A4C1068A04206D10868122803D1A8
:100FD000586840F480005860144C1068A0421CD13E
:100FE0000868102802D00868112816D1586840F403
:100FF00000005860086810280FD10D4800680D4C9B
:10100000B0FBF4F000EB80004000009002E000989C
:10101000401E009000980028F9D100BF002082F8FF
:101020003C0000BF00BF4BE700230140002001400F
:101030000C00002040420F0010B50446054920680E
:10104000884205D1044B05A2A2210B4805F0ACFF54
:1010500010BD0000002001407403002041444320E3
:10106000636F6E766572742073756363657373283E
:101070002564292E00000000B91E01087047704742
:1010800070B504460025002620680068C0F34005BE
:1010900020684068C0F3401695B38EB3206C00F012
:1010A000100018B9206C40F400702064206880683B
:1010B00000F04050E8B9A069D8B92068C06A00F4CF
:1010C000700020B12068806800F4806088B92068D2
:1010D000406820F0200021684860206C20F4807077
:1010E0002064206C00F4805018B9206C40F001009E
:1010F00020642046FFF7A0FF6FF01200216808600F
:1011000020680068C0F3800520684068C0F3C016FE
:10111000E5B3DEB3206C00F0100018B9206C40F489
:10112000005020642068806800F4401038BB2068BC
:10113000806B00F4401020B12068806800F480606B
:10114000E8B92068406800F48060C0B92068806811
:1011500000F0405098B9A06988B92068406820F034
:10116000800021684860206C20F480502064206C4E
:1011700000F4807018B9206C40F001002064204613
:10118000FFF792FE6FF00C0021680860206800688D
:1011900000F0010520684068C0F3801685B17EB17B
:1011A0002068006800F0010050B1206C40F48030ED
:1011B0002064204600F052F86FF0010021680860BA
:1011C00020680068C0F3401520684068C0F380665E
:1011D0007DB176B1606C40F0020060646FF0200079
:1011E000216808602046FFF74AFF6FF02000216861
:1011F000086070BD70B5044600250CB9012070BDB3
:101200001549A06A884200D000BF206C30B9002088
:10121000606484F83C00204600F022F8206C00F066
:10122000100088B9206C20F4885040F0020020643F
:101230002046FFF7CBFC00206064206C20F0020009
:1012400040F00100206400E0012500BF002084F888
:101250003C0000BF2846D2E70100000F70470000A5
:1012600010B586B0044623492068884240D100BFAB
:10127000002000902048006840F480701E490860FB
:101280000846006800F48070009000BF00BF102086
:101290000190032002900020039001A9174800F05C
:1012A00001FC1748174908600020486000211548D4
:1012B0008160C1604FF48061016149004161890032
:1012C00081614911C161090201620021416201216C
:1012D00081620021C162016300F04CFA18B17F21E4
:1012E00009A00CF051FD00BF0648A063846300BF55
:1012F00006B010BD0020014044380240000002400A
:1013000010640240B8F900202E2E5C5372635C61B9
:1013100064632E6300000000F8B504460D461646CF
:101320000020009000BF94F83C00012801D1022069
:10133000F8BD012084F83C0000BF2068806800F000
:101340000100A0B92068806840F001002168886031
:101350003C4800683C49B0FBF1F000EB40000090D5
:1013600002E00098401E009000980028F9D1206803
:10137000806800F00100002862D0206C40F201611A
:10138000884340F4807020642068406800F48060E6
:1013900028B1206C20F4005040F480502064206C70
:1013A00000F4805020B1606C20F00600606401E021
:1013B0000020606400BF002084F83C0000BF234F81
:1013C0002348A16BC8632348A16B08642248A16B22
:1013D000C8646FF02200216808602068406840F00F
:1013E0008060216848602068806840F480702168CF
:1013F0008860226802F14C0133462A46A06B00F057
:101400002FFA786800F01F0058B92068806800F053
:10141000405028B92068806840F08040216888608A
:101420000EE00E49206888420AD12068806800F0EA
:10143000405028B92068806840F08040216888606A
:10144000002075E70C00002040420F0000230140FF
:10145000250B0008AD0B0008930B0008002001408D
:1014600070B50446A56D00F027FC064694F83500DB
:10147000022808D08020606500BF002084F8340076
:1014800000BF012070BD2068006820F016002168B0
:1014900008602068406920F0800021684861206C65
:1014A00008B9A06C28B12068006820F00800216805
:1014B00008602068006820F00100216808600FE0E3
:1014C00000F0FAFB801B05280AD92020606500BFC8
:1014D000002084F8340000BF032084F83500D1E7F1
:1014E0002068006800F001000028E9D194F85C1041
:1014F0003F208840A86000BF002084F8340000BF6F
:10150000012084F835000020BCE7014691F8350041
:10151000022803D08020486501207047052081F80B
:1015200035000868006820F001000A68106000209B
:10153000F3E70000F8B50446002000908C480068EE
:101540004FF41651B0FBF1F7A56D2E6894F85C10BE
:1015500008208840304098B12068006800F00400FE
:1015600070B12068006820F004002168086094F8D9
:101570005C1008208840A860606D40F00100606544
:1015800094F85C1001208840304068B120684069C0
:1015900000F0800040B194F85C1001208840A86001
:1015A000606D40F00200606594F85C100420884093
:1015B000304068B12068006800F0020040B194F843
:1015C0005C1004208840A860606D40F004006065F5
:1015D00094F85C1010208840304078B32068006890
:1015E00000F0080050B394F85C1010208840A86008
:1015F0002068006800F4802080B12068006800F452
:10160000002028B9206CC8B12046216C884715E01D
:10161000A06C98B12046A16C88470FE02068006854
:1016200000F4807028B92068006820F00800216864
:101630000860206C10B12046216C884794F85C103B
:10164000202088403040002865D02068006800F0E5
:10165000100000285FD094F85C1020208840A8601B
:1016600094F83500052828D12068006820F016007D
:10167000216808602068406920F080002168486186
:10168000206C08B9A06C28B12068006820F0080020
:101690002168086094F85C103F208840A86000BF73
:1016A000002084F8340000BF012084F83500206D4C
:1016B00010B12046216D8847F8BD2068006800F40D
:1016C000802080B12068006800F4002028B9606C98
:1016D00010B12046616C88471DE0E06BD8B1204610
:1016E000E16B884717E02068006800F4807068B9F3
:1016F0002068006820F010002168086000BF00200A
:1017000084F8340000BF012084F83500E06B10B18C
:101710002046E16B8847606D38B3606D00F00100D2
:10172000F0B1052084F835002068006820F0010041
:101730002168086000BF0098401C0090B84200D9A2
:1017400005E02068006800F001000028F3D100BF28
:1017500000BF002084F8340000BF012084F8350069
:10176000E06C10B12046E16C884700BFA4E70000A0
:101770000C0000202DE9F0410446002500F09CFA01
:10178000074614B90120BDE8F081606A00B100BFCE
:1017900000BF002084F8340000BF022084F8350028
:1017A0002068006820F00100216808600AE000F06D
:1017B00083FAC01B052805D920206065032084F822
:1017C0003500E0E72068006800F001000028EED155
:1017D0002068056821480540D4E901010843E16813
:1017E00008432169084361690843A1690843E16925
:1017F0000843216A08430543606A042803D1D4E9F9
:101800000B0108430543206805602068456925F001
:101810000705606A0543606A04280DD1A06A054384
:10182000E06A48B12046FFF7D3FA28B1402060654E
:10183000012084F83500A6E7206845612046FFF7BF
:10184000ADFA064694F85C103F208840B060002056
:101850006065012084F83500002094E73F8010F097
:101860002DE9F04704460D4616461F464FF0000886
:10187000D4F8589000BF94F83400012802D1022017
:10188000BDE8F087012084F8340000BF94F83500EB
:1018900001282BD1022084F83500002060653B46EA
:1018A000324629462046FFF7E8FA94F85C103F20BC
:1018B0008840C9F808002068006840F016002168D8
:1018C00008602068406940F0800021684861206C11
:1018D00028B12068006840F008002168086020688E
:1018E000006840F001002168086006E000BF0020A9
:1018F00084F8340000BF4FF002084046C0E7000003
:101900002DE9F041044600F0D7F90646254601F0DE
:1019100057F84FF47A71B0FBF1F7384601F003FE47
:10192000681C10B105480078054400BF00F0C4F9F8
:10193000801BA842FAD3BDE8F08100000800002017
:10194000F0B50C46002500220023002192E001267C
:1019500006FA01F504EA0502AA427DD106684FEABB
:10196000410C032707FA0CF7BE430660CF0800F1CD
:10197000200656F827604F074FEAD76C0F2707FA63
:101980000CF7BE434FEAD10C00F1200747F82C605A
:1019900086684FEA410C032707FA0CF7BE438660BE
:1019A000466801278F40BE434660C6684FEA410C37
:1019B000032707FA0CF7BE43C660304E8F0856F86F
:1019C00027308E07370F0F26BE4033402C4EB042D3
:1019D00001D1002623E02B4EB04201D101261EE0AA
:1019E000294EB04201D1022619E0284EB04201D161
:1019F000032614E0264EB04201D104260FE0254E06
:101A0000B04201D105260AE0234EB04201D106269C
:101A100005E0224EB04201D1072600E008268F07DC
:101A20003F0FBE409E4224D18E07370F0F2606FA85
:101A300007F3124E8F0856F827609E430F4F4FEA68
:101A4000910C47F82C60164E36689643144F3E6052
:101A50003E1D3668964300E00BE03F1D3E603E1D94
:101A6000366896433F1D3E603E1D366896433F1DD7
:101A70003E60491C1029FFF46AAFF0BD08380140F0
:101A8000000002400004024000080240000C024036
:101A9000001002400014024000180240001C0240E6
:101AA000003C0140F8B502460B460025002400200A
:101AB0000021DCE0012606FA01F51E6806EA0504AD
:101AC000AC4273D15E68022E02D05E68122E13D132
:101AD000CF0802F1200656F827004E07F70E0F2612
:101AE000BE40B0434F07FF0E1E69BE403043CF08D3
:101AF00002F1200646F8270010684F000326BE407A
:101B0000B0431E7906F003064F00BE40304310601C
:101B10005E68012E08D05E68022E05D05E68112E28
:101B200002D05E68122E13D190684F000326BE408B
:101B3000B0434F00DE68BE403043906050680126DD
:101B40008E40B0431E79C6F300168E40304350607D
:101B5000D0684F000326BE40B0434F009E68BE4091
:101B60003043D0605E6806F08056B6F1805F7DD16C
:101B700000BF00260096404E366846F480463E4F31
:101B80003E603E46366806F48046009600BF00BFC1
:101B90003A4E8F0856F827008E07370F0F26BE40A3
:101BA000B043374EB24202D1002624E05EE0354E0B
:101BB000B24201D101261EE0334EB24201D10226CB
:101BC00019E0324EB24201D1032614E0304EB24247
:101BD00001D104260FE02F4EB24201D105260AE0C2
:101BE0002D4EB24201D1062605E02C4EB24201D163
:101BF000072600E008268F073F0FBE4030431F4EE8
:101C00008F0846F82700264E3068A0435E6806F429
:101C10008036B6F5803F00D12043214E3060361D1E
:101C20003068A0435E6806F40036B6F5003F00D188
:101C300020431B4E361D3060361D3068A0435E6861
:101C400006F48016B6F5801F00D12043144E0836E6
:101C50003060361D3068A0435E6806F40016B6F5A5
:101C6000001F00D120430E4E0C363060491C102955
:101C7000FFF420AFF8BD00004438024008380140AE
:101C8000000002400004024000080240000C024034
:101C9000001002400014024000180240001C0240E4
:101CA000003C014042694A40426170470AB181618B
:101CB00001E00B0483617047014800687047000031
:101CC0000000002010B50446D4F894020BF02DFE5D
:101CD00010BD10B50446D4F894020BF03DFE10BDC3
:101CE00070472DE9F041044626680025002720684A
:101CF0000BF00CFF012871D120680BF0D5FF08B95B
:101D0000BDE8F08120680BF0CFFF00F40010B0F5C3
:101D1000001F03D14FF400102168486120680BF0C8
:101D2000C3FF00F48010B0F5801F03D14FF4801082
:101D30002168486120680BF0B7FF00F08060B0F1C7
:101D4000806F03D14FF080602168486120680BF0FC
:101D5000ABFF00F00200022801D121684861206831
:101D60000BF0A2FF00F00050B0F1005F10D1D6F8E8
:101D7000400420F02E00C6F840042046FFF7A9FFDB
:101D8000012120680BF071FF4FF00050216848617D
:101D900020680BF089FF00F08070B0F1807F02D1E5
:101DA000204602F037FE20680BF07EFF00F00800AE
:101DB000082805D1204600F047F80820216848612E
:101DC00020680BF071FF00F00070B0F1007F23D1AC
:101DD00020680BF044FF0746002516E032E00120A2
:101DE000A840384080B106F5A06000EB45100068BF
:101DF00000F4004020B1E9B2204602F02AF903E0E5
:101E0000E9B2204602F09EFB6D1CA068A842E6D80D
:101E10004FF000702168486120680BF045FF00F02A
:101E2000100010280ED12068806920F01000216871
:101E30008861204602F058FE2068806940F010005A
:101E40002168886100BF5BE710B50446D4F89402AE
:101E50000BF0B6FD10BD10B5044600BF94F890021B
:101E6000012801D1022010BD012084F8900200BF9A
:101E700020680BF015FE012120680BF0EFFD00BF7C
:101E8000002084F8900200BF00BFECE710B50446C4
:101E900000BF94F89002012801D1022010BD01205A
:101EA00084F8900200BF20680BF015FF00BF0020EF
:101EB00084F8900200BF00BFF0E710B504460CB9EB
:101EC000012010BD242084F83D002068006820F027
:101ED000010021680860204600F0FEFA002020641E
:101EE00084F83D00206384F83E0000BF84F83C0085
:101EF00000BF00BFE5E7014691F83D0070470000D4
:101F000070B50446002600250CB9012070BD94F878
:101F10003D0028B9002084F83C00204600F006FB74
:101F2000242084F83D002068006820F0010021682A
:101F3000086000F04BFD05463948B5FBF0F6206817
:101F4000466038496068884201D8701C07E04FF449
:101F5000967070434FF47A71B0FBF1F0401C216829
:101F600008623049606888420ED860684000B5FB5E
:101F7000F0F0C0F30B00042801D204202DE06068CB
:101F80004000B5FBF0F028E0A06828B9606800EBDD
:101F90004000B5FBF0F008E0606800EBC00101EB29
:101FA0000010B5FBF0F040F48040C0F30B0008B91E
:101FB000012012E0A06828B9606800EB4000B5FB82
:101FC000F0F008E0606800EBC00101EB0010B5FB29
:101FD000F0F040F4804040F400402168C861D4E94A
:101FE0000701084321680860D4E903100843216809
:101FF0008860D4E9050108432168C860206800684A
:1020000040F001002168086000202064202084F84E
:102010003D000020206384F83E0000BF76E700000A
:1020200040420F00A08601002DE9FC5F04460F46E8
:1020300090469946DDE90CAB0E9E0025FFF73CFE6D
:10204000054694F83D0020287ED119230122BD4980
:102050002046009502F045FF10B10220BDE8FC9F2C
:1020600000BF94F83C00012801D10220F6E70120CE
:1020700084F83C0000BF2068006800F0010028B927
:102080002068006840F0010021680860206800684E
:1020900020F4006021680860222084F83D00402080
:1020A00084F83E0000202064C4F824A0A4F82AB0DC
:1020B000A548E062608D20854B4642463946204661
:1020C000CDE9006502F0C6FD80B1206C042806D180
:1020D00000BF002084F83C0000BF0120BEE700BF25
:1020E000002084F83C0000BF0320B7E7208D88B9AA
:1020F00000BF00200190206840690190206880693D
:10210000019000BF00BF2068006840F400702168A3
:10211000086041E0208D012819D12068006820F472
:1021200080602168086000BF00200190206840693D
:10213000019020688069019000BF00BF206800689E
:1021400040F40070216800E0FAE0086024E0208D8F
:10215000022816D12068006820F480602168086099
:102160002068006840F400602168086000BF00201B
:10217000019020684069019020688069019000BF4B
:102180000AE000BF002001902068406901902068AB
:102190008069019000BF00BFC3E0208D032872D882
:1021A000208D01281AD12A463146204602F02DFF03
:1021B00030B1206C202801D103204FE701204DE7EA
:1021C00020680069C1B2626A501C60621170208D83
:1021D000401E2085608D401E6085A2E0208D022873
:1021E0002AD13346002259492046009502F079FE53
:1021F00008B1032032E72068006840F400702168CD
:10220000086020680069C1B2626A501C6062117087
:10221000208D401E2085608D401E608520680069ED
:10222000C1B2626A501C60621170208D401E208510
:10223000608D401E608574E033460022434920468D
:10224000009502F04EFE08B1032007E72068006801
:1022500020F480602168086020680069C1B2626A69
:10226000501C60621170208D401E2085608D401EC4
:1022700060853346002235492046009502F031FE44
:1022800010B10320EAE620E02068006840F4007006
:102290002168086020680069C1B2626A501C6062EF
:1022A0001170208D401E2085608D401E6085206845
:1022B0000069C1B2626A501C60621170208D401EBC
:1022C0002085608D401E60852BE02A4631462046E1
:1022D00002F09BFE30B1206C202801D10320BDE626
:1022E0000120BBE620680069C1B2626A501C6062CE
:1022F0001170208D401E2085608D401E60852068F5
:102300004069C0F3800060B120680069C1B2626AB0
:10231000501C60621170208D401E2085608D401E13
:102320006085208D00287FF438AF202084F83D00A0
:10233000002084F83E0000BF84F83C0000BF8DE61A
:1023400002208BE6020010000000FFFF04000100E5
:102350002DE9FC5F04460F4690469946DDE90CAB3B
:102360000E9E0025FFF7A8FC054694F83D002028A6
:102370007ED11923012256492046009502F0B1FD75
:1023800010B10220BDE8FC9F00BF94F83C0001287A
:1023900001D10220F6E7012084F83C0000BF20684C
:1023A000006800F0010028B92068006840F00100D2
:1023B000216808602068006820F4006021680860D7
:1023C000212084F83D00402084F83E000020206455
:1023D000C4F824A0A4F82AB03E48E062608D2085AD
:1023E0004B46424639462046CDE9006502F0DEFC08
:1023F00080B1206C042806D100BF002084F83C0086
:1024000000BF0120BEE700BF002084F83C0000BFF1
:102410000320B7E733E02A463146204602F02CFE7F
:1024200060B1206C042807D12068006840F4007077
:10243000216808600120A5E70320A3E7616A481C22
:102440006062087821680861208D401E2085608DBB
:10245000401E608520684069C0F3800078B1208DFF
:1024600068B1616A481C606208782168086100E010
:102470002CE0208D401E2085608D401E6085208DC3
:102480000028C8D12A463146204602F0FFFC60B140
:10249000206C042807D12068006840F4007021688F
:1024A000086001206EE703206CE72068006840F4B4
:1024B000007021680860202084F83D00002084F826
:1024C0003E0000BF84F83C0000BF5BE7022059E7F4
:1024D000020010000000FFFF10B504460F492068FD
:1024E00088420AD10E48006820F400100C490860A8
:1024F000C0210C48FFF724FA0EE00B4920688842FF
:102500000AD10748006820F48000054908604FF4AC
:1025100040610448FFF714FA10BD00000054004069
:1025200040380240000402400058004010B586B018
:1025300004464049206888423AD100BF00200090FC
:102540003D48006840F400103B49086008460068B8
:1025500000F40010009000BF00BFC02001900120D7
:10256000029003900320049001A93448FFF79AFADF
:10257000012206213148FFF799FB012207212F484C
:10258000FFF794FB4FF400402168086000202168A9
:102590000860C020019012200290012003900320C7
:1025A00004900420059001A92448FFF77BFA3FE03E
:1025B0002349206888423BD100BF002000901E487C
:1025C000006840F480001C4908600846006800F478
:1025D0008000009000BF00BF4FF4406001900120D8
:1025E000029003900320049001A91448FFF75AFABF
:1025F00001220A211148FFF759FB01220B210F4844
:10260000FFF754FB4FF40040216808600020216868
:1026100008604FF440600190122002900120039066
:10262000032004900420059001A90448FFF73AFA1A
:1026300006B010BD00540040403802400004024083
:1026400000580040034800680349097808440149DC
:1026500008607047000000200800002010B50D48F9
:10266000006840F400700B4908600846006840F4B8
:10267000806008600846006840F4807008600320AD
:1026800000F0CAF8002000F007F800F02BF8002056
:1026900010BD0000003C024070B504460E480078B2
:1026A0004FF47A71B1FBF0F00C490968B1FBF0F519
:1026B000284600F038FF08B1012070BD102C07D269
:1026C00000222146501E00F068F80548046001E031
:1026D0000120F2E70020F0E7080000200C000020B5
:1026E0000400002008B500BF0020009023480068C7
:1026F00040F48040214908600846006800F48040AA
:10270000009000BF00BF00BF00200090081F0068BD
:1027100040F08050091F08600846006800F08050B3
:10272000009000BF00BF032000F076F800221146A1
:102730006FF00B0000F031F8002211466FF00A0034
:1027400000F02BF8002211466FF0090000F025F888
:1027500000221146501F00F020F800221146101FE1
:1027600000F01BF800221146901E00F016F800221F
:102770001146501E00F011F808BD00004438024018
:1027800000BF00F01F02012191404209920002F1B6
:10279000E022C2F8001100BF70472DE9F05F8046CB
:1027A0000D461646002702F0F5FF074639462A4631
:1027B000334601F00700C0F1070ABAF1040F02D94D
:1027C0004FF0040A01E0C0F1070AD14600F1040A03
:1027D000BAF1070F02D24FF0000A01E0A0F1030A9C
:1027E000D4464FF0010A0AFA09FAAAF1010A0AEAE4
:1027F000020A0AFA0CFA4FF0010B0BFA0CFBABF1D0
:10280000010B0BEA030B4AEA0B042146404602F097
:10281000C9FFBDE8F09F000000BF00F00702064BB3
:1028200019684FF6FF031940044B0B4343EA02219A
:10283000014B196000BF70470CED00E00000FA0585
:1028400070B504460D460CB9012070BD58480068AB
:1028500000F00F00A84209D255490D7008460068E3
:1028600000F00F00A84201D00120EEE7207800F030
:10287000020002281DD1207800F00400042805D1B0
:102880004C48006840F4E0504A490860207800F065
:102890000800082805D14748006840F460404549D1
:1028A00008604448006820F0F000A16808434149EE
:1028B0000860207800F00100A8B36068012807D103
:1028C0003C4808380068C0F34040B8B90120BCE774
:1028D0006068022802D06068032807D135480838AC
:1028E0000068C0F3406048B90120AEE731480838BD
:1028F0000068C0F3400008B90120A6E72D48006831
:1029000020F00300616808432A490860FFF7D4F902
:10291000064609E0FFF7D0F9801B41F28831884272
:1029200002D9032091E707E02248006800F00C007C
:102930006168B0EB810FEDD11D48006800F00F0019
:10294000A84209D91A490D700846006800F00F0026
:10295000A84201D0012078E7207800F00400042884
:1029600007D11448006820F4E050E1680843114999
:102970000860207800F00800082808D10D48006899
:1029800020F46040216940EAC1000A49086000F073
:102990003DF808490968C1F30311074A515CC84072
:1029A000064908600020FFF777FE00204DE7000091
:1029B000003C024008380240621D01080C00002063
:1029C00001480068704700000C00002000B5FFF7C8
:1029D000F7FF04490968C1F38221034A515CC840EA
:1029E00000BD000008380240721D010800B5FFF765
:1029F000E7FF04490968C1F34231034A515CC8400A
:102A000000BD000008380240721D01082DE9F047A2
:102A1000002400250026A1462548006800F00C008F
:102A200020B1042805D008283AD105E0DFF88490C9
:102A300039E0DFF8849036E01D48001F006800F0A0
:102A40003F041B48001F006800F4800078B11A485A
:102A50001749091F0968C1F38811A0FB01700146DD
:102A6000224600233846FDF729FC05460EE01148B2
:102A70000F49091F0968C1F38811A0FB01700146C5
:102A8000224600233846FDF719FC05460848001F7A
:102A90000068C0F30140401C4600B5FBF6F902E0B7
:102AA000DFF8109000BF00BF4846BDE8F087000087
:102AB000083802400024F40000127A00F8B50446F9
:102AC0000CB90120F8BD207800F00100002874D076
:102AD000F948006800F00C0004280DD0F6480068A2
:102AE00000F00C00082813D1F348001F006800F420
:102AF0008000B0F5800F0BD1EF4808380068C0F3B4
:102B00004040002859D06068002856D10120D9E7FC
:102B100000BF6068B0F5803F08D1E748083800681A
:102B200040F48030E449083908601EE06068B0F580
:102B3000A02F0DD1E0480838006840F48020DE491D
:102B4000083908600846006840F4803008600CE0EE
:102B5000D9480838006820F48030D749083908601F
:102B60000846006820F48020086000BF606890B1CB
:102B7000FFF7A2F8054606E0FFF79EF8401B642821
:102B800001D903209EE7CC4808380068C0F34040D4
:102B90000028F1D011E0FFF78FF8054606E0FFF7B7
:102BA0008BF8401B642801D903208BE7C248083802
:102BB0000068C0F340400028F1D1207800F0020006
:102BC00002285FD1BC48006800F00C0058B1BA4838
:102BD000006800F00C0008281CD1B748001F0068EE
:102BE00000F48000B0B9B44808380068C0F3400071
:102BF00020B1E068012801D0012063E7AE48083821
:102C0000006820F0F800216940EAC100AA490839AB
:102C1000086037E0E06800B30120A8490860FFF7CA
:102C20004BF8054606E0FFF747F8401B022801D99C
:102C3000032047E7A04808380068C0F34000002898
:102C4000F1D09D480838006820F0F800216940EA7A
:102C5000C10099490839086014E0002097490860CC
:102C6000FFF72AF8054606E0FFF726F8401B022882
:102C700001D9032026E7904808380068C0F34000D7
:102C80000028F1D1207800F0080008282CD16069D4
:102C9000A8B101208A490860FFF70EF8054606E052
:102CA000FFF70AF8401B022801D903200AE78248EF
:102CB0006C300068C0F340000028F1D014E0002020
:102CC0007F490860FEF7F8FF054606E0FEF7F4FFCF
:102CD000401B022801D90320F4E677486C300068D5
:102CE000C0F340000028F1D1207800F0040004284F
:102CF00070D1002670483830006800F0805090B9DC
:102D000000BF002000906C483830006840F08050D0
:102D10006949383108600846006800F0805000902A
:102D200000BF00BF01266748006800F48070B0B99A
:102D30006448006840F4807062490860FEF7BCFF98
:102D4000054606E0FEF7B8FF401B022801D9032024
:102D5000B8E65C48006800F480700028F2D000BF3C
:102D6000A068012808D154486830006840F001008C
:102D70005149683108601DE0A06805280DD14E4812
:102D80006830006840F004004B496831086008462C
:102D9000006840F0010008600CE0474868300068B7
:102DA00020F001004449683108600846006820F0BE
:102DB0000400086000BFA068A8B1FEF77DFF0546CB
:102DC00009E0FEF779FF401B41F28831884202D9C1
:102DD000032077E626E0384868300068C0F34000FA
:102DE0000028EED013E0FEF767FF054608E0FEF787
:102DF00063FF401B41F28831884201D9032061E61C
:102E00002D4868300068C0F340000028EFD1012E43
:102E100007D129483830006820F0805026493831E1
:102E2000086000BFA069B8B32348006800F00C0038
:102E300008285ED0A069022846D100201F490866F4
:102E4000FEF73AFF054606E0FEF736FF401B022874
:102E500001D9032036E6184808380068C0F34060FE
:102E60000028F1D1D4E907010843616A40EA8111E1
:102E70000122A06AC2EB500041EA00412C20005D13
:102E800041EA00600C49091F086001200B490866EF
:102E9000FEF712FF054607E02DE0FEF70DFF401B91
:102EA000022801D903200DE6034808380068C0F362
:102EB00040600028F1D01EE0083802400000474280
:102EC000800E47420070004000200C490866FEF763
:102ED000F3FE054606E0FEF7EFFE401B022801D98F
:102EE0000320EFE506480068C0F340600028F2D1F7
:102EF00001E00120E6E50020E4E500000000474293
:102F00000038024010B5044604492068884204D1C4
:102F100003A23121094803F0B3FF10BD0030014086
:102F200053504920646174612073656E6420697335
:102F300020696E206572726F72000000E72B010835
:102F4000014691F851007047F8B50446206846687C
:102F50002068856805F0400048B905F0010030B1EF
:102F600006F0400018B12046216C8847F8BD05F0F6
:102F7000020030B106F0800018B12046616C88472D
:102F8000F4E705F4B070002876D006F020000028A1
:102F900072D005F04000F0B194F8510003280ED033
:102FA000606D40F00400606500BF00200090206864
:102FB000C068009020688068009000BF0BE000BFF0
:102FC000002000902068C068009020688068009011
:102FD00000BF00BFCAE705F0200088B1606D40F077
:102FE0000100606500BF00200090206880680090AC
:102FF0002068006820F040002168086000BF00BF22
:1030000005F4807058B1606D40F00800606500BF45
:103010000020009020688068009000BF00BF606DB5
:1030200020B32068406820F0E0002168486001205B
:1030300084F8510006F0020010B906F00100B8B1A2
:103040002068406820F0030021684860E06C28B1E7
:103050000A48E16C0865E06CFEF757FAA06C28B1ED
:103060000648A16C0865A06CFEF74FFA03E003E088
:103070002046FFF747FF79E700BF77E7D5CE000886
:1030800010B504460CB9012010BD606A00B900BF3C
:103090000021A16294F8510028B9002084F8500062
:1030A000204600F033F8022084F8510020680068C0
:1030B00020F0400021680860D4E901010843E1687C
:1030C00008432169084361690843218B01F40071B9
:1030D0000843E1690843216A0843A16A084321685B
:1030E00008600421A06901EA1040616A0843216870
:1030F00048602068C06920F400602168C861002031
:103100006065012084F851000020BDE710B586B04D
:1031100004464C492068884246D100BF00200090F8
:103120004948006840F480504749086008460068F4
:1031300000F48050009000BF00BF282001900220C2
:10314000029001200390032004900520059001A91E
:103150003E48FEF7A7FC3E483E4908604FF0C0607D
:10316000486040213B4881600021C1604FF480618C
:103170000161002141618161C16101624162FEF72B
:10318000F9FA18B18B2134A00AF0FEFD00BF3148D6
:10319000A064846300BF002209212320FFF7FDFA09
:1031A0002320FFF7EDFA4BE02F492068884247D1F2
:1031B00000BF002000902448001F006840F48040B9
:1031C0002149091F08600846006800F4804000900B
:1031D00000BF00BF4FF42040019002200290012068
:1031E0000390032004900520059001A91748FEF7DD
:1031F00059FC1E481E4908600020486040211C48B8
:1032000081600021C1604FF4806101610021416152
:103210008161C16101624162FEF7ACFA18B1BA2165
:103220000DA00AF0B1FD00BF1148A064846300BF87
:10323000002207212420FFF7B0FA2420FFF7A0FA8C
:1032400006B010BD00300140443802400004024086
:1032500058640240BCF500202E2E2F5372632F734A
:1032600070692E630000000000380040706002406A
:103270001CF600202DE9F84304460D4617461E466D
:103280004FF00008C14600BF94F85000012802D159
:103290000220BDE8F883012084F8500000BFFEF74B
:1032A0000BFD804694F85100012802D04FF002092E
:1032B000A9E005B117B94FF00109A4E0032084F893
:1032C0005100002060652563A786E786A063A0877C
:1032D000E08760642064A068B0F5004F05D12068E5
:1032E000006840F48040216808602068006800F0B1
:1032F0004000402805D02068006840F04000216868
:103300000860E068B0F5006F2AD1606810B1E08E07
:10331000012806D128882168C860AD1CE08E401EB7
:10332000E08619E02068806800F00200022807D1DA
:1033300028882168C860AD1CE08E401EE0860BE046
:103340003EB1701C40B1FEF7B7FCA0EB0800B042E4
:1033500002D34FF0030956E0E08E0028E2D129E0C5
:10336000606810B1E08E012806D1287821680873C2
:103370006D1CE08E401EE08619E02068806800F039
:103380000200022807D12878216808736D1CE08E9E
:10339000401EE0860BE03EB1701C40B1FEF78CFC95
:1033A000A0EB0800B04202D34FF003092BE0E08EFF
:1033B0000028E2D13346012202212046CDF80080C8
:1033C00009F0E6FD10B14FF003091CE0424631461A
:1033D000204609F06BFD20B14FF001092020606507
:1033E00011E0A06850B900BF002000902068C068BC
:1033F000009020688068009000BF00BF606D08B139
:103400004FF0010900BF012084F8510000BF0020E7
:1034100084F8500000BF48463BE700002DE9F0412A
:1034200004460E461546002700BF94F850000128B8
:1034300002D10220BDE8F081012084F8500000BFD5
:1034400094F85100012801D0022748E006B10DB9D7
:10345000012744E0032084F85100002060652663C2
:10346000A586E586A06360642064A087E087A068E5
:10347000B0F5004F05D12068006840F48040216815
:1034800008601A48A16C08641948A16CC8631948FF
:10349000A16CC8640020A16C0865E38ED4F800C05C
:1034A0000CF10C02216BA06CFEF7DAF920680068C1
:1034B00000F04000402805D02068006840F040003F
:1034C000216808602068406840F02000216848605A
:1034D0002068406840F002002168486000BF00BFDB
:1034E000002084F8500000BF3846A3E711CF000841
:1034F0001FCF0008E9CE000870477047042808D1A4
:103500004FF0E021096941F004014FF0E022116120
:1035100007E04FF0E021096921F004014FF0E022BB
:1035200011617047704770B504462546681EB0F1BA
:10353000807F01D301200FE0681E4FF0E021486139
:103540000F214FF0FF3002F02DF900204FF0E02165
:10355000886107200861002070BD10B5FFF7E2FF09
:1035600010BD70477047024600BF92F8380001282E
:1035700001D102207047012082F8380000BF0220EC
:1035800082F839001068406820F0700013685860B5
:10359000106840680B6818431368586010688068AA
:1035A00020F0800013689860106880684B681843AA
:1035B00013689860012082F8390000BF002082F86B
:1035C000380000BF00BFD5E710B504460CB9012094
:1035D00010BD94F8390028B9002084F8380020463E
:1035E00000F00CF8022084F83900211D206809F051
:1035F000E5FD012084F839000020E9E708B50168FD
:10360000B1F1804F0FD100BF002100911A49096824
:1036100041F00101184A11601146096801F00101E9
:10362000009100BF27E0154A016891420FD100BF09
:10363000002100911049096841F010010E4A116003
:103640001146096801F01001009100BF13E00C4A17
:10365000016891420FD100BF00210091064909681D
:1036600041F02001044A11601146096801F020016F
:10367000009100BF00BF08BD40380240001000406C
:103680000014004001460868C06840F001000A6864
:10369000D0600868006840F001000A6810600020EF
:1036A000704701460868C06820F001000A68D060D1
:1036B00000BF0868006A41F21112104050B9086852
:1036C000006A9210104028B90868006820F00100D4
:1036D0000A68106000BF00207047704710B50446AC
:1036E00020680069C0F34000D8B12068C068C0F30A
:1036F0004000B0B16FF0020021680861012020761F
:103700002068806900F0030018B12046FFF7E5FF4C
:1037100005E0204600F0ADF8204600F0ABF80020B0
:10372000207620680069C0F38000D8B12068C068A6
:10373000C0F38000B0B16FF004002168086102207E
:1037400020762068806900F4407018B12046FFF7A9
:10375000C4FF05E0204600F08CF8204600F08AF80F
:103760000020207620680069C0F3C000D8B120682E
:10377000C068C0F3C000B0B16FF0080021680861F4
:10378000042020762068C06900F0030018B12046AC
:10379000FFF7A3FF05E0204600F06BF8204600F09D
:1037A00069F80020207620680069C0F30010D8B1C5
:1037B0002068C068C0F30010B0B16FF0100021683D
:1037C0000861082020762068C06900F4407018B1B4
:1037D0002046FFF782FF05E0204600F04AF8204629
:1037E00000F048F8002020762068006900F0010011
:1037F00058B12068C06800F0010030B16FF00100DE
:1038000021680861204600F037F820680069C0F39D
:10381000C01058B12068C068C0F3C01030B16FF05C
:103820008000216808612046FFF79BFE2068006940
:10383000C0F3801058B12068C068C0F3801030B168
:103840006FF0400021680861204600F051F82068C0
:103850000069C0F3401058B12068C068C0F3401040
:1038600030B16FF02000216808612046FFF77AFE32
:1038700010BD70477047000070B504462068B0F175
:10388000804F02D102F024F928E0154920688842CF
:103890000ED106F0EFFB054635B907F06FFE0128A3
:1038A00002D107F07FFD02E001200E49887215E089
:1038B0000D492068884211D10C480078401C0B4902
:1038C000087001210748C172084800780A2805D10C
:1038D00000200649087001210248017370BD0000F4
:1038E00000100040F00000200014004034010020CF
:1038F000704770B50446002520684069C0F3C015C4
:1039000094F8390021280ED16DB12068406920F06B
:10391000800021684861206B10B1206BFDF7A0FD8D
:10392000204609F05BFD20684069C0F3801594F8DB
:103930003A0022280ED16DB12068406920F0400085
:1039400021684861606B10B1606BFDF789FD20460E
:1039500009F024FD002070BD10B504460949206817
:10396000884205D108A27D210E4803F039FA08E00B
:103970000D492068884204D10CA28121094803F036
:103980002FFA10BD0044004052656D6F74652063CE
:103990006F6E74726F6C2064617461206572726FF7
:1039A00072210000AE1D010800480040426C7565A0
:1039B000746F6F74682064617461206572726F72D5
:1039C0002100000001460022002391F8392091F8DF
:1039D0003A3042EA030070472DE9F0470446206878
:1039E00005682068C668206847694FF00008C1462E
:1039F00005F00F08B8F1000F0AD105F0200038B12A
:103A000006F0200020B1204609F0F2FCBDE8F08766
:103A1000B8F1000F6DD007F0010018B906F49070EE
:103A2000002866D005F0010030B106F4807018B1AE
:103A3000E06B40F00100E06305F0040030B107F0F6
:103A4000010018B1E06B40F00200E06305F00200F5
:103A500030B107F0010018B1E06B40F00400E06302
:103A600005F0080030B107F0010018B1E06B40F03C
:103A70000800E063E06B68B305F0200028B106F0B1
:103A8000200010B1204609F0B3FC20684069C0F363
:103A90008019E06B00F0080010B9B9F1000F22D0D6
:103AA000204609F07BFC2068406900F04000B0B17E
:103AB0002068406920F0400021684861606B50B187
:103AC0001748616B0865606BFDF71FFD10B1606BF7
:103AD000016D88470CE02046FFF73EFF08E02046D6
:103AE000FFF73AFF04E02046FFF736FF0020E063CF
:103AF0008CE705F0800030B106F0800018B1204658
:103B000009F078FE82E705F0400030B106F0400091
:103B100018B1204609F052FC78E700BF76E70000B4
:103B2000A1D2000810B504460CB9012010BDA0694F
:103B300000B100E000BF94F8390028B9002084F8F3
:103B40003800204600F028F8242084F83900206846
:103B5000C06820F400502168C860204609F096FC37
:103B60002068006920F4904021680861206840695D
:103B700020F02A00216848612068C06840F40050A5
:103B80002168C8600020E063202084F8390084F8B0
:103B90003A000020CAE7000010B586B00446874905
:103BA000206888421FD100BF002000908448006830
:103BB00040F01000824908600846006800F01000DC
:103BC000009000BF00BF4FF4C0600190022002903F
:103BD00001200390032004900720059001A9794853
:103BE000FDF760FFE7E07849206888426DD100BFAB
:103BF000002000907248001F006840F400307049B7
:103C0000091F08600846006800F40030009000BFFB
:103C100000BF0C200190022002900120039004902C
:103C20000720059001A96748FDF73CFF67486849F0
:103C300008604FF000604860002165488160C16005
:103C40004FF480610161002141618161C1614FF4E4
:103C50008031016200214162FDF78CFD18B1B02175
:103C60005CA00AF091F800BF59486063846300BF0C
:103C7000564818305B4908604FF0006048604021AA
:103C8000584881600021C1604FF4806101610021CA
:103C900041618161C1614FF4803101620021416263
:103CA000FDF768FD18B1C2214AA00AF06DF800BF07
:103CB0004C482063846300BF002201212620FEF7C8
:103CC0006CFD2620FEF75CFD75E0474920688842C0
:103CD00071D100BF002000903948001F006840F4F7
:103CE00080203749091F08600846006800F48020DA
:103CF000009000BF00BF4FF440600190022002908E
:103D000001200390032004900720059001A9374863
:103D1000FDF7C8FE2D486038354908604FF0006057
:103D20004860002132488160C1604FF480610161C8
:103D30000021416181614FF48071C16149020162DA
:103D400000214162FDF716FD18B1F02121A00AF013
:103D50001BF800BF26486063846300BF1B483038EF
:103D6000244908604FF0006048604021214881608C
:103D70000021C1604FF480610161002141618161D6
:103D8000C1614FF40031016200214162FDF7F2FC94
:103D900020B14FF481710FA009F0F6FF00BF154864
:103DA0002063846300BF002202212720FEF7F5FC78
:103DB0002720FEF7E5FC06B010BD00000010014012
:103DC0004438024000000240004400408860024045
:103DD000F0F700202E2E2F5372632F7573617274CB
:103DE0002E63000050F80020004800400008024008
:103DF000B0F8002010F9002077B581B004461546D0
:103E000094F83A00202850D1029800B115B9012049
:103E100004B070BD00BF94F83800012801D1022021
:103E2000F6E7012084F8380000BF0298A062A5855B
:103E30000020E063222084F83A001D48616BC863CB
:103E40001C48616B08641C48616BC8640020616B8E
:103E5000086502AE32682368191D2B46606BFDF7BA
:103E6000FFFC00BF002000902068006800902068E0
:103E70004068009000BF00BF00BF002084F83800F9
:103E800000BF2068C06840F480702168C860206866
:103E9000406940F00100216848612068406940F0B5
:103EA0004000216848610020B2E70220B0E700002E
:103EB00005D300084BD30008B5D20008024A0168B8
:103EC000914200D000BF70470044004070472DE988
:103ED000F84304460D4616461F464FF0000994F875
:103EE000390020285CD105B116B90120BDE8F8835E
:103EF00000BF94F83800012801D10220F6E7012024
:103F000084F8380000BF0020E063212084F83900E5
:103F1000FDF7D2FE8146A684E6842BE0E08C401EAD
:103F2000E084A068B0F5805F16D14B460022802166
:103F30002046009709F092FC08B10320D6E7A84676
:103F4000B8F80000C0F3080021684860206908B98B
:103F5000AD1C0FE06D1C0DE04B4600228021204679
:103F6000009709F07BFC08B10320BFE715F8010BAF
:103F700021684860E08C0028D0D14B4600224021C7
:103F80002046009709F06AFC08B10320AEE7202024
:103F900084F8390000BF002084F8380000BFA5E78E
:103FA0000220A3E7F7B50446154694F83900202807
:103FB0003DD1019800B10DB90120FEBD00BF94F8BC
:103FC0003800012801D10220F7E7012084F83800E9
:103FD00000BF01982062A584E5840020E0632120D1
:103FE00084F839001348216BC8631348216B0864B7
:103FF0001248216BC8640020216B086501AE23685C
:104000001A1D31682B46206BFDF72AFC6FF040002B
:104010002168086000BF002084F8380000BF2068D5
:10402000406940F08000216848610020C5E7022017
:10403000C3E7000059D300088FD30008B5D20008A9
:10404000024A0168914200D000BF7047004400401E
:1040500070472DE9F04106460C463568002705F506
:10406000A06000EB4410806800F0040090B10421CF
:1040700005F5A06000EB4410816005F5A06000EB41
:104080004410C06840F0020105F5A06000EB441048
:10409000C16069E005F5A06000EB4410806800F0A5
:1040A000200030B1202105F5A06000EB44108160B4
:1040B0005AE005F5A06000EB4410806800F00800AD
:1040C00028B305F5A06000EB4410C06840F0020181
:1040D00005F5A06000EB4410C160052104EB8402EB
:1040E00006F1380000EBC20080F82510102105F51C
:1040F000A06000EB44108160082105F5A06000EB92
:10410000441081602146306809F005FD2CE005F57A
:10411000A06000EB4410806800F4806020B305F5D7
:10412000A06000EB4410C06840F0020105F5A060FB
:1041300000EB4410C1602146306809F0ECFC10210E
:1041400005F5A06000EB44108160082104EB8402B7
:1041500006F1380000EBC20080F82510C90105F512
:10416000A06000EB4410816005F5A06000EB4410F6
:10417000806800F40070B8B105F5A06000EB441051
:10418000C06840F0020105F5A06000EB4410C1607A
:104190002146306809F0BFFC4FF4007105F5A060BE
:1041A00000EB44108160CBE105F5A06000EB44100A
:1041B000806800F0010000287DD03069A8B104EBD0
:1041C000840106F1380000EBC100016905F5A0602B
:1041D00000EB44100069C0F31200091A04EB8402DA
:1041E00006F1380000EBC2004161012104EB8402BA
:1041F00006F1380000EBC20080F82510002104EB26
:10420000840206F1380000EBC2000162012105F5CD
:10421000A06000EB4410816004EB840106F13800DB
:1042200000EBC100C07940B104EB840106F1380015
:1042300000EBC100C079022816D105F5A06000EBA3
:104240004410C06840F0020105F5A06000EB441086
:10425000C1602146306809F05EFC102105F5A060C0
:1042600000EB441081602BE004EB840106F1380080
:1042700000EBC100C079032822D105F5A06000EB56
:104280004410006840F0005105F5A06000EB4410B8
:104290000160012104EB840206F1380000EBC2004A
:1042A00080F8241004EB840106F1380000EBC10013
:1042B00090F8242000E014E021463046FDF710FD80
:1042C00004EB840106F1380000EBC100007E80F0B1
:1042D000010104EB840206F1380000EBC200017614
:1042E0002EE105F5A06000EB4410806800F00200AC
:1042F000002871D005F5A06000EB4410C06820F0E4
:10430000020105F5A06000EB4410C16004EB8401DC
:1043100006F1380000EBC10090F82500012809D112
:10432000012104EB840206F1380000EBC20080F8A2
:10433000241069E004EB840106F1380000EBC100B1
:1043400090F82500052809D1052104EB840206F127
:10435000380000EBC20080F8241055E004EB840123
:1043600006F1380000EBC10090F82500062809D0BE
:1043700004EB840106F1380000EBC10090F8250041
:10438000082841D104EB840106F1380000EBC1009C
:1043900004EB8401026A06F1380000EBC100006AF8
:1043A000401C04EB840306F1380101EBC3010862F1
:1043B000032A12D9002104EB840206F1380000EB35
:1043C000C2000162042104EB840206F1380000EB14
:1043D000C20080F8241009E029E0022104EB8402E5
:1043E00006F1380000EBC20080F8241005F5A0604B
:1043F00000EB4410076827F0804747F0004705F5B9
:10440000A06000EB44100760022105F5A06000EBFE
:104410004410816004EB840106F1380000EBC10018
:1044200090F8242021463046FDF75AFC88E005F537
:10443000A06000EB4410806800F0800070B305F5C8
:10444000A06000EB4410C06840F0020105F5A060D8
:1044500000EB4410C16004EB840106F1380000EB6E
:10446000C100006A401C04EB840206F1380101EB34
:10447000C2010862062104EB840206F1380000EB59
:10448000C20080F825102146306809F044FB8021E5
:1044900005F5A06000EB4410816051E0FFE705F5F1
:1044A000A06000EB4410806800F01000E8B304EB5B
:1044B000840106F1380000EBC100C07903280FD158
:1044C00005F5A06000EB4410C06840F0020105F55E
:1044D000A06000EB4410C1602146306809F01BFB6E
:1044E000032104EB840206F1380000EBC20080F8DF
:1044F0002510102105F5A06000EB4410816004EB4D
:10450000840106F1380000EBC100C07940B104EB32
:10451000840106F1380000EBC100C07902280FD1F8
:1045200005F5A06000EB441000E009E0076827F003
:10453000804747F0004705F5A06000EB4410076096
:10454000BDE8F08170B505460C462E6806F5A06002
:1045500000EB4410806800F0040090B1042106F5DF
:10456000A06000EB4410816006F5A06000EB4410F1
:10457000C06840F0020106F5A06000EB4410C16085
:1045800047E206F5A06000EB4410806800F02000D0
:1045900088B3202106F5A06000EB4410816004EB95
:1045A000840105F1380000EBC10040790128E7D112
:1045B000042104EB840205F1380000EBC20080F80E
:1045C000251006F5A06000EB4410C06840F0020121
:1045D00006F5A06000EB4410C1602146286809F090
:1045E0009AFA022104EB840205F1380000EBC200C4
:1045F00080F824100DE2FFE706F5A06000EB441000
:10460000806800F0400038B3042104EB840205F117
:10461000380000EBC20080F82510002104EB840272
:1046200005F1380000EBC200016206F5A06000EB66
:104630004410C06840F0020106F5A06000EB441091
:10464000C1602146286809F066FA402106F5A0609D
:1046500000EB44108160DCE106F5A06000EB441043
:10466000806800F40070B8B106F5A06000EB44105B
:10467000C06840F0020106F5A06000EB4410C16084
:104680002146286809F047FA4FF4007106F5A0604A
:1046900000EB44108160BCE106F5A06000EB441023
:1046A000806800F0010030B3002104EB840205F1C2
:1046B000380000EBC200016206F5A06000EB441078
:1046C000C06840F0020106F5A06000EB4410C16034
:1046D0002146286809F01FFA012106F5A06000EBC9
:1046E0004410816004EB840205F1380000EBC20045
:1046F00080F825108DE106F5A06000EB441080687D
:1047000000F00800F8B1082106F5A06000EB4410A5
:10471000816006F5A06000EB4410C06840F0020123
:1047200006F5A06000EB4410C1602146286809F03E
:10473000F2F9052104EB840205F1380000EBC20018
:1047400080F8251065E106F5A06000EB4410806854
:1047500000F0100038B3002104EB840205F13800AA
:1047600000EBC200016206F5A06000EB4410C068D7
:1047700040F0020106F5A06000EB4410C160214644
:10478000286809F0C8F9032104EB840205F1380018
:1047900000EBC20080F82510102106F5A06000EBA8
:1047A0004410816035E106F5A06000EB441080689C
:1047B00000F08000F8B106F5A06000EB4410C0687E
:1047C00040F0020106F5A06000EB4410C1602146F4
:1047D000286809F0A0F9062104EB840205F13800ED
:1047E00000EBC20080F82510802106F5A06000EBE8
:1047F000441081600DE106F5A06000EB4410806874
:1048000000F4806028B306F5A06000EB4410C06897
:1048100040F0020106F5A06000EB4410C1602146A3
:10482000286809F078F9102106F5A06000EB441023
:104830008160890106F5A06000EB441081600821C9
:1048400004EB840205F1380000EBC20080F825106B
:10485000DFE006F5A06000EB4410806800F0020085
:1048600000287CD006F5A06000EB4410C06820F062
:10487000020106F5A06000EB4410C16004EB840166
:1048800005F1380000EBC10090F82500012822D185
:10489000012104EB840205F1380000EBC20080F82E
:1048A000241004EB840105F1380000EBC100C0794D
:1048B00002280FD104EB840105F1380000EBC100A0
:1048C000407E80F0010104EB840205F1380000EB2A
:1048D000C20041768BE004EB840105F1380000EB67
:1048E000C10090F82500032809D1022104EB8402BD
:1048F00005F1380000EBC20080F8241077E004EBEB
:10490000840105F1380000EBC10090F8250004286F
:1049100011D1022104EB840205F1380000EBC20042
:1049200080F82410002104EB840205F1380000EB2C
:10493000C20041715BE004EB840105F1380000EB3B
:10494000C10090F8250005280AD1052104EB840256
:1049500005F1380000EBC20080F8241047E058E071
:1049600004EB840105F1380000EBC10090F825004C
:10497000062809D004EB840105F1380000EBC100E2
:1049800090F82500082832D104EB840105F13800A5
:1049900000EBC10004EB8401026A05F1380000EB72
:1049A000C100006A401C04EB840305F1380101EBEF
:1049B000C3010862032A11D9002104EB840205F126
:1049C000380000EBC2000162042104EB840205F10F
:1049D000380000EBC20080F8241008E0022104EB4C
:1049E000840205F1380000EBC20080F82410022197
:1049F00006F5A06000EB4410816004EB840105F132
:104A0000380000EBC10090F8242021462846FDF72D
:104A100067F970BD7CB504462568D5F8400401905F
:104A2000D5F840040090009820F02E0000900198E6
:104A300000F00200022810D1019800F0010040B1FE
:104A40002068806920F00050216888612046FDF7C9
:104A500039F9009840F002000090019800F0080039
:104A6000082833D1009840F008000090019800F029
:104A7000040004281ED1A06902280FD1019800F477
:104A8000C020B0F5802F04D10221206809F0EDF894
:104A90000CE00121206809F0E8F807E0E06803284D
:104AA00004D14EF6602140F2044041512046FDF70A
:104AB00009F90BE0D5F8400420F02E00C5F84004B9
:104AC0002068806940F0005021688861019800F0FA
:104AD0002000202803D1009840F02000009000988A
:104AE000C5F840047CBD00002DE9F04705462F685D
:104AF0000024A046A1462868D0F8208008F00F04C2
:104B0000C8F3434AC8F30A16BAF1020F09D0BAF142
:104B1000030F66D0BAF1050F61D0BAF1070F5FD16C
:104B200060E0002E5AD004EB840105F1380000EB60
:104B3000C100C068E8B3B2B204EB840C05F13803DD
:104B400003EBCC03D968286809F0B4F804EB8401BE
:104B500005F1380000EBC100C068811904EB840244
:104B600005F1380000EBC200C16004EB840105F1DF
:104B7000380000EBC1004069811904EB840205F1A3
:104B8000380000EBC200416107F5A06000EB441063
:104B900000691649084060B107F5A06000EB4410B9
:104BA000D0F8009029F0804949F0004907F5A0604D
:104BB00000E013E000EB4410C0F8009004EB840127
:104BC00005F1380000EBC100007E80F0010104EB2C
:104BD000840205F1380000EBC200017603E002E038
:104BE00000BF00BF00BF00BFBDE8F0870000F81F96
:104BF00003A25421094802F0F3F800BFFEE70000C9
:104C00004861726477617265204350552069732052
:104C1000696E204552524F5221212100CB5A010882
:104C2000014608684069C0F3802088B16FF4806055
:104C30000A6850610420086400200863202081F87D
:104C40003D0000BF002081F83C0000BF01207047FC
:104C50000020FCE72DE9F84304460F461546994627
:104C6000DDE908862068006840F4806021680860FB
:104C70002068006840F48070216808604346002284
:104C80004FF001112046009600F02BF910B10320DF
:104C9000BDE8F88307F0FE0021680861334642460C
:104CA0004149204600F05BF930B1206C042801D165
:104CB0000120EDE70320EBE700BF00200090206813
:104CC0004069009020688069009000BF00BF3246B4
:104CD0004146204600F0D0F960B1206C042807D18D
:104CE0002068006840F40070216808600120CFE768
:104CF0000320CDE7B9F1010F03D1E8B221680861C3
:104D000019E0C5F307202168086132464146204674
:104D100000F0B2F960B1206C042807D12068006867
:104D200040F40070216808600120B1E70320AFE77C
:104D3000E8B22168086132464146204600F09CF9FD
:104D400060B1206C042807D12068006840F400702E
:104D50002168086001209BE7032099E7206800682C
:104D600040F4807021680860434600224FF0011132
:104D70002046009600F0B5F808B1032088E7F8B2A5
:104D800040F001002168086133464246064920464A
:104D900000F0E5F830B1206C042801D1012077E75C
:104DA000032075E7002073E7020001002DE9F843B6
:104DB0000446884615469946DDE90867206800687C
:104DC00040F4807021680860334600224FF00111E2
:104DD0002046009700F085F810B10320BDE8F88365
:104DE00008F0FE00216808613B463246264920460D
:104DF00000F0B5F830B1206C042801D10120EDE7B6
:104E00000320EBE700BF002000902068406900907D
:104E100020688069009000BF00BF3A4631462046B6
:104E200000F02AF960B1206C042807D120680068DE
:104E300040F40070216808600120CFE70320CDE72F
:104E4000B9F1010F03D1E8B22168086119E0C5F397
:104E50000720216808613A463146204600F00CF9E7
:104E600060B1206C042807D12068006840F400700D
:104E7000216808600120B1E70320AFE7E8B22168AC
:104E800008610020AAE700000200010070B5044696
:104E90000D4616461DE02046FFF7C2FE08B1012070
:104EA00070BD681CA8B125B1FCF706FF801BA842A5
:104EB0000FD9206C40F020002064002020632020C7
:104EC00084F83D0000BF002084F83C0000BF0320B0
:104ED000E6E720684069C0F380000028DBD00020AE
:104EE000DEE72DE9F04104460D4617461E46DDF883
:104EF000188017E0701CA8B12EB1FCF7DDFEA0EB06
:104F00000800B0420ED900202063202084F83D0024
:104F1000002084F83E0000BF84F83C0000BF03205E
:104F2000BDE8F081C5F3074001280AD12068406937
:104F3000A9B20840A9B2884201D101200BE00020AB
:104F400009E020688069A9B20840A9B2884201D16D
:104F5000012000E00020B842CCD00020E0E72DE99D
:104F6000F04104460D4616461F4631E02068406970
:104F7000C0F38020C0B12068006840F40070216850
:104F800008606FF48060216848610420206400207C
:104F90002063202084F83D0000BF002084F83C00FE
:104FA00000BF0120BDE8F081701C88B126B1FCF77C
:104FB00083FEC01BB0420BD900202063202084F860
:104FC0003D0000BF002084F83C0000BF0320E9E75B
:104FD000C5F3074001280AD120684069A9B20840FA
:104FE000A9B2884201D101200BE0002009E020682D
:104FF0008069A9B20840A9B2884201D1012000E02D
:1050000000200028B2D00020CCE770B504460D4641
:10501000164629E020684069C0F3001080B16FF0A7
:10502000100021684861002020642063202084F85B
:105030003D0000BF002084F83C0000BF012070BD8F
:1050400025B1FCF739FE801BA8420DD9206C40F039
:1050500020002064202084F83D0000BF002084F858
:105060003C0000BF0320EAE720684069C0F38010DD
:105070000028CFD00020E2E770B504460D46164662
:105080001DE02046FFF7CCFD08B1012070BD681C73
:10509000A8B125B1FCF710FE801BA8420FD9206CE7
:1050A00040F02000206400202063202084F83D0090
:1050B00000BF002084F83C0000BF0320E6E7206822
:1050C0004069C0F3C0100028DBD00020DEE70000FC
:1050D0001FB51848184908604FF440304860002157
:1050E00015488160012101618161002101624162F5
:1050F000C162124981620021C1600121C161016365
:1051000000214161FCF776F818B14C210CA008F0A1
:105110003BFE042000900120019007200290694688
:105120000548FBF7C3FE18B1562105A008F02CFE78
:105130001FBD00000020014070F900200100000F99
:105140002E2E5C5372635C6164632E63000000006A
:1051500008B500BF002000902648006840F4800099
:10516000244908600846006800F48000009000BFF1
:1051700000BF00BF002000900846006840F4001007
:1051800008600846006800F40010009000BF00BFEF
:10519000002208210F20FDF700FB0F20FDF7F0FA99
:1051A000002203211020FDF7F8FA1020FDF7E8FA9D
:1051B000002204211120FDF7F0FA1120FDF7E0FA9A
:1051C000002205210C20FDF7E8FA0C20FDF7D8FAA3
:1051D000002206210E20FDF7E0FA0E20FDF7D0FA9E
:1051E00000220A213B20FDF7D8FA3B20FDF7C8FA40
:1051F00008BD00003038024000B587B000BF002075
:1052000001908248006840F08000804908600846AC
:10521000006800F08000019000BF00BF00BF0020C8
:1052200001900846006840F00400086008460068E5
:1052300000F00400019000BF00BF00BF00200190FB
:105240000846006840F0010008600846006800F069
:105250000100019000BF00BF00BF00200190084680
:10526000006840F0020008600846006800F0020094
:10527000019000BF00BF012204216548FCF716FD24
:10528000012208216248FCF711FD01220821604833
:10529000FCF70CFD012211025E48FCF707FD00221D
:1052A0004FF400415B48FCF701FD002204215A48FD
:1052B000FCF7FCFC00224FF480515748FCF7F6FC49
:1052C000002241F204015448FCF7F0FC00220321C3
:1052D0005048FCF7EBFC002204214F48FCF7E6FCA9
:1052E000002202214C48FCF7E1FC01224021484801
:1052F000FCF7DCFC042002900120039004900020C5
:10530000059002A94248FCF7CDFB0820029001203D
:10531000039004900020059002A93D48FCF7C2FBD1
:10532000082002900120039004900020059002A91B
:105330003748FCF7B7FB4FF4004002900120039080
:1053400004900020059002A93248FCF7ABFB4FF413
:1053500080700290012003900220049000200590AC
:1053600002A92C48FCF79EFB042002900120039028
:1053700004900020059002A92748FCF793FB4FF406
:10538000805002900120039004900020059002A913
:105390002148FCF787FB41F20400029001200390B2
:1053A00004900020059002A91B48FCF77BFB03201A
:1053B00002900120039004900020059002A9154856
:1053C000FCF770FB04200290012003900490002061
:1053D000059002A91048FCF765FB0220029001200D
:1053E000039004900020059002A90B48FCF75AFB9B
:1053F000402002900120039004900020059002A913
:105400000348FCF74FFB07B000BD000030380240F6
:1054100000080240000002400004024010B50C48A1
:105420000C4908600C48486000210A488160C1604E
:105430004FF480410161002141618161C1610162DC
:10544000FCF75EFD18B1432104A008F09DFC10BDDF
:105450000054004064F40020801A06002E2E2F53C2
:1054600072632F6932632E630000000010B50C4890
:105470000C4908600C48486000210A488160C160FE
:105480004FF480410161002141618161C16101628C
:10549000FCF736FD18B1562104A008F075FC10BDCC
:1054A00000580040B8F40020400D03002E2E2F536A
:1054B00072632F6932632E630000000010B5002272
:1054C00009211C20FDF769F91C20FDF759F900227C
:1054D00011463620FDF761F93620FDF751F900221B
:1054E00008213720FDF759F93720FDF749F910BD9C
:1054F00010B50F480F4908604FF4827048600021D2
:105500000C488160C16002210161012141614902B1
:1055100081610021C1610162416281620721C16232
:10552000FDF7AEFD18B14A2103A008F02DFC10BD17
:10553000003001400CF500202E2E2F5372632F7384
:1055400070692E630000000010B50F480F49086015
:105550004FF48270486000210C488160C1600221D4
:10556000016101214161490281610021C161016242
:10557000416281620721C162FDF782FD18B161219C
:1055800003A008F001FC10BD0038004064F50020C5
:105590002E2E2F5372632F7370692E63000000004C
:1055A0001CB54FF080400F4908604AF20F40486038
:1055B00000210C488160C721C160FEF705F818B1D1
:1055C0003D2109A008F0E0FB002000900190694611
:1055D0000448FDF7C8FF18B1442103A008F0D4FB2C
:1055E0001CBD00007CF600202E2E2F5372632F74FA
:1055F000696D2E63000000001CB50F480F4908605C
:1056000042F2CF00486000210C488160C721C16090
:10561000FDF7DAFF18B1542109A008F0B5FB00200E
:105620000090019069460548FDF79DFF18B15B2188
:1056300003A008F0A9FB1CBD00100040B8F6002034
:105640002E2E2F5372632F74696D2E63000000009D
:105650001CB50F480F49086042F2CF004860002196
:105660000C488160C721C160FDF7AEFF18B16B2106
:1056700009A008F089FB00200090019069460548C8
:10568000FDF771FF18B1722103A008F07DFB1CBD6E
:1056900000140040F4F600202E2E2F5372632F7456
:1056A000696D2E630000000010B50C480C490860BD
:1056B0004FF461204860002109488160C1600161A8
:1056C0000C21416100218161C161FEF72BFA18B103
:1056D000492104A008F058FB10BD00000010014053
:1056E00030F700202E2E2F5372632F757361727462
:1056F0002E63000010B50C480C4908604FF416509A
:105700004860002109488160C16001610C2141614C
:1057100000218161C161FEF705FA18B15C2104A086
:1057200008F032FB10BD00000044004070F700207C
:105730002E2E2F5372632F75736172742E630000C7
:1057400010B50C480C4908604FF4E1304860002166
:1057500009488160C16001610C21416100218161C2
:10576000C161FEF7DFF918B16F2104A008F00CFB4E
:1057700010BD000000480040B0F700202E2E2F532F
:1057800072632F75736172742E63000000BFFEE7B1
:105790007047000002480068C0F302207047000014
:1057A0000CED00E010B5002807DA0A07140E054AD0
:1057B00000F00F031B1FD45403E00A07130E024A24
:1057C000135410BD18ED00E000E400E010B50248ED
:1057D000FCF787FA10BD000018FA0020704700009F
:1057E00010B50748C07A012804D100210448C172CD
:1057F00000F044F800F0FAF8014880ED0F0A10BDFF
:10580000F000002010B5002400F0BEF834B12346AB
:1058100006A2BB210F4801F0E3FA04E00EA2BF216B
:105820000C4801F02DFB204610BD0000426174744D
:10583000657279206D6F64756C6520696E6974207E
:10584000697320696E206572726F72282564292140
:1058500000000000D21E0108426174746572792054
:105860006D6F64756C6520696E6974206973206959
:105870006E20737563636573732E000030B585B059
:105880000024002514216846FAF793FD3848007873
:10589000401C3749087008460078052818D10020B8
:1058A000087000BF0DE0334830F8140004EB8401A9
:1058B000314A02EBC101314A127821F81200601C12
:1058C000C4B2052CEFDB2D480078401C2B49087032
:1058D0002A480078142848D100202849087000245C
:1058E00041E000204DF8240000250DE004EB840089
:1058F000214901EBC00030F815005DF82410084480
:105900004DF82400681CC5B2142DEFDB5DF82400AF
:105910001421B0FBF1F0174921F8140084B10846B6
:1059200030F8140000EE100AB8EE400ADFED140A59
:1059300020EE200A134800EB840080ED000A10E0FE
:105940000C4830F81400800000EE100AB8EEC00ACF
:10595000DFED0B0A20EE200A0A4800EB840080ED00
:10596000000A601CC4B2052CBBDB05B030BD0000D2
:105970009D000020740300207E0300209C00002076
:105980003333533A8800002010B5052208490948EE
:10599000FBF7C2FC18B1222107A008F0F5F9124864
:1059A000FDF770FE18B1272103A008F0EDF910BD36
:1059B0007403002070F900202E2E5C526F626F7409
:1059C0005C526F63526F626F744472697665725C89
:1059D000526F63426174746572795C526F634261A5
:1059E00074746572792E6300F4F60020014890ED1E
:1059F000000A70478800002070B504460D4600BFBD
:105A00000C4800880028FBD14FF6FF70844202D179
:105A10000849088004E00120C0EB440005490880E3
:105A20004FF6FF7101EA450000F064F800F046F817
:105A300070BD00008200002010B5002400F034F892
:105A400000F0C0F82CB106A2F7210D4801F0C8F90A
:105A500004E00CA2FB210A4801F012FA204610BD16
:105A6000426565706572206D6F64756C6520696E46
:105A7000697420697320696E206572726F722100EB
:105A8000731E0108426565706572206D6F64756CE8
:105A90006520696E697420697320696E207375636F
:105AA000636573730000000010B500224FF40041DD
:105AB0000148FCF7FBF810BD0000024010B50122C0
:105AC000D1030248FCF7F2F810BD000000000240CC
:105AD00010B507480088002807DD05480088401EEB
