:020000040800F2
:10000000002700209D010008613800089930000891
:100010005D38000825090008154E000800000000A2
:10002000000000000000000000000000A7450008DC
:10003000A30A0008000000009D380008A945000838
:10004000B7010008B7010008B7010008B7010008B0
:10005000B7010008B7010008B7010008A70A0008A7
:10006000B7010008B7010008B7010008B701000890
:1000700029090008B70100083909000849090008E2
:100080005909000869090008B9070008B701000804
:10009000B7010008B7010008B7010008A90A000865
:1000A000B7010008B7010008B7010008B701000850
:1000B000F9460008B7010008B7010008B7010008B9
:1000C000B7010008B7010008B7010008F9430008AC
:1000D00009440008B7010008F14D0008054E00086A
:1000E000A50A0008B7010008B7010008B701000819
:1000F000B7010008B7010008B7010008B701000800
:10010000B7010008B7010008B7010008B7010008EF
:10011000B7010008B701000809470008194700089F
:1001200079090008B7010008B7010008890900082B
:10013000B70100080000000000000000B70100083F
:10014000B7010008B7010008B7010008B7010008AF
:10015000B7010008B7010008B7010008B70100089F
:10016000B7010008B7010008B7010008B70100088F
:10017000B7010008B70100080000000000000000FF
:10018000B7010008B7010008DFF80CD000F048FA0A
:1001900000480047B1570008002700200648804764
:1001A00006480047FEE7FEE7FEE7FEE7FEE7FEE75C
:1001B000FEE7FEE7FEE7FEE7954600088901000836
:1001C0002DE9F05F0546002092469B46884606468C
:1001D000814640241BE0284641464746224600F01F
:1001E00057F853465A46C01A914110D31146184643
:1001F000224600F03EF82D1A67EB01084F462246D2
:100200000120002100F035F817EB00094E41201EB7
:10021000A4F10104DFDC484631462A464346BDE8E6
:10022000F09FD2B201E000F8012B491EFBD27047CB
:100230000022F6E710B513460A4604461946FFF7B2
:10024000F0FF204610BD30B50B46014600202022AD
:10025000012409E021FA02F59D4205D303FA02F5D3
:10026000491B04FA02F52844151EA2F10102F1DC33
:1002700030BD202A04DB203A00FA02F1002070474A
:100280009140C2F1200320FA03F3194390407047D4
:10029000202A04DB203A21FA02F00021704721FADB
:1002A00002F3D040C2F12002914008431946704742
:1002B0002DE9FE4F804681EA0300C00F0C460090F6
:1002C00021F0004123F00045B8EB0200A94105D21E
:1002D0004046214690461C460B46024623F000400D
:1002E000104347D0270DC7F30A00C3F30A51029009
:1002F000401A019040286BDAC3F3130040F4801BCE
:100300000098924620B10023D2EB030A63EB0B0B5B
:1003100001985946C0F140025046FFF7AAFF064631
:100320000D4650465946019A00F08CF910EB080032
:100330006141002487EA115284EAE7731A4340D0EE
:10034000009A62B3019A012A4FEA075215DC001B9A
:1003500061EB02014FF0004202EA0752CDE9004290
:10036000001C41F5801132462B4600F08CF903B099
:10037000BDE8F08F40462146F9E7001B61EB020122
:10038000001C41F5801300185B412018A2F50017EE
:1003900047EB030140EAD570B6196D4111E06D08D5
:1003A0004FEA360645EAC0754FEA0752001B61EB7B
:1003B0000201001C41F5801149084FEA3000001984
:1003C000514132462B4603B0BDE8F04F00F04CB926
:1003D0000098012240000023D0EB020263EBE0739F
:1003E000009821464FEAE074B8EB000061EB04018D
:1003F000E9E783F000435BE781F0004158E72DE92E
:10040000FE4F81EA030404F0004421F0004100940F
:100410004FF0000B23F0004350EA01045ED052EA93
:1004200003045BD0C3F30A54C1F30A552C44A4F26D
:10043000F3340194A0FB0254C1F3130141F4801181
:10044000C3F3130343F4801301FB024400FB034E88
:10045000840A970A44EA815447EA8357A4FB076851
:1004600002958D0A05FB07854FEA932C04FB0C547B
:100470002705029D4FEA065847EA1637B5EB0805EF
:100480006EEB070C870E920E47EA811742EA831241
:10049000A7FB0201B6EB0B0164EB00042B0D43EA52
:1004A0000C335E1844EB1C50DA465146E7FB020160
:1004B000C5F313044FEA0B3343EA14534FEA0432F3
:1004C000019C43EA0603A4F10C040294009CCDE9CC
:1004D00000B400F0D8F803B0BDE8F08F002001466A
:1004E000F9E72DE9F04D81EA030404F0004B21F017
:1004F000004514464FF0000A23F0004150EA05027F
:1005000020D054EA01021DD0C5F30A570246C5F3B4
:100510001303C1F31300C1F30A5640F4801543F4EA
:100520008013A7EB0608101BD64608F2FD3873EBC4
:10053000050002D308F1010801E092185B41B8F10F
:10054000000F03DA00200146BDE8F08D00204FF4D3
:100550008011064684460EE0171B73EB050705D392
:10056000121B63EB050306434CEA010C49084FEAF2
:10057000300092185B4150EA0107EDD152EA0300C6
:1005800012D082EA040083EA0501084305D0101B5B
:10059000AB4106D20122002306E000224FF00043C7
:1005A00002E06FF0010253101AEB06004CEB085109
:1005B00010EB0A0041EB0B01BDE8F04D00F054B820
:1005C000C1F30A52C1F3130140F2FF3341F4801129
:1005D0009A4202DA00200146704740F233439A42C1
:1005E000A2F2334202DC5242FFF752BEFFF741BE95
:1005F00030B5041E71F1000404DB4FF000444042AA
:1006000064EB0101141E73F1000405DB1C464FF07E
:100610000043524263EB0403994208BF904230BD4D
:10062000064C074D06E0E06840F0010394E807003F
:1006300098471034AC42F6D3FFF7AAFD2C7B000894
:100640004C7B0008202A06DBCB17203A41FA02F047
:1006500043EAE07306E041FA02F3D040C2F120021F
:10066000914008431946704710B5141E73F10004F9
:1006700008DA401C41F1000192185B411A4301D194
:1006800020F0010010BD2DE9F04D92469B4611B1BE
:10069000B1FA81F202E0B0FA80F220329046FFF720
:1006A000E8FD04460F4640EA0A0041EA0B015346C2
:1006B0005A46084313D0114653EA010019D0C8F135
:1006C00040025046FFF7E4FD05460E4650465946A7
:1006D0004246FFF7CEFD084305D0012004E0204646
:1006E0003946BDE8F08D0020054346EAE0762C430C
:1006F00037430A986305E40AA0EB08000022FD0ACC
:1007000044EA47540A3002D500200146E9E70105D2
:1007100010196941DDE9084500196941BDE8F04D4E
:10072000A2E770B50546AC6B206C00F0500050BBE2
:10073000206C40F4007020642068806800F0405015
:10074000E8B9A069D8B92068C06A00F4700020B187
:100750002068806800F4806088B92068406820F0D4
:10076000200021684860206C20F480702064206C98
:1007700000F4805018B9206C40F00100206420463D
:1007800000F05AFA03E0A06BC16C2846884770BDA0
:1007900070B50546AC6B40202064606C40F00400EE
:1007A0006064204600F06BFA70BD70B50446A56B1E
:1007B000284600F063FA70BD10B5024800F060FAF8
:1007C00010BD00005406002054494A6822F440320B
:1007D0004A604A6843681A434A600268526822F4D1
:1007E000807203685A6002685368026943EA022211
:1007F00003685A600268526822F0407203685A60C7
:100800000268526883681A4303685A6002689268F3
:1008100022F4006203689A6002689268C3681A430F
:1008200003689A603E4B826A9A4218D002689268C6
:1008300022F0706203689A6002689268836A1A43C1
:1008400003689A600268926822F0405203689A60D6
:1008500002689268C36A1A4303689A600BE00268F0
:10086000926822F0706203689A600268926822F0CF
:10087000405203689A600268926822F0020203689C
:100880009A6002689368826943EA420203689A6048
:10089000026AA2B10268526842F4006203685A60B8
:1008A0000268526822F4604203685A600268536822
:1008B000426A521E43EA423203685A6005E0026807
:1008C000526822F4006203685A600268D26A22F415
:1008D00070020368DA620268D36A828B521E43EAAE
:1008E00002520368DA620268926822F400720368B6
:1008F0009A6002689368026B43EA422203689A6036
:100900000268926822F4806203689A6002689368C1
:10091000426943EA822203689A60704700230140DB
:100920000100000F00BFFEE710B5024800F02CFCEC
:1009300010BD00009405002010B5024800F024FC12
:1009400010BD0000F405002010B5024800F01CFCAA
:1009500010BD00000003002010B5024800F014FC98
:1009600010BD0000D404002010B5024800F00CFCBB
:1009700010BD00003405002010B5024800F004FC52
:1009800010BD00009C06002010B5024800F0FCFBE2
:1009900010BD0000A002002001460878103818237E
:1009A000B0FBF3F20848805CC865032A05D90868E3
:1009B0006FF30900001D886503E008686FF3090004
:1009C0008865886D70470000FC57000801460020CC
:1009D0008A6A8B69CBB932B1012A0DD0022A03D0C1
:1009E000032A10D10EE000BFCB6A03F08073B3F18D
:1009F000807F00D1012007E0CB6AB3F1C07F00D136
:100A0000012001E000E000BF34E08B69B3F5005F36
:100A10001AD132B1012A07D0022A03D0032A11D1F8
:100A20000AE000BF01200EE0CB6A03F08073B3F14F
:100A3000807F00D1012006E0CB6AB3F1C07F00D1F6
:100A4000012000E000BF15E032B1012A05D0022AE2
:100A500004D0032A0CD103E000BF00BF012008E04E
:100A6000CB6A03F08073B3F1807F00D1012000E0F6
:100A700000BF00BF704730B50468246824F48024A8
:100A800005682C60046863608468402C04D10468A5
:100A9000A2600468E16003E00468A1600468E260A9
:100AA00030BD7047704770477047704738B5024691
:100AB0000020009000BF92F83C00012801D10220E4
:100AC00038BD012082F83C0000BF0868092816D90B
:100AD0001068C0680C780A3C04EB44050724AC405D
:100AE000A0431468E0600C780A3C04EB4404886876
:100AF000A0401468E46820431468E06013E01068C4
:100B000000690C7804EB44050724AC40A04314684A
:100B100020610C7804EB44048868A04014682469C0
:100B20002043146820614868072817D21068406B7A
:100B30000C79641E04EB84051F24AC40A0431468A8
:100B40006063088880B20C79641E04EB8404A040C2
:100B50001468646B20431468606331E048680D28B2
:100B600017D21068006B0C79E41F04EB84051F2476
:100B7000AC40A04314682063088880B20C79E41F5D
:100B800004EB8404A0401468246B204314682063A1
:100B900016E01068C06A0C790D3C04EB84051F2434
:100BA000AC40A0431468E062088880B20C790D3C28
:100BB00004EB8404A0401468E46A20431468E062F3
:100BC000194B1A4C1068A04206D10868122803D1AC
:100BD000586840F480005860144C1068A0421CD142
:100BE0000868102802D00868112816D1586840F407
:100BF00000005860086810280FD10D4800680D4C9F
:100C0000B0FBF4F000EB80004000009002E00098A0
:100C1000401E009000980028F9D100BF002082F803
:100C20003C0000BF00BF4BE7002301400020014013
:100C30000C00002040420F0010B504460549206812
:100C4000884205D1044B05A2A6210B4803F0F4F914
:100C500010BD0000002001403C0000204144432022
:100C6000636F6E7665727420737563636573732842
:100C70002564292E000000002D5800087047704799
:100C800070B504460025002620680068C0F34005C2
:100C900020684068C0F3401695B38EB3206C00F016
:100CA000100018B9206C40F400702064206880683F
:100CB00000F04050E8B9A069D8B92068C06A00F4D3
:100CC000700020B12068806800F4806088B92068D6
:100CD000406820F0200021684860206C20F480707B
:100CE0002064206C00F4805018B9206C40F00100A2
:100CF00020642046FFF7A0FF6FF012002168086013
:100D000020680068C0F3800520684068C0F3C01602
:100D1000E5B3DEB3206C00F0100018B9206C40F48D
:100D2000005020642068806800F4401038BB2068C0
:100D3000806B00F4401020B12068806800F480606F
:100D4000E8B92068406800F48060C0B92068806815
:100D500000F0405098B9A06988B92068406820F038
:100D6000800021684860206C20F480502064206C52
:100D700000F4807018B9206C40F001002064204617
:100D8000FFF793FE6FF00C00216808602068006890
:100D900000F0010520684068C0F3801685B17EB17F
:100DA0002068006800F0010050B1206C40F48030F1
:100DB0002064204600F052F86FF0010021680860BE
:100DC00020680068C0F3401520684068C0F3806662
:100DD0007DB176B1606C40F0020060646FF020007D
:100DE000216808602046FFF74AFF6FF02000216865
:100DF000086070BD70B5044600250CB9012070BDB7
:100E00001549A06A884200D000BF206C30B900208C
:100E1000606484F83C00204600F022F8206C00F06A
:100E2000100088B9206C20F4885040F00200206443
:100E30002046FFF7C9FC00206064206C20F002000F
:100E400040F00100206400E0012500BF002084F88C
:100E50003C0000BF2846D2E70100000F70470000A9
:100E600010B586B0044637492068884268D100BF73
:100E7000002000903448006840F4807032490860D7
:100E80000846006800F48070009000BF00BF10208A
:100E90000190032002900020039001A92B4800F04C
:100EA00079FB01200190032002900020039001A90A
:100EB000264800F06FFB02200190032002900020E2
:100EC000039001A9214800F065FB01200190032057
:100ED00002900020039001A91D4800F05BFB022056
:100EE0000190032002900020039001A9184800F00F
:100EF00051FB184818490860002048600021164836
:100F00008160C1604FF480610161490041618900E5
:100F100081614911C161090201620021416201211F
:100F200081620021C162016300F04EFA18B1B32161
:100F30000AA003F071FF00BF0748A063846300BFED
:100F400006B010BD002001404438024000000240BD
:100F500000040240106402409C0600202E2E5C53C8
:100F600072635C6164632E6300000000F8B50446A0
:100F70000D4616460020009000BF94F83C00012862
:100F800001D10220F8BD012084F83C0000BF206898
:100F9000806800F00100A0B92068806840F001007E
:100FA000216888603C4800683C49B0FBF1F000EBE8
:100FB0004000009002E00098401E00900098002839
:100FC000F9D12068806800F00100002862D0206C10
:100FD00040F20161884340F48070206420684068DA
:100FE00000F4806028B1206C20F4005040F4805060
:100FF0002064206C00F4805020B1606C20F006006A
:10100000606401E00020606400BF002084F83C00C0
:1010100000BF234F2348A16BC8632348A16B08641A
:101020002248A16BC8646FF0220021680860206824
:10103000406840F08060216848602068806840F423
:10104000807021688860226802F14C0133462A468C
:10105000A06B00F02FFA786800F01F0058B92068E4
:10106000806800F0405028B92068806840F08040D7
:10107000216888600EE00E49206888420AD1206805
:10108000806800F0405028B92068806840F08040B7
:1010900021688860002075E70C00002040420F00A6
:1010A0000023014023070008AB0700089107000850
:1010B0000020014070B50446A56D00F07DFB06469A
:1010C00094F83500022808D08020606500BF002019
:1010D00084F8340000BF012070BD2068006820F053
:1010E0001600216808602068406920F080002168AF
:1010F0004861206C08B9A06C28B12068006820F015
:101100000800216808602068006820F0010021685C
:1011100008600FE000F050FB801B05280AD9202052
:10112000606500BF002084F8340000BF032084F80D
:101130003500D1E72068006800F001000028E9D1FF
:1011400094F85C103F208840A86000BF002084F81D
:10115000340000BF012084F835000020BCE70146C0
:1011600091F83500022803D080204865012070479F
:10117000052081F835000868006820F001000A6841
:1011800010600020F3E70000F8B50446002000904E
:101190008C4800684FF41651B0FBF1F7A56D2E682E
:1011A00094F85C1008208840304098B120680068AE
:1011B00000F0040070B12068006820F0040021688D
:1011C000086094F85C1008208840A860606D40F0CA
:1011D0000100606594F85C1001208840304068B1DF
:1011E0002068406900F0800040B194F85C10012054
:1011F0008840A860606D40F00200606594F85C1063
:1012000004208840304068B12068006800F0020087
:1012100040B194F85C1004208840A860606D40F0F4
:101220000400606594F85C1010208840304078B36A
:101230002068006800F0080050B394F85C1010209B
:101240008840A8602068006800F4802080B1206891
:10125000006800F4002028B9206CC8B12046216C39
:10126000884715E0A06C98B12046A16C88470FE034
:101270002068006800F4807028B92068006820F0B9
:10128000080021680860206C10B12046216C884756
:1012900094F85C10202088403040002865D02068F9
:1012A000006800F0100000285FD094F85C10202047
:1012B0008840A86094F83500052828D12068006887
:1012C00020F01600216808602068406920F0800046
:1012D00021684861206C08B9A06C28B120680068BA
:1012E00020F008002168086094F85C103F208840D6
:1012F000A86000BF002084F8340000BF012084F8FB
:101300003500206D10B12046216D8847F8BD20685A
:10131000006800F4802080B12068006800F400209C
:1013200028B9606C10B12046616C88471DE0E06B05
:10133000D8B12046E16B884717E02068006800F4C8
:10134000807068B92068006820F01000216808608B
:1013500000BF002084F8340000BF012084F835006D
:10136000E06B10B12046E16B8847606D38B3606D6B
:1013700000F00100F0B1052084F835002068006815
:1013800020F001002168086000BF0098401C009018
:10139000B84200D905E02068006800F0010000288C
:1013A000F3D100BF00BF002084F8340000BF01204B
:1013B00084F83500E06C10B12046E16C884700BF2E
:1013C000A4E700000C0000202DE9F04104460025B0
:1013D00000F0F2F9074614B90120BDE8F081606A17
:1013E00000B100BF00BF002084F8340000BF02201D
:1013F00084F835002068006820F00100216808604A
:101400000AE000F0D9F9C01B052805D92020606545
:10141000032084F83500E0E72068006800F0010050
:101420000028EED12068056821480540D4E9010173
:101430000843E16808432169084361690843A169D9
:101440000843E1690843216A08430543606A0428A8
:1014500003D1D4E90B0108430543206805602068E7
:10146000456925F00705606A0543606A04280DD1C7
:10147000A06A0543E06A48B12046FFF7A7FA28B101
:1014800040206065012084F83500A6E720684561AA
:101490002046FFF781FA064694F85C103F2088400A
:1014A000B06000206065012084F83500002094E7DA
:1014B0003F8010F02DE9F04704460D4616461F46C2
:1014C0004FF00008D4F8589000BF94F83400012879
:1014D00002D10220BDE8F087012084F8340000BF6B
:1014E00094F8350001282BD1022084F83500002023
:1014F00060653B46324629462046FFF7BCFA94F821
:101500005C103F208840C9F808002068006840F05F
:101510001600216808602068406940F0800021685A
:101520004861206C28B12068006840F008002168FC
:1015300008602068006840F001002168086006E04B
:1015400000BF002084F8340000BF4FF0020840467E
:10155000C0E700002DE9F041044600F02DF90646F1
:10156000254600F00DFC4FF47A71B0FBF1F73846D8
:1015700001F0C9F8681C10B105480078054400BFA7
:1015800000F01AF9801BA842FAD3BDE8F0810000F0
:1015900008000020F8B502460B4600250024002074
:1015A0000021DCE0012606FA01F51E6806EA0504C2
:1015B000AC4273D15E68022E02D05E68122E13D147
:1015C000CF0802F1200656F827004E07F70E0F2627
:1015D000BE40B0434F07FF0E1E69BE403043CF08E8
:1015E00002F1200646F8270010684F000326BE408F
:1015F000B0431E7906F003064F00BE403043106032
:101600005E68012E08D05E68022E05D05E68112E3D
:1016100002D05E68122E13D190684F000326BE40A0
:10162000B0434F00DE68BE403043906050680126F2
:101630008E40B0431E79C6F300168E403043506092
:10164000D0684F000326BE40B0434F009E68BE40A6
:101650003043D0605E6806F08056B6F1805F7DD181
:1016600000BF00260096404E366846F480463E4F46
:101670003E603E46366806F48046009600BF00BFD6
:101680003A4E8F0856F827008E07370F0F26BE40B8
:10169000B043374EB24202D1002624E05EE0354E20
:1016A000B24201D101261EE0334EB24201D10226E0
:1016B00019E0324EB24201D1032614E0304EB2425C
:1016C00001D104260FE02F4EB24201D105260AE0D7
:1016D0002D4EB24201D1062605E02C4EB24201D178
:1016E000072600E008268F073F0FBE4030431F4EFD
:1016F0008F0846F82700264E3068A0435E6806F43F
:101700008036B6F5803F00D12043214E3060361D33
:101710003068A0435E6806F40036B6F5003F00D19D
:1017200020431B4E361D3060361D3068A0435E6876
:1017300006F48016B6F5801F00D12043144E0836FB
:101740003060361D3068A0435E6806F40016B6F5BA
:10175000001F00D120430E4E0C363060491C10296A
:10176000FFF420AFF8BD00004438024008380140C3
:10177000000002400004024000080240000C024049
:10178000001002400014024000180240001C0240F9
:10179000003C0140024613690B400BB1012000E000
:1017A0000020704742694A40426170470AB1816136
:1017B00001E00B0483617047014800687047000036
:1017C0000000002070B50446002600250CB9012059
:1017D00070BD94F83D0028B9002084F83C002046F4
:1017E00000F084F8242084F83D002068006820F090
:1017F00001002168086000F0C9FA05463948B5FBC8
:10180000F0F62068466038496068884201D8701C4C
:1018100007E04FF4967070434FF47A71B0FBF1F02B
:10182000401C216808623049606888420ED86068B0
:101830004000B5FBF0F0C0F30B00042801D20420F7
:101840002DE060684000B5FBF0F028E0A06828B902
:10185000606800EB4000B5FBF0F008E0606800EB6A
:10186000C00101EB0010B5FBF0F040F48040C0F384
:101870000B0008B9012012E0A06828B9606800EBED
:101880004000B5FBF0F008E0606800EBC00101EB40
:101890000010B5FBF0F040F4804040F400402168B7
:1018A000C861D4E90701084321680860D4E903103E
:1018B000084321688860D4E9050108432168C860AD
:1018C0002068006840F00100216808600020206462
:1018D000202084F83D000020206384F83E0000BFF3
:1018E00076E7000040420F00A086010010B586B0E8
:1018F00004464049206888423AD100BF0020009049
:101900003D48006840F400103B4908600846006804
:1019100000F40010009000BF00BFC0200190012023
:10192000029003900320049001A93448FFF732FE8F
:10193000012206213148FFF739FF012207212F48F4
:10194000FFF734FF4FF40040216808600020216851
:101950000860C02001901220029001200390032013
:1019600004900420059001A92448FFF713FE3FE0EE
:101970002349206888423BD100BF002000901E48C8
:10198000006840F480001C4908600846006800F4C4
:101990008000009000BF00BF4FF440600190012024
:1019A000029003900320049001A91448FFF7F2FD70
:1019B00001220A211148FFF7F9FE01220B210F48ED
:1019C000FFF7F4FE4FF40040216808600020216812
:1019D00008604FF4406001901220029001200390B3
:1019E000032004900420059001A90448FFF7D2FDCC
:1019F00006B010BD005400404038024000040240D0
:101A00000058004003480068034909780844014928
:101A100008607047000000200800002010B50D4845
:101A2000006840F400700B4908600846006840F404
:101A3000806008600846006840F4807008600320F9
:101A400000F0CAF8002000F007F800F02BF80020A2
:101A500010BD0000003C024070B504460E480078FE
:101A60004FF47A71B1FBF0F00C490968B1FBF0F565
:101A7000284600F048FE08B1012070BD102C07D2A6
:101A800000222146501E00F068F80548046001E07D
:101A90000120F2E70020F0E7080000200C00002001
:101AA0000400002008B500BF002000902348006813
:101AB00040F48040214908600846006800F48040F6
:101AC000009000BF00BF00BF00200090081F00680A
:101AD00040F08050091F08600846006800F0805000
:101AE000009000BF00BF032000F076F800221146EE
:101AF0006FF00B0000F031F8002211466FF00A0081
:101B000000F02BF8002211466FF0090000F025F8D4
:101B100000221146501F00F020F800221146101F2D
:101B200000F01BF800221146901E00F016F800226B
:101B30001146501E00F011F808BD00004438024064
:101B400000BF00F01F02012191404209920002F102
:101B5000E022C2F8001100BF70472DE9F05F804617
:101B60000D461646002701F07DFE074639462A46F7
:101B7000334601F00700C0F1070ABAF1040F02D999
:101B80004FF0040A01E0C0F1070AD14600F1040A4F
:101B9000BAF1070F02D24FF0000A01E0A0F1030AE8
:101BA000D4464FF0010A0AFA09FAAAF1010A0AEA30
:101BB000020A0AFA0CFA4FF0010B0BFA0CFBABF11C
:101BC000010B0BEA030B4AEA0B042146404601F0E5
:101BD00051FEBDE8F09F000000BF00F00702064B79
:101BE00019684FF6FF031940044B0B4343EA0221E7
:101BF000014B196000BF70470CED00E00000FA05D2
:101C000070B504460D460CB9012070BD58480068F7
:101C100000F00F00A84209D255490D70084600682F
:101C200000F00F00A84201D00120EEE7207800F07C
:101C3000020002281DD1207800F00400042805D1FC
:101C40004C48006840F4E0504A490860207800F0B1
:101C50000800082805D14748006840F4604045491D
:101C600008604448006820F0F000A168084341493A
:101C70000860207800F00100A8B36068012807D14F
:101C80003C4808380068C0F34040B8B90120BCE7C0
:101C90006068022802D06068032807D135480838F8
:101CA0000068C0F3406048B90120AEE73148083809
:101CB0000068C0F3400008B90120A6E72D4800687D
:101CC00020F00300616808432A490860FFF774FDAB
:101CD000064609E0FFF770FD801B41F2883188421B
:101CE00002D9032091E707E02248006800F00C00C9
:101CF0006168B0EB810FEDD11D48006800F00F0066
:101D0000A84209D91A490D700846006800F00F0072
:101D1000A84201D0012078E7207800F004000428D0
:101D200007D11448006820F4E050E16808431149E5
:101D30000860207800F00800082808D10D480068E5
:101D400020F46040216940EAC1000A49086000F0BF
:101D50003DF808490968C1F30311074A515CC840BE
:101D6000064908600020FFF777FE00204DE70000DD
:101D7000003C024008380240045800080C000020D3
:101D800001480068704700000C00002000B5FFF714
:101D9000F7FF04490968C1F38221034A515CC84036
:101DA00000BD0000083802401458000800B5FFF7D5
:101DB000E7FF04490968C1F34231034A515CC84056
:101DC00000BD000008380240145800082DE9F04713
:101DD000002400250026A1462548006800F00C00DC
:101DE00020B1042805D008283AD105E0DFF8849016
:101DF00039E0DFF8849036E01D48001F006800F0ED
:101E00003F041B48001F006800F4800078B11A48A6
:101E10001749091F0968C1F38811A0FB0170014629
:101E2000224600233846FEF7CBF905460EE011485E
:101E30000F49091F0968C1F38811A0FB0170014611
:101E4000224600233846FEF7BBF905460848001F26
:101E50000068C0F30140401C4600B5FBF6F902E003
:101E6000DFF8109000BF00BF4846BDE8F0870000D3
:101E7000083802400024F40000127A00F8B5044645
:101E80000CB90120F8BD207800F00100002874D0C2
:101E9000F948006800F00C0004280DD0F6480068EE
:101EA00000F00C00082813D1F348001F006800F46C
:101EB0008000B0F5800F0BD1EF4808380068C0F300
:101EC0004040002859D06068002856D10120D9E749
:101ED00000BF6068B0F5803F08D1E7480838006867
:101EE00040F48030E449083908601EE06068B0F5CD
:101EF000A02F0DD1E0480838006840F48020DE496A
:101F0000083908600846006840F4803008600CE03A
:101F1000D9480838006820F48030D749083908606B
:101F20000846006820F48020086000BF606890B117
:101F3000FFF742FC054606E0FFF73EFC401B642825
:101F400001D903209EE7CC4808380068C0F3404020
:101F50000028F1D011E0FFF72FFC054606E0FFF75F
:101F60002BFC401B642801D903208BE7C2480838AA
:101F70000068C0F340400028F1D1207800F0020052
:101F800002285FD1BC48006800F00C0058B1BA4884
:101F9000006800F00C0008281CD1B748001F00683A
:101FA00000F48000B0B9B44808380068C0F34000BD
:101FB00020B1E068012801D0012063E7AE4808386D
:101FC000006820F0F800216940EAC100AA490839F8
:101FD000086037E0E06800B30120A8490860FFF717
:101FE000EBFB054606E0FFF7E7FB401B022801D9A3
:101FF000032047E7A04808380068C0F340000028E5
:10200000F1D09D480838006820F0F800216940EAC6
:10201000C10099490839086014E000209749086018
:10202000FFF7CAFB054606E0FFF7C6FB401B022888
:1020300001D9032026E7904808380068C0F3400023
:102040000028F1D1207800F0080008282CD1606920
:10205000A8B101208A490860FFF7AEFB054606E0FB
:10206000FFF7AAFB401B022801D903200AE7824898
:102070006C300068C0F340000028F1D014E000206C
:102080007F490860FFF798FB054606E0FFF794FBE1
:10209000401B022801D90320F4E677486C30006821
:1020A000C0F340000028F1D1207800F0040004289B
:1020B00070D1002670483830006800F0805090B928
:1020C00000BF002000906C483830006840F080501D
:1020D0006949383108600846006800F08050009077
:1020E00000BF00BF01266748006800F48070B0B9E7
:1020F0006448006840F4807062490860FFF75CFB48
:10210000054606E0FFF758FB401B022801D90320D3
:10211000B8E65C48006800F480700028F2D000BF88
:10212000A068012808D154486830006840F00100D8
:102130005149683108601DE0A06805280DD14E485E
:102140006830006840F004004B4968310860084678
:10215000006840F0010008600CE047486830006803
:1021600020F001004449683108600846006820F00A
:102170000400086000BFA068A8B1FFF71DFB05467A
:1021800009E0FFF719FB401B41F28831884202D970
:10219000032077E626E0384868300068C0F3400046
:1021A0000028EED013E0FFF707FB054608E0FFF735
:1021B00003FB401B41F28831884201D9032061E6CC
:1021C0002D4868300068C0F340000028EFD1012E90
:1021D00007D129483830006820F08050264938312E
:1021E000086000BFA069B8B32348006800F00C0085
:1021F00008285ED0A069022846D100201F49086641
:10220000FFF7DAFA054606E0FFF7D6FA401B022888
:1022100001D9032036E6184808380068C0F340604A
:102220000028F1D1D4E907010843616A40EA81112D
:102230000122A06AC2EB500041EA00412C20005D5F
:1022400041EA00600C49091F086001200B4908663B
:10225000FFF7B2FA054607E02DE0FFF7ADFA401BA5
:10226000022801D903200DE6034808380068C0F3AE
:1022700040600028F1D01EE00838024000004742CC
:10228000800E47420070004000200C490866FFF7AE
:1022900093FA054606E0FFF78FFA401B022801D9A2
:1022A0000320EFE506480068C0F340600028F2D143
:1022B00001E00120E6E50020E4E5000000004742DF
:1022C000003802407047014691F851007047000005
:1022D000F8B50446206846682068856805F0400027
:1022E00048B905F0010030B106F0400018B12046B1
:1022F000216C8847F8BD05F0020030B106F080007F
:1023000018B12046616C8847F4E705F4B0700028E6
:1023100076D006F02000002872D005F04000F0B121
:1023200094F8510003280ED0606D40F00400606501
:1023300000BF002000902068C0680090206880687E
:10234000009000BF0BE000BF002000902068C06834
:10235000009020688068009000BF00BFCAE705F0C9
:10236000200088B1606D40F00100606500BF002072
:1023700000902068806800902068006820F040008D
:102380002168086000BF00BF05F4807058B1606D1F
:1023900040F00800606500BF002000902068806861
:1023A000009000BF00BF606D20B32068406820F03F
:1023B000E00021684860012084F8510006F0020026
:1023C00010B906F00100B8B12068406820F00300A1
:1023D00021684860E06C28B10A48E16C0865E06C4F
:1023E000FEF7BDFEA06C28B10648A16C0865A06C84
:1023F000FEF7B5FE03E003E02046FFF763FF79E751
:1024000000BF77E74144000810B504460CB901202D
:1024100010BD606A00B900BF0021A16294F85100AC
:1024200028B9002084F85000204600F033F802203C
:1024300084F851002068006820F04000216808609E
:10244000D4E901010843E16808432169084361694F
:102450000843218B01F400710843E1690843216AB4
:102460000843A16A0843216808600421A06901EAC1
:102470001040616A0843216848602068C06920F400
:1024800000602168C86100206065012084F8510067
:102490000020BDE710B586B004464C49206888424C
:1024A00046D100BF002000904948006840F48050A9
:1024B000474908600846006800F48050009000BF5B
:1024C00000BF2820019002200290012003900320E9
:1024D00004900520059001A93E48FFF75BF83E48AF
:1024E0003E4908604FF0C060486040213B48816031
:1024F0000021C1604FF4806101610021416181616F
:10250000C16101624162FEF75FFF18B18B2134A007
:1025100002F082FC00BF3148A064846300BF002247
:1025200009212320FFF719FB2320FFF709FB4BE0CC
:102530002F492068884247D100BF002000902448DE
:10254000001F006840F480402149091F08600846C8
:10255000006800F48040009000BF00BF4FF42040AE
:102560000190022002900120039003200490052096
:10257000059001A91748FFF70DF81E481E4908608D
:102580000020486040211C4881600021C1604FF458
:1025900080610161002141618161C161016241622B
:1025A000FEF712FF18B1BA210DA002F035FC00BFF2
:1025B0001148A064846300BF002207212420FFF794
:1025C000CCFA2420FFF7BCFA06B010BD0030014061
:1025D000443802400004024058640240A002002037
:1025E0002E2E2F5372632F7370692E63000000002C
:1025F0000038004070600240000300202DE9F041E7
:1026000004460E461546002700BF94F850000128E6
:1026100002D10220BDE8F081012084F8500000BF03
:1026200094F85100012801D0022748E006B10DB905
:10263000012744E0032084F85100002060652663F0
:10264000A586E586A06360642064A087E087A06813
:10265000B0F5004F05D12068006840F48040216843
:1026600008601A48A16C08641948A16CC86319482D
:10267000A16CC8640020A16C0865E38ED4F800C08A
:102680000CF10C02216BA06CFEF714FF20680068AF
:1026900000F04000402805D02068006840F040006D
:1026A000216808602068406840F020002168486088
:1026B0002068406840F002002168486000BF00BF09
:1026C000002084F8500000BF3846A3E77D4400088E
:1026D0008B4400085544000870477047042808D10F
:1026E0004FF0E021096941F004014FF0E02211614F
:1026F00007E04FF0E021096921F004014FF0E022EA
:1027000011617047704770B504462546681EB0F1E8
:10271000807F01D301200FE0681E4FF0E021486167
:102720000F214FF0FF3001F0A5F800204FF0E0211D
:10273000886107200861002070BD10B5FFF7E2FF37
:1027400010BD70477047024600BF92F8380001285C
:1027500001D102207047012082F8380000BF02201A
:1027600082F839001068406820F0700013685860E3
:10277000106840680B6818431368586010688068D8
:1027800020F0800013689860106880684B681843D8
:1027900013689860012082F8390000BF002082F899
:1027A000380000BF00BFD5E710B504460CB90120C2
:1027B00010BD94F8390028B9002084F8380020466C
:1027C00000F00CF8022084F83900211D206801F087
:1027D000ABFF012084F839000020E9E708B5016863
:1027E000B1F1804F0FD100BF002100911A49096853
:1027F00041F00101184A11601146096801F0010118
:10280000009100BF27E0154A016891420FD100BF37
:10281000002100911049096841F010010E4A116031
:102820001146096801F01001009100BF13E00C4A45
:10283000016891420FD100BF00210091064909684B
:1028400041F02001044A11601146096801F020019D
:10285000009100BF00BF08BD40380240001000409A
:102860000014004001460868C06840F001000A6892
:10287000D0600868006840F001000A68106000201D
:102880007047704710B5044620680069C0F34000E7
:10289000D8B12068C068C0F34000B0B16FF002004A
:1028A00021680861012020762068806900F003001B
:1028B00018B12046FFF7E5FF05E0204600F0ADF82F
:1028C000204600F0ABF80020207620680069C0F3B5
:1028D0008000D8B12068C068C0F38000B0B16FF04C
:1028E000040021680861022020762068806900F4D5
:1028F000407018B12046FFF7C4FF05E0204600F005
:102900008CF8204600F08AF80020207620680069C4
:10291000C0F3C000D8B12068C068C0F3C000B0B137
:102920006FF0080021680861042020762068C069E3
:1029300000F0030018B12046FFF7A3FF05E0204692
:1029400000F06BF8204600F069F80020207620683F
:102950000069C0F30010D8B12068C068C0F300104F
:10296000B0B16FF01000216808610820207620685F
:10297000C06900F4407018B12046FFF782FF05E0FF
:10298000204600F04AF8204600F048F80020207663
:102990002068006900F0010058B12068C06800F0AC
:1029A000010030B16FF0010021680861204600F09D
:1029B00037F820680069C0F3C01058B12068C068BB
:1029C000C0F3C01030B16FF080002168086120466C
:1029D000FFF7B7FE20680069C0F3801058B1206887
:1029E000C068C0F3801030B16FF04000216808610A
:1029F000204600F03BF820680069C0F3401058B151
:102A00002068C068C0F3401030B16FF0200021682A
:102A100008612046FFF796FE10BD70477047000022
:102A200010B504462068B0F1804F02D101F05EF885
:102A300012E00A492068884202D101F049F90BE00E
:102A400007492068884207D106480078401C05499C
:102A5000087001200449087010BD000000100040FB
:102A6000001400403A00002038000020704770B584
:102A70000446002520684069C0F3C01594F8390069
:102A800021280ED16DB12068406920F080002168B6
:102A90004861206B10B1206BFEF70CFB204601F063
:102AA00031FF20684069C0F3801594F83A0022286D
:102AB0000ED16DB12068406920F040002168486166
:102AC000606B10B1606BFEF7F5FA204601F0FAFE7C
:102AD000002070BD704700002DE9F04704462068D3
:102AE00005682068C668206847694FF00008C1463D
:102AF00005F00F08B8F1000F0AD105F0200038B139
:102B000006F0200020B1204601F006FFBDE8F08766
:102B1000B8F1000F6DD007F0010018B906F49070FD
:102B2000002866D005F0010030B106F4807018B1BD
:102B3000E06B40F00100E06305F0040030B107F005
:102B4000010018B1E06B40F00200E06305F0020004
:102B500030B107F0010018B1E06B40F00400E06311
:102B600005F0080030B107F0010018B1E06B40F04B
:102B70000800E063E06B68B305F0200028B106F0C0
:102B8000200010B1204601F0C7FE20684069C0F364
:102B90008019E06B00F0080010B9B9F1000F22D0E5
:102BA000204601F08FFE2068406900F04000B0B17F
:102BB0002068406920F0400021684861606B50B196
:102BC0001748616B0865606BFEF7C9FA10B1606B5E
:102BD000016D88470CE02046FFF77CFF08E02046A7
:102BE000FFF778FF04E02046FFF774FF0020E06362
:102BF0008CE705F0800030B106F0800018B1204667
:102C000002F08CF882E705F0400030B106F0400099
:102C100018B1204601F066FE78E700BF76E70000B5
:102C20000D48000810B504460CB9012010BDA0697C
:102C300000B100E000BF94F8390028B9002084F802
:102C40003800204600F028F8242084F83900206855
:102C5000C06820F400502168C860204601F0AAFE38
:102C60002068006920F4904021680861206840696C
:102C700020F02A00216848612068C06840F40050B4
:102C80002168C8600020E063202084F8390084F8BF
:102C90003A000020CAE7000010B586B00446874914
:102CA000206888421FD100BF00200090844800683F
:102CB00040F01000824908600846006800F01000EB
:102CC000009000BF00BF4FF4C0600190022002904E
:102CD00001200390032004900720059001A9794862
:102CE000FEF758FCE7E07849206888426DD100BFC4
:102CF000002000907248001F006840F400307049C6
:102D0000091F08600846006800F40030009000BF0A
:102D100000BF0C200190022002900120039004903B
:102D20000720059001A96748FEF734FC6748684909
:102D300008604FF000604860002165488160C16014
:102D40004FF480610161002141618161C1614FF4F3
:102D50008031016200214162FEF736FB18B1B021DB
:102D60005CA002F059F800BF59486063846300BF5B
:102D7000564818305B4908604FF0006048604021B9
:102D8000584881600021C1604FF4806101610021D9
:102D900041618161C1614FF4803101620021416272
:102DA000FEF712FB18B1C2214AA002F035F800BFAD
:102DB0004C482063846300BF002201212620FEF7D7
:102DC000CCFE2620FEF7BCFE75E04749206888420D
:102DD00071D100BF002000903948001F006840F406
:102DE00080203749091F08600846006800F48020E9
:102DF000009000BF00BF4FF440600190022002909D
:102E000001200390032004900720059001A9374872
:102E1000FEF7C0FB2D486038354908604FF0006070
:102E20004860002132488160C1604FF480610161D7
:102E30000021416181614FF48071C16149020162E9
:102E400000214162FEF7C0FA18B1F02121A001F083
:102E5000E3FF00BF26486063846300BF1B4830382F
:102E6000244908604FF0006048604021214881609B
:102E70000021C1604FF480610161002141618161E5
:102E8000C1614FF40031016200214162FEF79CFAFA
:102E900020B14FF481710FA001F0BEFF00BF1548B3
:102EA0002063846300BF002202212720FEF755FE25
:102EB0002720FEF745FE06B010BD000000100140BF
:102EC0004438024000000240004400408860024054
:102ED000D40400202E2E2F5372632F7573617274E9
:102EE0002E63000034050020004800400008024026
:102EF00094050020F405002077B581B004461546FE
:102F000094F83A00202850D1029800B115B9012058
:102F100004B070BD00BF94F83800012801D1022030
:102F2000F6E7012084F8380000BF0298A062A5856A
:102F30000020E063222084F83A001D48616BC863DA
:102F40001C48616B08641C48616BC8640020616B9D
:102F5000086502AE32682368191D2B46606BFEF7C8
:102F6000A9FA00BF00200090206800680090206847
:102F70004068009000BF00BF00BF002084F8380008
:102F800000BF2068C06840F480702168C860206875
:102F9000406940F00100216848612068406940F0C4
:102FA0004000216848610020B2E70220B0E700003D
:102FB00071480008B748000821480008704770476A
:102FC0002DE9F84304460D4616461F464FF000090A
:102FD00094F8390020285CD105B116B90120BDE86C
:102FE000F88300BF94F83800012801D10220F6E7E9
:102FF000012084F8380000BF0020E063212084F81D
:103000003900FEF7D9FB8146A684E6842BE0E08CEC
:10301000401EE084A068B0F5805F16D14B460022C8
:1030200080212046009701F0ADFE08B10320D6E7CD
:10303000A846B8F80000C0F308002168486020697D
:1030400008B9AD1C0FE06D1C0DE04B46002280213D
:103050002046009701F096FE08B10320BFE715F85F
:10306000010B21684860E08C0028D0D14B4600223B
:1030700040212046009701F085FE08B10320AEE70D
:10308000202084F8390000BF002084F8380000BFF9
:10309000A5E70220A3E7704703A25521094800F0E5
:1030A000E7FE00BFFEE70000486172647761726569
:1030B0002043505520697320696E204552524F526B
:1030C00021212100D37A00081FB53648364908600F
:1030D0004FF4403048600021334881600121016194
:1030E0008161002101624162C16230498162002137
:1030F000C1600521C1610121016300214161FDF72A
:1031000079FE18B14C212AA001F086FE042000901F
:10311000012001900720029069462348FDF7C6FC74
:1031200018B1562122A001F077FE00200090022065
:1031300001900720029069461B48FDF7B7FC18B1C3
:103140005E211BA001F068FE012000900320019089
:103150000720029069461448FDF7A8FC18B16621C3
:1031600013A001F059FE08200090042001900720D0
:10317000029069460C48FDF799FC18B16E210CA02D
:1031800001F04AFE092000900520019007200290DE
:1031900069460548FDF78AFC18B1762104A001F0C4
:1031A0003BFE1FBD00200140540600200100000F1F
:1031B0002E2E5C5372635C6164632E63000000001A
:1031C00008B500BF002000902648006840F4800049
:1031D000244908600846006800F48000009000BFA1
:1031E00000BF00BF002000900846006840F40010B7
:1031F00008600846006800F40010009000BF00BF9F
:10320000002208210F20FEF7A8FC0F20FEF798FCF3
:10321000002203211020FEF7A0FC1020FEF790FCF6
:10322000002204211120FEF798FC1120FEF788FCF3
:10323000002205210C20FEF790FC0C20FEF780FCFC
:10324000002206210E20FEF788FC0E20FEF778FCF7
:1032500000220A213B20FEF780FC3B20FEF770FC99
:1032600008BD00003038024000B587B000BF002024
:1032700001909A48006840F080009849086008462C
:10328000006800F08000019000BF00BF00BF002078
:1032900001900846006840F0040008600846006895
:1032A00000F00400019000BF00BF00BF00200190AB
:1032B0000846006840F0010008600846006800F019
:1032C0000100019000BF00BF00BF00200190084630
:1032D000006840F0020008600846006800F0020044
:1032E000019000BF00BF00224FF480417C48FEF7F0
:1032F0005DFA00224FF400417948FEF757FA0022A8
:103300004FF400417748FEF751FA00220421744837
:10331000FEF74CFA002210217148FEF747FA4FF4ED
:10332000804002900120039000200490059002A9A3
:103330006B48FEF72FF94FF40040029001200390F4
:1033400000200490059002A96548FEF723F94FF488
:10335000004002900120039004900020059002A9F3
:103360006048FEF717F902200290002003900490B5
:1033700002A95D48FEF70EF9042002900020039098
:10338000049002A95848FEF705F908200290002091
:103390000390049002A95448FEF7FCF81020029014
:1033A00000200390049002A94F48FEF7F3F8202074
:1033B000029000200390049002A94B48FEF7EAF81F
:1033C0004020029000200390049002A94648FEF796
:1033D000E1F88020029000200390049002A9424866
:1033E000FEF7D8F84FF4807002900020039004900C
:1033F00002A93D48FEF7CEF84FF40070029000207D
:103400000390049002A93848FEF7C4F84FF4806096
:10341000029000200390049002A93348FEF7BAF806
:103420004FF40060029000200390049002A92E48FF
:10343000FEF7B0F84FF480700290002003900490E3
:1034400002A92748FEF7A6F84FF40070029000206A
:103450000390049002A92248FEF79CF84FF4806084
:10346000029000200390049002A91D48FEF792F8F4
:103470004FF40060029000200390049002A91848C5
:10348000FEF788F84FF4006002900020039004904B
:1034900002A91448FEF77EF84FF4805002900020F5
:1034A0000390049002A90F48FEF774F804200290DC
:1034B0000120039004900020059002A90848FEF71F
:1034C00069F81020029001200390049000200590DC
:1034D00002A90348FEF75EF807B000BD303802408D
:1034E00000040240000002400008024010B50C48F1
:1034F0000C4908600C48486000210A488160C1609E
:103500004FF480410161002141618161C16101622B
:10351000FEF758F918B1432104A001F07DFC10BD5D
:103520000054004048010020801A06002E2E2F5320
:1035300072632F6932632E630000000010B50C48DF
:103540000C4908600C48486000210A488160C1604D
:103550004FF480410161002141618161C1610162DB
:10356000FEF730F918B1562104A001F055FC10BD4A
:10357000005800409C010020400D03002E2E2F53C8
:1035800072632F6932632E630000000010B50022C1
:1035900009211C20FEF7E1FA1C20FEF7D1FA0022D7
:1035A00011463620FEF7D9FA3620FEF7C9FA002276
:1035B00008213720FEF7D1FA3720FEF7C1FA10BDF7
:1035C00010B50F480F4908604FF482704860002121
:1035D0000C488160C1600221016101214161490201
:1035E00081610021C1610162416281620721C16282
:1035F000FEF70AFF18B14A2103A001F00DFC10BD2F
:1036000000300140F00100202E2E2F5372632F73E3
:1036100070692E630000000010B50F480F49086064
:103620004FF48270486000210C488160C160022123
:10363000016101214161490281610021C161016291
:10364000416281620721C162FEF7DEFE18B161218D
:1036500003A001F0E1FB10BD00380040480200204B
:103660002E2E2F5372632F7370692E63000000009B
:103670001CB54FF080400F4908604AF20F40486087
:1036800000210C488160C721C160FFF78DF818B197
:103690003D2109A001F0C0FB002000900190694687
:1036A0000448FFF750F818B1442103A001F0B4FB1F
:1036B0001CBD0000600300202E2E2F5372632F7458
:1036C000696D2E63000000001CB50F480F490860AB
:1036D00042F2CF00486000210C488160C721C160E0
:1036E000FFF762F818B1542109A001F095FB002002
:1036F0000090019069460548FFF725F818B15B2155
:1037000003A001F089FB1CBD001000409C030020B9
:103710002E2E2F5372632F74696D2E6300000000EC
:103720001CB50F480F49086042F2CF0048600021E5
:103730000C488160C721C160FFF736F818B16B21D2
:1037400009A001F069FB002000900190694605483E
:10375000FEF7F9FF18B1722103A001F05DFB1CBD5B
:1037600000140040D80300202E2E2F5372632F74B4
:10377000696D2E630000000010B50C480C4908600C
:103780004FF461204860002109488160C1600161F7
:103790000C21416100218161C161FFF743FA18B139
:1037A000492104A001F038FB10BD000000100140C9
:1037B000140400202E2E2F5372632F7573617274C0
:1037C0002E63000010B50C480C4908604FF4E1303E
:1037D0004860002109488160C16001610C2141619C
:1037E00000218161C161FFF71DFA18B15C2104A0BD
:1037F00001F012FB10BD0000004400405404002002
:103800002E2E2F5372632F75736172742E63000016
:1038100010B50C480C4908604FF4E13048600021B5
:1038200009488160C16001610C2141610021816111
:10383000C161FFF7F7F918B16F2104A001F0ECFAAC
:1038400010BD000000480040940400202E2E2F538D
:1038500072632F75736172742E63000000BFFEE700
:103860007047000002480068C0F302207047000063
:103870000CED00E010B5002807DA0A07140E054A1F
:1038800000F00F031B1FD45403E00A07130E024A73
:10389000135410BD18ED00E000E400E07047000094
:1038A00010B50B480078012811D100200849087094
:1038B00000F04EF807480078401C0649087008469A
:1038C00000780A2803D10020087000F047FD10BDE1
:1038D000380000203900002010B5002400F0C2F8A4
:1038E00034B1234606A2BF210F4800F0C1FA04E01C
:1038F0000EA2C3210C4800F00BFB204610BD0000B7
:1039000042617474657279206D6F64756C652069AD
:103910006E697420697320696E206572726F7228F7
:103920002564292100000000465800084261747493
:10393000657279206D6F64756C6520696E6974209D
:10394000697320696E20737563636573732E00005D
:1039500030B585B00024002514216846FCF768FCCA
:1039600039480078401C3849087008460078052816
:1039700018D10020087000BF0DE0344830F8140062
:1039800004EB8401324A02EBC101324A127821F879
:103990001200601CC4B2052CEFDB2E480078401CDE
:1039A0002C4908702B48007814284AD10020294956
:1039B0000870002443E000204DF8240000250DE0AD
:1039C00004EB8400224901EBC00030F815005DF8DB
:1039D000241008444DF82400681CC5B2142DEFDBF8
:1039E0005DF824001421B0FBF1F0184921F814000F
:1039F00084B1084630F8140000EE100AB8EE400A10
:103A0000DFED150A20EE200A144800EB840080ED5B
:103A1000000A12E00D4830F81400800000EE100A91
:103A2000F8EEC00A9FED0C1A9FED0D0A00EE810A18
:103A30000A4800EB840080ED000A601CC4B2052C2B
:103A4000B9DB05B030BD0000250000203C0000209F
:103A500046000020240000203333533A1000002099
:103A600014AE073F10B5052208490948FDF77EFA54
:103A700018B1222107A001F0CFF91648FEF7F2FE97
:103A800018B1272103A001F0C7F910BD3C000020A8
:103A9000540600202E2E5C2E2E5C526F626F7450E6
:103AA000726F6A6563745C526F626F745C526F63AD
:103AB000526F626F744472697665725C526F6342D2
:103AC0006174746572795C526F634261747465727B
:103AD000792E6300D803002010B500224FF4004176
:103AE0000148FDF763FE10BD0000024010B5074815
:103AF0000088002807DD05480088401E034908802B
:103B000000F006F801E0FFF7E7FF10BD26000020F7
:103B100010B54FF400410248FDF744FE10BD00000F
:103B20000000024010B5002415A2A421234800F093
:103B300083FA00F067F8044634B121A2B1211F488E
:103B400000F096F900BFFEE700F014FB044634B124
:103B50001BA2B921194800F08BF900BFFEE7FFF75F
:103B6000BBFE044634B116A2C121144800F080F90E
:103B700000BFFEE7204AD821104800F0C9F910BD67
:103B80002323232323232323232323232320526F8D
:103B9000626F742068617264776172652076657205
:103BA00073696F6E206973205631212023232323EC
:103BB000232323232323232323000000B47A000894
:103BC000526F626F742068617264776172652069F8
:103BD0007320696E206572726F722C207468652084
:103BE00073797374656D2077696C6C206E6F7420C7
:103BF00072756E2100000000E87A000810B5FFF72A
:103C00004FFE10BD70B50024002500BF05E0FF2069
:103C10000E4921F81400601CC4B2112CF7DB0C48CB
:103C2000FEF720FE18B181210AA001F0F5F82DB1B0
:103C300016A286211D4800F01BF904E01CA28A216F
:103C40001A4800F065F9284670BD000024010020E4
:103C50009C0300202E2E5C2E2E5C526F626F7450DF
:103C6000726F6A6563745C526F626F745C526F63EB
:103C7000526F626F744472697665725C526F634B07
:103C800065795C526F634B65792E63004B657920D3
:103C90006D6F64756C6520696E6974206973206945
:103CA0006E206572726F722100000000927A000827
:103CB0004B6579206D6F64756C6520696E69742041
:103CC000697320696E207375636365737300000008
:103CD00010B500240BE0614830F814004FF6FF7176
:103CE00001EA40005D4921F81400601CC4B2112CA7
:103CF000F1DB02215A48FDF74DFD58490988084378
:103D00005649088004215648FDF744FD5349498827
:103D100008435249488008215148FDF73BFD4F496F
:103D2000898808434D49888010214D48FDF732FDB0
:103D30004A49C98808434949C88020214848FDF7B5
:103D400029FD4649098908434449088140214448DE
:103D5000FDF720FD414949890843404948818021B8
:103D60003F48FDF717FD3D49898908433B49888154
:103D70004FF480713A48FDF70DFD3849C989084371
:103D80003649C8814FF400713548FDF703FD3349CA
:103D9000098A0843314908824FF480613048FDF7B1
:103DA000F9FC2E49498A08432C4948824FF40061A6
:103DB0002B48FDF7EFFC2949898A08432749888267
:103DC0004FF480712748FDF7E5FC2449C98A084370
:103DD0002249C8824FF400712248FDF7DBFC1F49DD
:103DE000098B08431D4908834FF480611D48FDF786
:103DF000D1FC1A49498B0843184948834FF40061A4
:103E00001848FDF7C7FC1549898B08431349888377
:103E10004FF400611448FDF7BDFC1049C98B0843FD
:103E20000E49C8834FF480510F48FDF7B3FC0B498E
:103E3000098C08430949088400240CE0074810F85D
:103E4000140030B90120A040084909680843074917
:103E50000860601CC4B2112CF0DB10BD24010020EE
:103E6000000802400004024000000240340000202C
:103E70000FB4F0B5A1B005460E460027002400207F
:103E80002090782102A8FCF7D3F929A82090782166
:103E900002A8209B289A00F0F3FFFDF78DFC07464F
:103EA00002A833462A463946009007A000F0D8FF02
:103EB0000446002C03DA21460EA000F0D1FF204674
:103EC00021B0F0BC5DF814FB5B25303130645D201F
:103ED0001B5B303B33316D5B4552524F525D257356
:103EE0005B25645D3A202573201B5B306D200D0A35
:103EF000000000005072696E742069732065727250
:103F00006F7228256429212121200D0A000000005C
:103F10000FB4F0B5A1B005460E46002700240020DE
:103F20002090782102A8FCF783F929A82090782115
:103F300002A8209B289A00F0A3FFFDF73DFC07464E
:103F400002A833462A463946009007A000F088FFB1
:103F50000446002C03DA214609A000F081FF204628
:103F600021B0F0BC5DF814FB5B25303130645D207E
:103F700025735B25645D3A202573200D0A0000003F
:103F80005072696E74206973206572726F72282591
:103F90006429212121200D0A000000000FB4F0B592
:103FA000A1B005460E4600240027782102A8FCF7A0
:103FB0003FF929A82090782102A8209B289A00F098
:103FC0005FFFFDF7F9FB074602A833462A4639464C
:103FD000009007A000F044FF0446002C03DA2146BD
:103FE0000EA000F03DFF204621B0F0BC5DF814FBB0
:103FF0005B25303130645D201B5B303B33336D5BC0
:104000004E4F544946595D25735B25645D3A202522
:1040100073201B5B306D200D0A0000005072696E2A
:1040200074206973206572726F72282564292121BA
:1040300021200D0A000000000FB4F0B5A1B0054624
:104040000E460027002400202090782102A8FCF7CB
:10405000EFF829A82090782102A8209B289A00F048
:104060000FFFFDF7A9FB074602A833462A4639464B
:10407000009007A000F0F4FE0446002C03DA21466D
:104080000DA000F0EDFE204621B0F0BC5DF814FB61
:104090005B25303130645D201B5B303B33326D5B20
:1040A0005741524E5D25735B25645D3A2025732090
:1040B0001B5B306D200D0A005072696E74206973AD
:1040C000206572726F7228256429212121200D0A32
:1040D000000000002DE9F0470446884615464FF0E1
:1040E00000090026002720E0E85D203800F0FF09E5
:1040F0007E2C04DD002408F1010000F0FF08414699
:10410000204600F0CBF8002609E009EB4901094AF6
:1041100002EB4101885D00F013F9701CC6B2062E57
:10412000F3DBA01DC4B2781CC7B2E85D0028DBD168
:10413000BDE8F0875072000870B50646002415E00F
:1041400004F1B001C8B200F0EDF8012000F0EAF887
:10415000102000F0E7F8002504E0304600F0F0F809
:10416000681CC5B2802DF8DB601CC4B2082CE7DBEC
:1041700070BD000010B5002400F024F806A2032151
:104180001E20FFF7A7FF2CB107A24FF4EB710C48DC
:10419000FFF76EFE204610BD496E697420537563AB
:1041A00063657373000000004F4C454420696E69DD
:1041B0007420697320696E206572726F722100002D
:1041C0006C58000810B5002204213348FDF7EEFAC0
:1041D0003220FDF7BFF9012204212F48FDF7E6FA4E
:1041E000AE2000F09FF8002000F09CF8102000F0B6
:1041F00099F8402000F096F8812000F093F8CF2045
:1042000000F090F8A12000F08DF8C82000F08AF8A6
:10421000A62000F087F8A82000F084F83F2000F0E6
:1042200081F8D32000F07EF8002000F07BF8D52044
:1042300000F078F8802000F075F8D92000F072F8CE
:10424000F12000F06FF8DA2000F06CF8122000F096
:1042500069F8DB2000F066F8402000F063F82020C9
:1042600000F060F8022000F05DF88D2000F05AF8B0
:10427000142000F057F8A42000F054F8A62000F015
:1042800051F8AF2000F04EF80020FFF755FF002155
:10429000084600F003F810BD0004024070B5044663
:1042A0000D4605F1B001C8B200F03CF8102141EA1A
:1042B000141000F037F804F00F0000F033F870BD70
:1042C00070B505460E4600BF0948FDF7FCFF012802
:1042D000FAD1324629460648FEF790F904462CB139
:1042E000234604A227210B48FFF7C2FD70BD000042
:1042F000F001002053504920777269746520646191
:10430000746120697320696E206572726F7228254E
:10431000642900005558000801B501216846FFF7DF
:10432000CFFF08BD10B50446002210210348FDF759
:104330003DFA2046FFF7F0FF10BD000000040240E8
:1043400010B50446012210210348FDF72FFA20463C
:10435000FFF7E2FF10BD00000004024010B5054861
:1043600005A2522103680648FFF718FE01480068BD
:1043700010BD0000340000204B65793A20257800FC
:10438000807A0008F8B50446002500261449206804
:10439000884224D1134800680068C0F30015F5B1C5
:1043A00001201149087000BF002000900D480068EE
:1043B000006800900B4800684068009000BF00BF94
:1043C0000848FEF754FB094800684668C6F10B0030
:1043D000074908700B2207490248FEF78DFDF8BD1A
:1043E000004400405404002030000020D404002089
:1043F000310000201901002010B50248FDF768FFC8
:1044000010BD0000F001002010B50248FDF760FF6C
:1044100010BD000048020020F8B504460D461646BF
:104420002B46002280212046009600F067F828B134
:10443000606D40F0200060650320F8BD0020FCE7BF
:1044400070B50546AC6B0020E087E0862046FDF79E
:1044500039FF70BD70B50546AC6B2068406820F030
:10446000030021684860606D40F010006065012025
:1044700084F851002046FDF725FF70BD70B5044655
:10448000A56B2846FEF729F970BDF8B50546AC6B5B
:104490000026FDF791F906462868006800F4807050
:1044A00038BB2068406820F002002168486032462E
:1044B00064212046FFF7B0FF18B1606D40F0200086
:1044C0006065A06850B900BF002000902068C068F7
:1044D000009020688068009000BF00BF0020E08648
:1044E000012084F85100606D18B12046FDF7EAFE06
:1044F000F8BD2046FEF7F0F800BFF9E72DE9F041DE
:1045000004460E4617461D46DDF818803FE0681C3D
:10451000E0B32DB1FDF750F9A0EB0800A84236D367
:104520002068406820F0E000216848606068B0F5CD
:10453000827F0DD1A068B0F5004F03D0A068B0F520
:10454000806F05D12068006820F040002168086075
:10455000A06AB0F5005F0ED100BF206800684DF67C
:10456000FF710840216808602068006840F400502E
:104570002168086000BF012084F8510000BF0020BE
:1045800084F8500000BF0320BDE8F081FFE72068F9
:1045900080683040B04201D1012000E00020B842E4
:1045A000B5D10020F0E7704710B5FDF72BFAFEF704
:1045B000C4F810BD10B592B000BF002000902F4885
:1045C000006840F080502D4908600846006800F0FF
:1045D0008050009000BF00BF00BF0020009028481E
:1045E000006840F48040264908600846006800F4EE
:1045F0008040009000BF00BF01200690000407909B
:1046000002200C9041050D9108210E914FF4A871E4
:104610000F91022110910421119106A8FDF72EFCA3
:1046200018B1A52117A000F0F7FB0F200190022080
:104630000290002003904FF4A05004904FF480505B
:104640000590052101A8FDF7DBFA18B1B3210DA0F3
:1046500000F0E2FBFDF794FB4FF47A71B0FBF1F44C
:104660002046FEF750F80420FEF738F800221146E5
:10467000501EFDF772FA12B010BD00004038024023
:10468000007000402E2E2F5372632F6D61696E2EC5
:10469000630000001448006840F47000124908608C
:1046A0001248006840F001001049086000200F49DE
:1046B000083108600D4800680D4908400B49086042
:1046C0000C48091D0860081F006820F48020091F9D
:1046D0000860002005490C3108604FF00060024975
:1046E000803908607047000088ED00E00038024023
:1046F000FFFFF6FE1030002410B50248FEF7C2F8A6
:1047000010BD00006003002010B50248FEF7BAF8A3
:1047100010BD00009C03002010B50248FEF7B2F85F
:1047200010BD0000D8030020002202682C4B9842E4
:104730000ED0B0F1804F0BD02A4B984208D02A4BB4
:10474000984205D0294B984202D0294B984201D17A
:10475000012300E000231BB122F070024B681A43D2
:104760001F4B984220D0B0F1804F1DD01D4B984276
:104770001AD01D4B984217D01C4B984214D01C4B9A
:10478000984211D01B4B98420ED01B4B98420BD035
:104790001A4B984208D01A4B984205D0194B9842B0
:1047A00002D0194B984201D1012300E000231BB134
:1047B00022F44072CB681A4302608B68C3620B68B4
:1047C0008362074B984202D0094B984201D10123E2
:1047D00000E000230BB10B690363012343617047C1
:1047E000000001400004004000080040000C0040B0
:1047F00000040140004001400044014000480140E5
:1048000000180040001C00400020004070B5054624
:10481000AC6B0020E085E0842046FEF75BF970BDBC
:1048200070B506460025B46B20684069C0F3C0151A
:1048300094F83900212805D125B10020E0842046D4
:1048400000F060F820684069C0F3801594F83A00E1
:10485000222805D125B10020E085204600F032F85D
:10486000E06B40F01000E0632046FEF733F970BDC6
:1048700070B50546AC6B2868006800F48070B0B96C
:104880000020E0852068C06820F480702168C8603E
:104890002068406920F00100216848612068406973
:1048A00020F0400021684861202084F83A0020462A
:1048B000FEF784FB70BD70B50446A56B2846FEF775
:1048C0007EFB70BD0168C96821F490710268D160F7
:1048D0000168496921F0010102685161202180F8D5
:1048E0003A10704710B504462068C06820F04000B8
:1048F0002168C860202084F839002046FEF7CBFBF1
:10490000002010BD0168C96821F0C0010268D160B3
:10491000202180F83910704770B5044694F83A00A9
:10492000222844D1A068B0F5805F13D1A56A206920
:1049300040B920684068C0F308002880A06A801C45
:10494000A06219E020684068C0B22880A06A401CBC
:10495000A06211E0206938B920684068C1B2A26A3B
:10496000501CA062117007E02068406800F07F01D1
:10497000A26A501CA0621170E08D401E80B2E085DA
:1049800098B92068C06820F490702168C8602068D9
:10499000406920F0010021684861202084F83A0035
:1049A0002046FEF70BFB002070BD0020FCE7022034
:1049B000FAE700002DE9F04104460025206805696A
:1049C00025F44055E0680543206805612068C56806
:1049D00049F20C6085432169A06808436169084376
:1049E000E169084305432068C5602068456925F4EE
:1049F0004075A069054320684561E069B0F5004F46
:104A00007ED1C4492068884203D0C34920688842C7
:104A10005DD1FDF7CBF900EBC00101EB001061683F
:104A20004900B0FBF1F06421B0FBF1F00601FDF7A5
:104A3000BDF900EBC00101EB001061684900B0FB5B
:104A4000F1F7FDF7B3F900EBC00101EB001061686D
:104A50004900B0FBF1F06421B0FBF1F000EBC001C4
:104A600001EB0010A7EB8000322101EBC0006421B4
:104A7000B0FBF1F000F0F80006EB4006FDF796F908
:104A800000EBC00101EB001061684900B0FBF1F7D9
:104A9000FDF78CF900EBC00101EB001061684900E3
:104AA000B0FBF1F06421B0FBF1F000EBC00101EBD1
:104AB0000010A7EB8000322101EBC0006421B0FBA5
:104AC000F1F000F0070030442168886020E1FDF734
:104AD0005DF900EBC00101EB001061684900B0FB1B
:104AE000F1F06421B0FBF1F00601FDF74FF900EBA6
:104AF000C00101EB001061684900B0FBF1F700E074
:104B000045E0FDF743F900EBC00101EB00106168DF
:104B10004900B0FBF1F06421B0FBF1F000EBC00103
:104B200001EB0010A7EB8000322101EBC0006421F3
:104B3000B0FBF1F000F0F80006EB4006FDF726F9B7
:104B400000EBC00101EB001061684900B0FBF1F718
:104B5000FDF71CF900EBC00101EB00106168490092
:104B6000B0FBF1F06421B0FBF1F000EBC00101EB10
:104B70000010A7EB8000322101EBC0006421B0FBE4
:104B8000F1F000F00700304421688860C0E061491E
:104B90002068884203D06049206888425CD1FDF7D4
:104BA00005F900EBC00101EB001061688900B0FB62
:104BB000F1F6FDF7FBF800EBC00101EB00106168B6
:104BC0008900B0FBF1F06421B0FBF1F000EBC00113
:104BD00001EB0010A6EB8000322101EB00106421F4
:104BE000B0FBF1F000F0F006FDF7E0F800EBC001DB
:104BF00001EB001061688900B0FBF1F06421B0FBAB
:104C0000F1F006EB0016FDF7D1F800EBC00101EB67
:104C1000001061688900B0FBF1F7FDF7C7F800EB01
:104C2000C00101EB001061688900B0FBF1F0642164
:104C3000B0FBF1F000EBC00101EB0010A7EB80002E
:104C4000322101EB00106421B0FBF1F000F00F0005
:104C50003044216888605BE0FDF798F800EBC00104
:104C600001EB001061688900B0FBF1F6FDF78EF8EA
:104C700000EBC00101EB001061688900B0FBF1F0AE
:104C80006421B0FBF1F000EBC00101EB0010A6EBDA
:104C90008000322101EB00106421B0FBF1F000F044
:104CA000F006FDF773F800EBC00101EB001061683E
:104CB0008900B0FBF1F06421B0FBF1F006EB0016C7
:104CC000FDF764F800EBC00101EB0010616889009A
:104CD000B0FBF1F7FDF75AF800EBC00101EB001053
:104CE00061688900B0FBF1F06421B0FBF1F000EBEA
:104CF000C00101EB0010A7EB8000322101EB001096
:104D00006421B0FBF1F000F00F00304421688860AE
:104D1000BDE8F0810010014000140140014691F807
:104D2000390021282CD18868B0F5805F0FD10A6A3C
:104D30001088C0F308000B685860086918B9086A41
:104D4000801C086209E0086A401C086205E00B6AE2
:104D5000581C086218780B685860C88C401E80B2D6
:104D6000C88458B90868C06820F080000B68D86013
:104D70000868C06840F040000B68D86000207047A9
:104D80000220FCE72DE9F04104460D4617469846FF
:104D9000069E21E0701CF8B12EB1FCF70DFDA0EBD2
:104DA0000800B04218D92068C06820F4D07021688B
:104DB000C8602068406920F0010021684861202017
:104DC00084F8390084F83A0000BF002084F83800E5
:104DD00000BF0320BDE8F081206800682840A84299
:104DE00001D1012000E00020B842D3D00020F1E73B
:104DF00010B50348FFF7C6FA0148FDF76DFE10BD78
:104E00005404002010B50248FDF766FE10BD0000F6
:104E10009404002000BFFEE708B504460D4606E0F6
:104E2000234603A2E3210D480095FFF721F8F7E799
:104E3000486172647761726520697320696E2065CC
:104E400072726F722846696C653A2025732C204C6B
:104E5000696E653A2025642921000000C47A0008A3
:104E60000FB4054B10B503A9044A029800F0F0F8FE
:104E700010BC5DF814FB0000955700082C000020C2
:104E80007CB5044600201D46164600290BD0491E5D
:104E9000CDE90041044B6A462946304600F0D8F877
:104EA000009A002111707CBD7F57000802E008C8FD
:104EB000121F08C1002AFAD170477047002001E094
:104EC00001C1121F002AFBD1704700002DE9FF5FCE
:104ED00082B00021DDE90430020DDDF840B003436B
:104EE00018D044F61050A2F2FF3242431514119824
:104EF00001281FD0A5EB0B00401C5FEA000A4FF011
:104F000000064E4FDFF83891B046504615D5CAF12D
:104F1000000413E0119801244AA3012801D16FEA8B
:104F20000B010298119AC0E90031C0E9024206B0B3
:104F3000BDE8F09FCBF10000DFE704460021404AC6
:104F4000491842EB0450CDE9001012E0E00707D009
:104F500032463B4640464946FBF751FA8046894671
:104F600032463B4610461946FBF749FA06460F46BD
:104F70006410002CEAD1DDE90401DDE90023BAF177
:104F8000000F06DAFBF73BFA42464B46FBF737FACF
:104F900005E0FBF7A6FA42464B46FBF7A2FA0446A9
:104FA0000E460022284BFBF723FB03D84FF0FF30BF
:104FB000014607E00022254B20463146FBF778F9F1
:104FC000FBF7FEFA102409E0002C0ADB0A2200237A
:104FD000FBF7F6F8039B30321A55641E50EA0102C3
:104FE000F2D1641C039AC4F111031444119A012AEA
:104FF00003D0012208430DD10AE0084304D0002069
:105000004FF0110B119072E7A3EB0B056D1E0DE035
:105010005B4504DD4FF0000205F1010504E003DA11
:105020004FF00002A5F10105002AECD00298119979
:10503000C0E90231C0E9004579E7000000001440F2
:105040000000F03F300000000000F0430000E03FAF
:105050002DE9FF4F95B09B468946064600250FE295
:10506000252877D100242746F84A0121059400E03D
:10507000044316F8013F203B01FA03F01042F7D138
:1050800030782A2811D06FF02F033078A0F1300249
:10509000092A16D8059A44F0020402EB820203EBB7
:1050A00042021044761C0590EFE759F8042B059254
:1050B000002A03DA504244F40054059044F00204FC
:1050C000761C30782E2816D116F8010F44F004040F
:1050D0002A280DD06FF02F023078A0F13003092B71
:1050E00009D807EB870302EB4303C718761CF3E7E5
:1050F00059F8047B761C30786C280FD006DC4C28DD
:1051000017D068280DD06A2814D104E0742810D074
:105110007A280FD10DE044F400140AE044F480141E
:1051200001E044F440147278824202D104F5801404
:10513000761C761C307866280BD013DC582877D084
:1051400009DC002875D04528F6D04628F4D0472839
:105150001AD19DE118E0632835D0642879D06528FC
:1051600012D195E1702873D008DC6728F1D0692846
:105170006FD06E280DD06F2806D1B5E073282CD0E3
:10518000752875D0782874D05A46179990476D1CA9
:1051900075E1C4F30250022809D003280DD0D9F8D4
:1051A000001004280DD00D6009F1040967E1D9F859
:1051B0000010EA17C1E90052F6E7D9F800100D8097
:1051C000F2E70D70F0E719F8041B8DF800100020CD
:1051D0008DF80100EA46012003E059F804AB4FF0D6
:1051E000FF3061074FF0000102D40DE008F101012A
:1051F0008846B9420FDA8045F8DB1AF80810002912
:10520000F4D108E008F1010188468142FADB1AF87E
:1052100008100029F6D105985B46A0EB0807214647
:105220003846179A00F094FA284400EB080507E086
:105230004DE029E10DE01AF8010B5A461799904705
:10524000B8F10108F7D25B4621463846179A13E1B8
:1052500042E00A220092C4F302524FF0000A022AEE
:1052600008D059F804CB032A4FEAEC710AD00DE0BC
:1052700029E02AE009F1070121F00702F2E802C162
:10528000914609E00FFA8CFC4FEAEC71042A03D135
:105290004FFA8CFC4FEAEC71002907DA0A4600212C
:1052A000DCF1000C61EB02012D2202E0220504D5A5
:1052B0002B228DF80420012203E0E20701D02022F6
:1052C000F7E7904659E00A2102E010220DE0102194
:1052D0004FF0000A00910BE010224FF0000A44F05A
:1052E00004040827009203E008224FF0000A00920D
:1052F000C4F30252022A05D059F804CB0021032A34
:1053000008D009E009F1070121F00702F2E802C123
:10531000914605E01FFA8CFC042A01D10CF0FF0C29
:105320004FF00008220728D5702806D0009B83F094
:10533000100353EA0A0305D00EE040228DF8042042
:10534000012208E05CEA010206D030228DF8042038
:105350008DF8050002229046009B83F0080353EA73
:105360000A030AD15CEA010201D1620705D53022A5
:105370008DF804204FF001087F1E582804D034A077
:1053800003900EA802900DE036A0F9E75346604660
:10539000009AFAF715FF84460398825C0298401E33
:1053A000029002705CEA0100F0D1029806A9081A86
:1053B00000F1200A600702D524F4803400E00127C0
:1053C000574502DDA7EB0A0000E0002000EB0A01D0
:1053D000009005984144401A0590E00306D45B46CE
:1053E0002146179A059800F0B3F90544002706E016
:1053F00001A85A46C05D179990476D1C7F1C474510
:10540000F6DBE0030CD55B462146179A059800F0C1
:105410009FF9054404E030205A46179990476D1CC7
:105420000099481E00900029F5DC08E002980299D6
:105430005A460078491C0291179990476D1CBAF1A1
:105440000001AAF1010AF1DC65E100000928010070
:1054500030313233343536373839616263646566EA
:1054600000000000303132333435363738394142AC
:10547000434445460000000000F058F90544761CFE
:10548000307800287FF4ECAD19B02846BDE8F08FE5
:10549000620700D4062709F1070222F0070CFCE896
:1054A0000223E14603F000485FEA080C02D00FF245
:1054B000702C0DE05FEA045C02D50FF2682C07E067
:1054C0005FEAC47C02D00FF2602C01E0AFF2700CF6
:1054D0004FF0FF3823F00043CDF850C065280CD0C2
:1054E00006DC452809D046281DD047283DD13DE09F
:1054F000662818D067287ED138E00021112F01DB03
:10550000112000E0781CCDE9000106A90EA8FFF7E4
:10551000DDFCDDE90F010E9A03910021009207F1F5
:10552000010A04914DE04FF000400097CDE90110D1
:1055300006A90EA8FFF7CAFCDDE90F0203920E9B35
:1055400011990022DDF80CA00093049211B9791C86
:1055500000EB010AB7EB0A0004D4C0F1FF3007F1F9
:10556000010A0490AAEB0700019044E0012F00DA41
:1055700001270021112F01DD112000E03846CDE97F
:10558000000106A90EA8FFF7A1FCDDE90F010E9AA4
:105590000391002104910092BA4621070CD403998B
:1055A000514500DA8A46BAF1010F05DD009AAAF1E9
:1055B0000101515C302908D0B84202DA10F1040F21
:1055C00006DA0121CDE9011015E0AAF10101E9E7B0
:1055D000002805DC049901440491AAEB000102E0D3
:1055E000411C514500DD8A460499401A401C019037
:1055F0004FF000400290200704D40198504501DB91
:10560000CDF8048000208DF84F0002980DF14F076F
:10561000B0F1004F25D02B200E9002984FF00208D9
:1056200000280CDA404202902D200E9007E00A215B
:105630000298FAF708FE3031029007F8011DB8F120
:105640000001A8F10108F2DC02980028EFD1791ED0
:105650000E980870307800F0200040F0450007F800
:10566000020D12A8C01B00F107081498007800B1C1
:10567000012000EB0A01019801EBE071059841441B
:10568000401A401E0590E00306D45B462146179A57
:10569000059800F05DF805441498007818B15A4652
:1056A000179990476D1CE00324D55B462146179A55
:1056B000059800F04DF805441CE00498002807DB2D
:1056C000DDE90301884203DD0098405C179901E0A1
:1056D000179930205A469047049805F10105401C5F
:1056E00004900198401E019004D12E205A4617992B
:1056F00090476D1CBAF10001AAF1010ADDDC05E05A
:1057000017F8010B5A46179990476D1CB8F1000124
:10571000A8F10108F4DC5B462146179A0598ABE630
:105720002D0000002B000000200000002DE9F041BA
:10573000044600251E461746880404D405E0394671
:105740002020B0476D1C641EF9D52846BDE8F081C5
:105750002DE9F041044600251E469046C80301D5B8
:10576000302700E02027880404D505E0414638466C
:10577000B0476D1C641EF9D52846BDE8F0814A6823
:10578000002A06D00A68531C0B6010704868401E3F
:105790004860704713B50C464FF6FF730122694607
:1057A0000248FDF70DFC00981CBD00001404002009
:1057B000FCF734F9FEF7FEFEFDF756FDFDF700FDA0
:1057C000FDF7DAFFFDF780FCFDF7FCFFFDF78EFE2D
:1057D000FDF7F6FEFEF71CF8FDF7B0FEFDF71CFF27
:1057E000FDF746FFFDF770FFFDF79AFFFDF7CEFED0
:1057F000FEF798F901E0FEF701FAFCE70006101643
:105800000006101600000000000000000102030462
:10581000060708090000000001020304526F6341FB
:105820006463566F6C746167654765740048414CEA
:105830005F4144435F436F6E7643706C7443616CA9
:105840006C6261636B00526F63426174746572795C
:10585000496E697400526F634F6C6564537069449C
:105860006D6157726974654461746100526F634F72
:105870006C6564496E69740000000000000000005F
:1058800000000000000000000010101010101010A8
:10589000101000001010000000006C6C24240000A8
:1058A00000000100000000000024242424FE4848D9
:1058B0004848FC909090900000103C5492905038D2
:1058C00014121292547810000000225C94A8481020
:1058D00010242A5254880000000030484850206E9E
:1058E00054948C888A74000000003030101000003E
:1058F000000000000000000000040810102020201C
:1059000020202010100804000080402020101010DB
:1059100010101020204080000000000010543810AB
:10592000385410000000000000000010101010FE9D
:105930001010101000000000000000000000000027
:10594000000000001010200000000000000000FE19
:105950000000000000000000000000000000000047
:1059600000000000101000000000040408081010DF
:1059700020204040808000000000384482828282E3
:1059800082828282443800000000107010101010D3
:1059900010101010107C00000000384482820408AF
:1059A0001020408284FC0000000038448202043849
:1059B00004020282443800000000040C1414242461
:1059C0004444FE04040E00000000FC808080B8C443
:1059D000820202828478000000003C428280B8C4C7
:1059E000828282824438000000007E4282040408E1
:1059F000080810101010000000003844828244385B
:105A000044828282443800000000384482828282CC
:105A1000463A0282443800000000000010100000E6
:105A20000000101000000000000000001010000036
:105A30000000001010200000000000000618608028
:105A40006018060000000000000000000000FE00DA
:105A500000FE00000000000000000000C0300C024A
:105A60000C30C000000000000038448282020408AC
:105A7000101010001010000000003844829AAAAAEA
:105A8000AAAAAA9680423C000000101010282828DC
:105A900044447C4444EE00000000FC424242427C0C
:105AA0004242424242FC000000003C44828080802E
:105AB00080808282443800000000F8444242424222
:105AC0004242424244F800000000FC444240447C10
:105AD0004440404244FC00000000FC444240447CFE
